S0130000666C6173686C6F616465722E737265638C
S31520250000E0D527207D082520A7512520A751252065
S31520250010B32C2620E12C2620012D262000000000A9
S31520250020000000000000000000000000A751252048
S31520250030A751252000000000A7512520A7512520BE
S315202500402D8926202D8926202D8926202D89262075
S315202500502D8926202D8926202D8926202D89262065
S315202500602D8926202D8926202D8926202D89262055
S315202500702D8926202D8926202D8926202D89262045
S315202500802D8926202D8926202D8926202D89262035
S31520250090A75926202D8926202D8926202D892620DB
S315202500A02D8926202D8926202D8926202D89262015
S315202500B02D8926202D8926202D8926202D89262005
S315202500C02D8926202D8926202D8926202D892620F5
S315202500D02D8926202D8926202D8926202D892620E5
S315202500E02D8926202D8926202D8926202D892620D5
S315202500F02D8926202D8926202D8926202D892620C5
S315202501002D8926202D8926202D8926202D892620B4
S315202501102D8926202D8926202D8926202D892620A4
S315202501202D8926202D8926202D8926202D89262094
S315202501302D8926202D8926202D8926202D89262084
S315202501402D8926202D8926202D8926202D89262074
S315202501502D8926202D8926202D8926202D89262064
S315202501602D8926202D8926202D892620E16A2620BF
S31520250170015D26202D8926202D8926202D8926209C
S315202501802D8926202D8926202D8926202D89262034
S315202501902D8926202D8926202D8926202D89262024
S315202501A02D8926202D8926202D8926202D89262014
S315202501B02D8926202D8926202D8926202D89262004
S315202501C02D8926202D8926202D8926202D892620F4
S315202501D02D8926202D8926202D8926202D892620E4
S315202501E02D892620FD1F25202D8926202D8926206F
S315202501F02D8926202D8926202D8926202D892620C4
S315202502002D8926202D8926202D8926202D892620B3
S315202502102D8926202D8926202D8926202D892620A3
S315202502202D8926202D8926202D8926202D89262093
S315202502302D8926202D8926202D8926202D89262083
S315202502402D8926202D8926202D8926202D89262073
S315202502502D8926202D8926202D8926202D89262063
S315202502603D8526202D8926202D8926202D89262047
S315202502702D8926202D8926202D8926202D89262043
S315202502802D8926202D8926202D8926202D89262033
S315202502902D8926202D8926202D8926202D89262023
S315202502A02D8926202D8926202D8926202D89262013
S315202502B02D8926202D8926202D8926202D89262003
S315202502C02D8926202D8926202D8926202D892620F3
S315202502D02D8926202D8926202D8926202D892620E3
S315202502E02D8926202D8926202D8926202D892620D3
S315202502F02D8926202D8926202D8926202D892620C3
S315202503002D8926202D8926202D8926202D892620B2
S315202503102D8926202D8926202D8926202D892620A2
S315202503202D8926202D8926202D8926202D89262092
S315202503302D8926202D8926202D8926202D89262082
S315202503402D8926202D8926202D8926202D89262072
S315202503502D8926202D8926202D8926202D89262062
S315202503602D8926202D8926202D8926202D89262052
S315202503702D8926202D8926202D8926202D89262042
S315202503802D8926202D892620E96A2620F16A2620F0
S31520250390F96A2620016B26202D8926202D892620BF
S315202503A02D8926202D8926202D8926202D89262012
S315202503B02D8926202D8926202D8926202D89262002
S315202503C02D8926202D8926202D8926202D892620F2
S315202503D02D8926202D8926202D8926202D892620E2
S315202503E02D8926202D8926202D8926202D892620D2
S315202503F02D8926202D8926202D8926202D892620C2
S31520250400E0D527207D082520A7512520A751252061
S31520250410B32C2620E12C2620012D262000000000A5
S31520250420000000000000000000000000A751252044
S31520250430A751252000000000A7512520A7512520BA
S315202504402D8926202D8926202D8926202D89262071
S315202504502D8926202D8926202D8926202D89262061
S315202504602D8926202D8926202D8926202D89262051
S315202504702D8926202D8926202D8926202D89262041
S315202504802D8926202D8926202D8926202D89262031
S31520250490A75926202D8926202D8926202D892620D7
S315202504A02D8926202D8926202D8926202D89262011
S315202504B02D8926202D8926202D8926202D89262001
S315202504C02D8926202D8926202D8926202D892620F1
S315202504D02D8926202D8926202D8926202D892620E1
S315202504E02D8926202D8926202D8926202D892620D1
S315202504F02D8926202D8926202D8926202D892620C1
S315202505002D8926202D8926202D8926202D892620B0
S315202505102D8926202D8926202D8926202D892620A0
S315202505202D8926202D8926202D8926202D89262090
S315202505302D8926202D8926202D8926202D89262080
S315202505402D8926202D8926202D8926202D89262070
S315202505502D8926202D8926202D8926202D89262060
S315202505602D8926202D8926202D892620E16A2620BB
S31520250570015D26202D8926202D8926202D89262098
S315202505802D8926202D8926202D8926202D89262030
S315202505902D8926202D8926202D8926202D89262020
S315202505A02D8926202D8926202D8926202D89262010
S315202505B02D8926202D8926202D8926202D89262000
S315202505C02D8926202D8926202D8926202D892620F0
S315202505D02D8926202D8926202D8926202D892620E0
S315202505E02D892620FD1F25202D8926202D8926206B
S315202505F02D8926202D8926202D8926202D892620C0
S315202506002D8926202D8926202D8926202D892620AF
S315202506102D8926202D8926202D8926202D8926209F
S315202506202D8926202D8926202D8926202D8926208F
S315202506302D8926202D8926202D8926202D8926207F
S315202506402D8926202D8926202D8926202D8926206F
S315202506502D8926202D8926202D8926202D8926205F
S315202506603D8526202D8926202D8926202D89262043
S315202506702D8926202D8926202D8926202D8926203F
S315202506802D8926202D8926202D8926202D8926202F
S315202506902D8926202D8926202D8926202D8926201F
S315202506A02D8926202D8926202D8926202D8926200F
S315202506B02D8926202D8926202D8926202D892620FF
S315202506C02D8926202D8926202D8926202D892620EF
S315202506D02D8926202D8926202D8926202D892620DF
S315202506E02D8926202D8926202D8926202D892620CF
S315202506F02D8926202D8926202D8926202D892620BF
S315202507002D8926202D8926202D8926202D892620AE
S315202507102D8926202D8926202D8926202D8926209E
S315202507202D8926202D8926202D8926202D8926208E
S315202507302D8926202D8926202D8926202D8926207E
S315202507402D8926202D8926202D8926202D8926206E
S315202507502D8926202D8926202D8926202D8926205E
S315202507602D8926202D8926202D8926202D8926204E
S315202507702D8926202D8926202D8926202D8926203E
S315202507802D8926202D892620E96A2620F16A2620EC
S31520250790F96A2620016B26202D8926202D892620BB
S315202507A02D8926202D8926202D8926202D8926200E
S315202507B02D8926202D8926202D8926202D892620FE
S315202507C02D8926202D8926202D8926202D892620EE
S315202507D02D8926202D8926202D8926202D892620DE
S315202507E02D8926202D8926202D8926202D892620CE
S315202507F02D8926202D8926202D8926202D892620BE
S31520250800002A01D101207047F0B41F460346032450
S315202508102340002B09D00424E31A01700130082433
S31520250820E141521E26D05B1EF7D1042A1ADB13D0AE
S31520250830002F11D00C460D460E46102A02DB72C01B
S31520250840103AFAE70C2A02DB32C00C3AFAE7082AD4
S3152025085002DB12C0083AFAE7042A03DB01600430DA
S31520250860121FF9E7002A05D0017001300824E1413D
S31520250870521EF7D1F0BC002070474B0072B60E48A9
S315202508800E49886000220023002400250026002703
S31520250890B846B946BA46BB46BC46094885460948A0
S315202508A08047094880470948804762B600200021AD
S315202508B0074A9047FEE700000000252000ED00E0CE
S315202508C0E0D527206D6B2620458D2520358E2520A4
S315202508D0190E262001000000CB4A25200000000005
S315202508E002000000114B2520000000000B0000000F
S315202508F08D4A2520000000000C0000008D4B252068
S315202509000000000004000000F14B2520C54C2520C1
S31520250910070000005B4B2520000000000900000091
S31520250920554F2520000000000A000000C54F252030
S315202509300000000003000000294C25201D4E2520FF
S31520250940050000003B4F2520000000000800000080
S315202509502F4B2520C54C252011000000A94B2520ED
S31520250960000000000000000000000000000000003C
S3152025097000000000B71DC1046E3B8209D926430D10
S31520250980DC7604136B6BC517B24D861A0550471EA8
S31520250990B8ED08260FF0C922D6D68A2F61CB4B2B48
S315202509A0649B0C35D386CD310AA08E3CBDBD4F38F0
S315202509B070DB114CC7C6D0481EE09345A9FD524190
S315202509C0ACAD155F1BB0D45BC2969756758B565228
S315202509D0C836196A7F2BD86EA60D9B6311105A67C8
S315202509E014401D79A35DDC7D7A7B9F70CD665E7470
S315202509F0E0B6239857ABE29C8E8DA19139906095D0
S31520250A003CC0278B8BDDE68F52FBA582E5E66486E7
S31520250A10585B2BBEEF46EABA3660A9B7817D68B307
S31520250A20842D2FAD3330EEA9EA16ADA45D0B6CA02F
S31520250A30906D32D42770F3D0FE56B0DD494B71D94F
S31520250A404C1B36C7FB06F7C32220B4CE953D75CA67
S31520250A5028803AF29F9DFBF646BBB8FBF1A679FF87
S31520250A60F4F63EE143EBFFE59ACDBCE82DD07DECAF
S31520250A7077708634C06D4730194B043DAE56C5393F
S31520250A80AB0682271C1B4323C53D002E7220C12A77
S31520250A90CF9D8E1278804F16A1A60C1B16BBCD1F77
S31520250AA013EB8A01A4F64B057DD00808CACDC90CBF
S31520250AB007AB9778B0B6567C69901571DE8DD475BF
S31520250AC0DBDD936B6CC0526FB5E6116202FBD066F7
S31520250AD0BF469F5E085B5E5AD17D1D576660DC53F7
S31520250AE063309B4DD42D5A490D0B1944BA16D8403F
S31520250AF097C6A5AC20DB64A8F9FD27A54EE0E6A17F
S31520250B004BB0A1BFFCAD60BB258B23B69296E2B236
S31520250B102F2BAD8A98366C8E41102F83F60DEE87B6
S31520250B20F35DA9994440689D9D662B902A7BEA947E
S31520250B30E71DB4E0500075E4892636E93E3BF7EDFE
S31520250B403B6BB0F38C7671F7555032FAE24DF3FEB6
S31520250B505FF0BCC6E8ED7DC231CB3ECF86D6FFCB36
S31520250B608386B8D5349B79D1EDBD3ADC5AA0FBD8FE
S31520250B70EEE00C6959FDCD6D80DB8E6037C64F645E
S31520250B803296087A858BC97E5CAD8A73EBB04B7716
S31520250B90560D044FE110C54B383686468F2B4742D6
S31520250BA08A7B005C3D66C158E4408255535D43519E
S31520250BB09E3B1D252926DC21F0009F2C471D5E28DE
S31520250BC0424D1936F550D8322C769B3F9B6B5A3B96
S31520250BD026D6150391CBD40748ED970AFFF0560E56
S31520250BE0FAA011104DBDD014949B93192386521D1E
S31520250BF00E562FF1B94BEEF5606DADF8D7706CFC1E
S31520250C00D2202BE2653DEAE6BC1BA9EB0B0668EF55
S31520250C10B6BB27D701A6E6D3D880A5DE6F9D64DA95
S31520250C206ACD23C4DDD0E2C004F6A1CDB3EB60C9DD
S31520250C307E8D3EBDC990FFB910B6BCB4A7AB7DB09D
S31520250C40A2FB3AAE15E6FBAACCC0B8A77BDD79A3D5
S31520250C50C660369B717DF79FA85BB4921F46759615
S31520250C601A163288AD0BF38C742DB081C33071855D
S31520250C7099908A5D2E8D4B59F7AB085440B6C950AD
S31520250C8045E68E4EF2FB4F4A2BDD0C479CC0CD43C5
S31520250C90217D827B9660437F4F460072F85BC17625
S31520250CA0FD0B86684A16476C93300461242DC5654D
S31520250CB0E94B9B115E565A1587701918306DD81C2D
S31520250CC0353D9F0282205E065B061D0BEC1BDC0F45
S31520250CD051A69337E6BB52333F9D113E8880D03AA5
S31520250CE08DD097243ACD5620E3EB152D54F6D429CD
S31520250CF07926A9C5CE3B68C1171D2BCCA000EAC8ED
S31520250D00A550ADD6124D6CD2CB6B2FDF7C76EEDB84
S31520250D10C1CBA1E376D660E7AFF023EA18EDE2EE64
S31520250D201DBDA5F0AAA064F4738627F9C49BE6FD0C
S31520250D3009FDB889BEE0798D67C63A80D0DBFB846C
S31520250D40D58BBC9A62967D9EBBB03E930CADFF9704
S31520250D50B110B0AF060D71ABDF2B32A66836F3A2E4
S31520250D606D66B4BCDA7B75B8035D36B5B440F7B18C
S31520250D7009000000F951252001010000DD5F25200D
S31520250D8000010000356D2520200100005B7F2520F0
S31520250D9021010000B3782520000000000000000076
S31520250DA0000007100608050807060604070405049B
S31520250DB0040406020000020D0208020602050204AA
S31520250DC002030203020302020000070806040504A3
S31520250DD00703060207020502040206010000020691
S31520250DE00204020302030202020202020202020195
S31520250DF012062E006F0100006509000070013701DB
S31520250E006D0138016E012E0271012F01720130010B
S31520250E1073013101740132016C0133016B013401F7
S31520250E206A01350169013601670800006609000057
S31520250E306D01380100000000680800006C013301AF
S31520250E406B0134016A013501690136010000000074
S31520250E500000000000000000000000000C0000003B
S31520250E600C0000000C0000000800000051030000C3
S31520250E7000000000520337004F03380050032E018F
S31520250E8053032F00540330005503310056033200F7
S31520250E904E0333004D0334004C0335004B033600F7
S31520250EA000000000000000000000000000000000F7
S31520250EB000000000000000000000000000000000E7
S31520250EC000000000000000000000000000000000D7
S31520250ED000000000030000000300000003000000BE
S31520250EE007000000350400000000000034043D0002
S31520250EF033040000360400003704390038043A004C
S31520250F0039043B003A043C003B0400003C04000025
S31520250F103D0400003E0400003204000000000000CD
S31520250F2033040000000000003104000030040000D6
S31520250F302F0400002E0400002D0400002C040000A0
S31520250F402B0400002A040000290400000C000000C0
S31520250F500C0000000C0000000800000063060000BD
S31520250F600000000064063D0100000000000000008E
S31520250F706506390166063A0167063B0168063C0186
S31520250F800000000000000000000000000000000016
S31520250F900000000000000000000000000000000006
S31520250FA000000000000000000000000000000000F6
S31520250FB000000000000000000000000000000000E6
S31520250FC0000000000C0000000C0000000C000000B2
S31520250FD0080000000000000000C00C4000000D4065
S31520250FE00F04C004012400000000000000000000BA
S31520250FF000000000000000300000006000112233B0
S31520251000445566778899AABBCCDDEEFF5A04180885
S315202510100830FF2400000000000000005A051809AA
S315202510200831FF2500000000000000005A06180A96
S315202510300832FF2600000000000000000000000006
S315202510400000000000000000000000009F0403248B
S315202510500000000000000000000000009F07600738
S31520251060200B042700000000000000009F876087D2
S31520251070208B04A7000000000000000006000000C9
S3152025108006000000060000000600000008000000FB
S315202510900A0000000E0000001000000012000000CB
S315202510A014000000070000000700000007000000CC
S315202510B007000000060000000500000004000000CF
S315202510C003000000020000000100000000000000CF
S315202510D05A0418080830FF240000000000000000EC
S315202510E05A07208BFFA70000000000000000000003
S315202510F00400000004000000050000000600000092
S3152025110007000000090000000B0000000D0000006C
S315202511101000000010000000080000000800000054
S3152025112008000000080000000A0000000C0000004E
S315202511300E00000010000000120000001400000020
S315202511400000000000000000000000000000000054
S31520251150010000000200000003000000040000003A
S315202511600500000006000000070000005A041808A4
S315202511700830FF2400000000000000005A06180A47
S31520251180FF26000000000000000000005A07180B6B
S31520251190FF27000000000000000000005A06188ADC
S315202511A0FFA6000000000000000000005A07208B43
S315202511B0FFA7000000000000000000000304180817
S315202511C0042400000000000000000000130420086D
S315202511D0042400000000000000000000000000009C
S315202511E0A35225208554252000000000AD54252016
S315202511F0655525205D562520EF5625200000000023
S31520251200004000420080004200C00042000001420A
S31520251210004001420080014200C0124000001340D8
S31520251220004013400080134000C0134000001440A6
S3152025123000C0C5400000C6400040C6400080C640CC
S3152025124000C0C6400000C7400000CA40FF333333E4
S31520251250333300000000000000C00740000008408E
S31520251260004008400080084000C008400000094092
S31520251270004009400080094000C0094000000A407E
S315202512800040C2400080C240FF565758595A5B5CE1
S315202512905D000000A086010040420F008096980040
S315202512A000E1F505000000000A0000000C00000002
S315202512B00D0000000F000000140000001A00000099
S315202512C01E00000023000000280000002D0000003D
S315202512D034000000370000003C00000046000000D6
S315202512E05000000000000000000000000000000063
S315202512F0004040400080404000C040400000C4409F
S31520251300FF7B7C7D0000904100009841000198419B
S3152025131005080040400000000000000000804140F4
S3152025132000C0414080FF850086000000FF757600BD
S315202513300001000100004001C0000000800180005E
S315202513400000C00140000000000200000000C0008F
S31520251350400100008000800100004000C0010000FF
S315202513600000000200000001C0004000400180006E
S315202513704000800140004000C00100004000C00020
S3152025138000014000800040014000400080014000CF
S315202513900000C0014000C000C00080000001800080
S315202513A080004801400080008001000080008000E8
S315202513B0000180004000400180000000800180005F
S315202513C0C0008000C00000014000C0004001000090
S315202513D0C0008000C000C00040000001C000000001
S315202513E04001C000800080000001C00040000001AF
S315202513F00001000000014000C0000001000000019E
S315202514000001800040004001C0000000400140004E
S31520251410800040010000C0004001400040008001BE
S31520251420800000008001000080008001400000002F
S31520251430C00100004000C00100000000000200009D
S31520251440C558262049592620635926200000000004
S3152025145000000000955926204B8B252029872520FD
S315202514609B872520EB8725203D8925208D892520AD
S31520251470A5892520A388252013742520797625203E
S315202514800B7725200F78252087742520E977252099
S31520251490FD7725206D78252000555603590C0F5AA2
S315202514A05A0F0C5903565500653033663C696A3FF9
S315202514B03F6A693C66333065663330653F6A693CE9
S315202514C03C696A3F65303366035655005A0F0C59D9
S315202514D0590C0F5A00555603693C3F6A30656633C9
S315202514E0336665306A3F3C690C595A0F55000356B9
S315202514F0560300550F5A590C0F5A590C56030055A9
S31520251500550003560C595A0F6A3F3C693366653098
S3152025151030656633693C3F6A6A3F3C693366653088
S3152025152030656633693C3F6A0F5A590C5603005578
S31520251530550003560C595A0F0C595A0F5500035668
S31520251540560300550F5A590C693C3F6A3065663358
S31520251550336665306A3F3C69035655005A0F0C5948
S31520251560590C0F5A00555603663330653F6A693C38
S315202515703C696A3F65303366653033663C696A3F28
S315202515803F6A693C6633306500555603590C0F5A18
S315202515905A0F0C5903565500E9882620F58826200A
S315202515A000000000078926201B8926200000000030
S315202515B000000000000000000100000001000000DE
S315202515C0471D25204014252050142520A4182520E4
S315202515D00002000001000000D91E252044162520E2
S315202515E054162520A41825201000000000000000F0
S315202515F0000000005C192520000000006C1925201C
S315202516000001000000000000C71D25207C1625208E
S31520251610000000008C162520000000000000000098
S31520251620000000000000000000000000000000006F
S31520251630D5592620F3592620C75A2620CB5B262086
S31520251640F82E2720815D2620DD5D2620C95E2620D1
S315202516500000000000000000F35E26207F7B252069
S315202516603B7D2520CD7D2520CF7E2520DB7B252076
S31520251670A97E2520BD7E2520177F2520715F262042
S31520251680AF5F262003602620000000003D6026202F
S3152025169041602620B56026202F61262041612620FF
S315202516A0796126200000000021020C00222A010053
S315202516B00000000000000000000300080080FF0055
S315202516C0000000FFFFFF00000000000000000000D2
S315202516D00000000000000000FF0000005401272024
S315202516E011000000A8162520310000000302010064
S315202516F0070605040B0A09080F0E0D0C13121110E7
S31520251700171615141B1A19181F1E1D1C23222120D6
S31520251710272625242B2A29282F2E2D2C33323130C6
S31520251720373635343B3A39383F3E3D3C43424140B6
S31520251730474645444B4A49484F4E4D4C53525150A6
S31520251740575655545B5A59585F5E5D5C6362616096
S31520251750676665646B6A69686F6E6D6C7372717086
S31520251760777675747B7A79787F7E7D7C010000007B
S315202517700000FE1F000002200000220000000000BD
S3152025178000000400000020000000000000000000EA
S3152025179000000000000000000000000000000000FE
S315202517A000000000000000000000000000000000EE
S315202517B000000000000000000000000408040800C6
S315202517C00121062121210000020402040001100323
S315202517D021102100000204020200011003211021FC
S315202517E00000010301020001100321102100000140
S315202517F0020101000110032110210000010201012F
S315202518000001100321102100000000000000000027
S31520251810000000004D4943524F4E202020202020F5
S315202518205350414E53494F4E2020202053414D534E
S31520251830554E47202020202057494E424F4E4420A2
S315202518402020202048594E4958202020202020205D
S31520251850544F534849424120202020204D41435270
S315202518604F4E49582020202000000000000000006F
S3152025187000000000EF01000000000000EF900000AE
S3152025188000000000C56625209D6925207F6A252024
S31520251890DD6B252057672520F36C2520076D252010
S315202518A000000000A7662620B36626205767262037
S315202518B0D1672620AB662620E16726208566262049
S315202518C0000201500000AAEA43582520215B252045
S315202518D0695C2520D15E25201D5A2520895E252057
S315202518E09D5E25200000000029512620DF51262037
S315202518F000000000DF5126200000000095522620FA
S315202519000D532620000000000F5426204D54262056
S31520251910AD542620FB5426203F552620EB44262051
S3152025192041452620B5412620010000000000000063
S315202519300000000000000000000000008D7B26200E
S315202519403D7C2620B97C2620CB7C2620D77C2620AC
S315202519506F7E26200000434000C04240F580262089
S31520251960758226206F832620A1832620B1832620D3
S31520251970D5832620758426201D8526203385262059
S31520251980378526200000000010B50400002049498F
S31520251990086000200021484AC2E90001474AC2E9D9
S315202519A00001474AC2E90001002046490860464809
S315202519B000F0F5F8454AC2E900010FF26901200039
S315202519C000F02EFB10BD80B500F03FFB01BD10B504
S315202519D00C0038490968072922D13A4909688842DD
S315202519E01ED101F062F803000F2043433248D0E987
S315202519F0000102003148D0E900018218B3FBF2F13B
S31520251A000A2041434FF49660B1FBF0F0401D0A2190
S31520251A10B0FBF1F14FF4966041432160002000E0B0
S31520251A20012010BD2DE9F843060000F0A7F8040093
S31520251A300D00204A1068401C1060214FD7E900016F
S31520251A40201A75EB0101214BD3E90089894504D854
S31520251A5001D3804501D2012010603000116801296B
S31520251A6006D004290AD0052911D0072913D01CE030
S31520251A701149C1E900451349086016E00E48D0E909
S31520251A800023A21A75EB0303C0E900230DE00B48BA
S31520251A90C0E9004509E00949D1E90023A21A75EBD9
S31520251AA00303C1E9002300F0D0FAC7E90045BDE8C4
S31520251AB0F1830000281C2720001C2720081C27200E
S31520251AC0101C27202C1C272080380100181C272095
S31520251AD0C9B2032905D101214B4A40B240011150F3
S31520251AE004E00021484A40B240011150704780B594
S31520251AF0032140B2FFF7ECFF01BD10B53E20FFF7CD
S31520251B00F6FF0020414908605FF0FF304049086014
S31520251B10404900220A6001223F4B1A600A6852F08A
S31520251B2004020A600A6852F001020A603B490860ED
S31520251B3001203B49086001203A4908603A4C00F0CB
S31520251B40B4FF3A49B0FBF1F020602068002801D186
S31520251B500120206010BD032008E030490022030122
S31520251B600B449A6000220301CA50401E0028F4D552
S31520251B702648016851F002010160704782B02C4841
S31520251B80026800232B480068009013000022009845
S31520251B90002110431943C043C94302B07047224947
S31520251BA00968A1FB0001704770B50600FFF7E6FF1F
S31520251BB004000D001C480068E0FB0645FFF7DEFF04
S31520251BC0A942FBD301D8A042F8D370BD38B5FFF77B
S31520251BD0E6FF04000D00FFF7D1FF00196941164ADB
S31520251BE0C2E9000131BD80B5FFF7C8FF124AD2E907
S31520251BF00023994204D301D8904201D3012000E045
S31520251C000020C0B202BD00000060CC4000800D40FF
S31520251C1010810D4018810D401C810D4000810D40FD
S31520251C200C810D4008810D40D027272040420F00EA
S31520251C30E0800D40E4800D40201C2720010009B2BC
S31520251C40002909D4012210F01F018A40DFF81C142F
S31520251C5000B2400941F820207047010009B2002929
S31520251C600DD4012210F01F018A40DFF8041400B29A
S31520251C70400941F82020BFF34F8FBFF36F8F704760
S31520251C80020012B2002A05D44901DFF8E82300B262
S31520251C90115408E04901DFF8E02300B210F00F00C7
S31520251CA0104400F8041C704710B4029C11F00F0153
S31520251CB0240114F0100421430160002A00D013606A
S31520251CC010BC70478069704781617047002101608B
S31520251CD0002A01D0002010600098002801D0019903
S31520251CE001607047FEB5089C099D0A9E002701972D
S31520251CF00094FFF7D9FF0C2020606868012111FA8E
S31520251D0006F630EA06066E60F7BD3EB5069C00252A
S31520251D1001950094FFF7C8FF0E20206037BD7CB5BE
S31520251D20069C079D002601960094FFF7BDFF25609A
S31520251D3073BD3EB5069C002501950094FFF7B4FF9B
S31520251D400E20206037BD3EB5C9B2002903D0022911
S31520251D5027D017D336E0DFF82443DFF82453022093
S31520251D60019000950023002200212000FFF7AEFFD9
S31520251D700220019000950023002200212000FFF754
S31520251D80A5FF1FE018200290DFF8F8020190DFF862
S31520251D90F8020090002300220521BC48FFF7A2FF68
S31520251DA010E0B94800900023B94A0021B748FFF72B
S31520251DB0ACFFB3480090002300220021AF48FFF74F
S31520251DC0A4FFFFE737BD1CB5002840F08480C9B2A3
S31520251DD0002902D002293DD07CE008200190AD487B
S31520251DE000900023AC4A0421AC48FFF76FFF08205A
S31520251DF00190AB4800900023AA4A0421AA48FFF760
S31520251E0065FF08200190A94800900023A84A0421AF
S31520251E10A848FFF75BFF08200190A74800900023DC
S31520251E20A64A0421A648FFF751FF08200190A54878
S31520251E3000900023A44A0421A448FFF747FF082041
S31520251E400190A34800900023A24A0421A248FFF727
S31520251E503DFF3FE0A148006801908E480090002371
S31520251E608D4A04218D48FFF75AFF9D480068019029
S31520251E708B48009000238B4A04218B48FFF74FFF80
S31520251E80984C20680190894800900023884A04218F
S31520251E908848FFF744FF2068019087480090002353
S31520251EA0864A04218648FFF73AFF2068019085480F
S31520251EB000900023844A04218448FFF730FF2068B8
S31520251EC00190834800900023824A04218248FFF707
S31520251ED026FFFFE7FFE713BDE0B5C9B2002903D0EA
S31520251EE0022969D047D388E0062001907E480090B4
S31520251EF000237E4A00217E48FFF7E8FE0E2001902A
S31520251F007C48009000237C4A00217C48FFF7DEFE92
S31520251F10062001907A48009000237A4A00217A48A3
S31520251F20FFF7D4FE06200190784800900023784AB2
S31520251F3000217848FFF7CAFE0620019076480090B2
S31520251F400023764A00217648FFF7C0FE0620019019
S31520251F50744800900023744A00217448FFF7B6FE82
S31520251F6006200190724800900023724A002172486B
S31520251F70FFF7ACFE41E05C48009000235B4A002138
S31520251F805B48FFF7D6FE5B48009000235A4A00217E
S31520251F905A48FFF7CEFE5A4800900023594A002179
S31520251FA05948FFF7C6FE594800900023584A002174
S31520251FB05848FFF7BEFE20E04E48009000234E4AA3
S31520251FC000214E48FFF7B5FE4D48009000234D4A87
S31520251FD000214D48FFF7ADFE4C48009000234C4A82
S31520251FE000214C48FFF7A5FE4B48009000234B4A7D
S31520251FF000214B48FFF79DFEFFE707BD38B55FF06B
S315202520008074204D2800FFF75DFE204207D0012051
S315202520104A494968884721002800FFF755FE31BDE2
S3152025202080B54648416004221821164800F035FE21
S315202520304348016851F08071016001216920FFF72D
S315202520401FFE6920FFF7FAFD01BD80B500203B491B
S3152025205048606920FFF701FE00216920FFF710FE61
S3152025206000221821074800F018FE01BD00E100E0F6
S3152025207080E100E000E400E018ED00E06C810E40F0
S31520252080B0830E4000401340B4830E4070810E402D
S315202520901C860E40E0830E4088860E409C810E408D
S315202520A0E4830E4084860E40A0810E40E8830E40B0
S315202520B08C860E40A4810E40EC830E4090860E40E1
S315202520C0A8810E40F0830E4094860E40AC810E40AA
S315202520D0F4830E4098860E40B0810E403801272085
S315202520E03C0127204001272094830E406C860E40F4
S315202520F050810E4098830E4078860E4054810E409E
S315202521009C830E4070860E4058810E40A0830E403B
S3152025211074860E405C810E40A4830E4000800E40BE
S3152025212060810E40A8830E407C860E4064810E4039
S31520252130AC830E4080860E4068810E40F02E2720E7
S31520252140144013400818401EB0FBF1F0704710B517
S31520252150DFF868090268C2F3402010F00100C2F3B7
S31520252160002111F0010102F0FF02002814D0DFF82A
S31520252170504920202060120652EA8122DFF84409A0
S315202521800260206850F480702060012000F0B6F8A7
S31520252190206830F48070206010BD81B0002000902A
S315202521A0DFF824090068C0F34050002833D0009872
S315202521B000281AD1DFF81409142101600168490085
S315202521C0FCD5DFF80C09016851F480710160DFF830
S315202521D004190A6852F004020A60DFF8FC18096817
S315202521E0016811F48071016015E00098012812D14B
S315202521F0DFF8DC08016851F480710160DFF8D41816
S315202522000A6852F004020A60DFF8CC1809680168CA
S3152025221011F48071016001B0704710B5DFF8BC4814
S31520252220216851F00801DFF8B80801402160BFF385
S315202522306F8F20680A2161F34C2050F400202060FE
S31520252240BFF36F8FC82000F059F8206850F0200082
S315202522502060BFF36F8F642000F050F8206850F07F
S3152025226004002060BFF36F8F10BD10B5DFF87448CA
S31520252270216851F00401DFF8700801402160BFF381
S315202522806F8F206850F001002060BFF36F8F4FF4C9
S31520252290967000F033F8206850F400302060BFF3A4
S315202522A06F8F4FF4C87000F029F8206850F48020ED
S315202522B02060BFF36F8F322000F020F8206830F0A1
S315202522C004002060BFF36F8F10BD80B5FFF7A5FFF3
S315202522D0FFF7CBFF01BDDFF81408DFF814180968CE
S315202522E0C1F34011002906D1DFF808180968C1F382
S315202522F08001002901D0DFF80008704700281AD070
S31520252300DFF8F8170968DFF8F827B1FBF2F100FBAB
S3152025231001F0DFF8F0170860DFF8EC0700210160EF
S31520252320DFF8E81705220A600A68D203FCD50022C1
S315202523300A6000210160704780B5DFF8D40701685F
S31520252340490849000160DFF8CC07016851F00101F1
S315202523500160FFF7FCFE01BD38B50021DFF88C179B
S31520252360884222D1742505F0FF0545F0804555F490
S315202523700055DFF8A4472560BFF34F8FBFF36F8F36
S315202523801E20FFF7BBFF0021DFF870070068DFF866
S315202523907027B0FBF2F21E204243206880000CD421
S315202523A0491C8A42F9D205200EE0DFF84C178842CF
S315202523B001D19125D7E7042006E055F480452560EF
S315202523C035F080452560002032BD70B50021DFF827
S315202523D01C17884207D10324DFF840572868800038
S315202523E009D5002041E0DFF81017884201D10524C0
S315202523F0F2E7042039E05FF03F30DFF824673168C3
S315202524000843306014F0070444F0804454F0100447
S315202524102C601E20FFF772FF44F4001454F4006448
S315202524202C601E20FFF76AFF34F400642C600021FF
S31520252430DFF8C8060068DFF8C826B0FBF2F21E20B2
S3152025244042432868800004D4491C8A42F9D20520B3
S315202524500BE044F4005454F008042C6034F08044F6
S315202524602C60DFF8C0063060002070BD70B50021D5
S3152025247000215FF0FF32DFF87416884236D100201E
S3152025248016215FF08033DFF8A04625682B4323608D
S31520252490DFF898361A60DFF898261060DFF894065C
S315202524A00160DFF89466DFF894562E601E20FFF72C
S315202524B025FF46F4000656F400662E60FA20FFF71F
S315202524C01DFF36F400662E600021DFF830060068F1
S315202524D0DFF82C26B0FBF2F2FA204243286880004A
S315202524E00ED4491C8A42F9D205201BE0DFF80816AE
S315202524F0884203D15FF000401B21C2E7042011E06A
S3152025250056F400562E6036F080462E60DFF83006CB
S31520252510206040F20140DFF82C160860DFF82816E7
S315202525200860002070BD38B504000120DFF89C0521
S3152025253014210160002101684900FCD5FFF7CBFE57
S315202525400500E4B2002C0BD0DFF8CC05006880000E
S3152025255001D5002018E02800FFF7FEFE002813D11C
S31520252560DFF8B8050068800001D500200CE000F0D2
S315202525708BF92800FFF729FF002805D12800FFF72A
S3152025258075FF002800D1002032BDDFF868050068D8
S31520252590C0F3C000002801D03C2000E0AA207047C7
S315202525A02DE9F8430121DFF84C251268C2F30114E1
S315202525B011FA04F4092C00D30124C0B2002840F0D6
S315202525C0DD80FFF7B9FEFFF7E8FDFFF7DEFFAA2836
S315202525D063D1DFF87855DFF878152800FFF7B2FDA7
S315202525E006006643DFF86C152800FFF7ABFD0700CC
S315202525F06743DFF864152800FFF7A4FD804604FB12
S3152025260008F8DFF858152800FFF79CFD04FB00F491
S31520252610DFF84C152800FFF795FD411E11F00F0117
S31520252620401E000410F47F000843DFF838150860A3
S31520252630DFF8340500680028FAD4701E00F0FF0064
S3152025264050F40070DFF8241508607F1E07F0FF0779
S3152025265057F40077DFF818050760B8F1010808F068
S31520252660FF0858F40078DFF80C05C0F80080641EB2
S3152025267004F0FF0454F40074DFF8FC040460002001
S31520252680FFF751FF40F20470DFF8F0140860B5FB20
S31520252690F6F0DFF8681408606AE03C2868D1DFF890
S315202526A0E054DFF8AC142800FFF74CFD06006643FE
S315202526B0DFF8A014DFF89404FFF744FD07006743ED
S315202526C0DFF89414DFF8BC04FFF73CFD804604FBB5
S315202526D008F8DFF88814DFF8B004FFF733FD8146C4
S315202526E004FB09F9DFF878142800FFF72BFD04FBF6
S315202526F000F4601E10F00F00641E240414F47F04D9
S315202527000443DFF860040460DFF85C0400680028D1
S31520252710FAD40120FFF707FF761E06F0FF0656F4AA
S315202527208066DFF8480406607F1E07F0FF0757F40A
S315202527300077DFF83C040760B8F1010808F0FF08A8
S3152025274058F48068DFF82C04C0F80080B9F1010917
S3152025275009F0FF0959F48069DFF81C04C0F80090B8
S3152025276040F20470DFF814140860DFF89003056042
S3152025277000F07FFE042100F052FDFFE7BDE8F1833E
S315202527802DE9F8430121DFF86C231268C2F30114E1
S3152025279011FA04F4092C00D30124C0B2002871D1E2
S315202527A0FFF7CAFDFFF7F9FCFFF78FFDDFF89C53EE
S315202527B0DFF89C132800FFF7C5FC06006643DFF8E3
S315202527C094132800FFF7BEFC07006743DFF888131C
S315202527D02800FFF7B7FC804604FB08F8DFF87C13B2
S315202527E02800FFF7AFFC814604FB09F9DFF87013B3
S315202527F02800FFF7A7FC04FB00F4601E10F00F004D
S31520252800641E240414F47F040443DFF8580304606B
S31520252810DFF8540300680028FAD4701E00F0FF0064
S3152025282050F40070DFF8441308607F1E07F0FF0779
S3152025283057F40077DFF838030760B8F1010808F068
S31520252840FF0858F40078DFF82C03C0F80080B9F18A
S31520252850010909F0FF0959F40079DFF81C03C0F8AE
S3152025286000900020FFF75FFE40F20470C349086000
S31520252870B5FBF6F0A149086000F0FBFD042100F028
S31520252880CEFCFFE7BDE8F18338B5C04C002020609B
S3152025289040F20510BE490860BE4D286890F4803068
S315202528A028606420FFF72AFD5FF4803020602868A1
S315202528B090F4803028604FF48070B7490860012055
S315202528C0FFF71CFDB548016851F01001016031BDA7
S315202528D010B504002000C0B2002802D183488749BC
S315202528E0086000F059FF002804D02000C0B2FFF769
S315202528F047FF03E02000C0B2FFF752FE00F0A1F803
S3152025290010BD70B55FF00040A5490860A54C20682C
S3152025291030F080402060206850F4404020602068B8
S3152025292050F4C0102060A04D286850F4001028606F
S315202529302E6836F0E076FFF7CEFC6C49884202D128
S3152025294056F4400601E056F0A0762E60286850F40D
S31520252950405028606420FFF727F9286850F040006A
S3152025296028605FF4803091490860206830F08040E7
S31520252970206000208E490860012070BDC0B2002845
S315202529800CD0012812D0022818D004281ED00528BC
S3152025299024D006282AD0072830D037E00520102134
S315202529A0844A0B00DBB2B2FBF3F236E006200F2178
S315202529B0814A0B00DBB2B2FBF3F22EE006200C2176
S315202529C07D4A0B00DBB2B2FBF3F226E0052005217A
S315202529D0784A0B00DBB2B2FBF3F21EE00720052175
S315202529E0764A0B00DBB2B2FBF3F216E00720042170
S315202529F0724A0B00DBB2B2FBF3F20EE0062003216E
S31520252A006D4A0B00DBB2B2FBF3F206E00520082166
S31520252A10684A0B00DBB2B2FBF3F2C9B2491E01F0BC
S31520252A20FF01C0B2000210F4E06008436449086043
S31520252A307047012063490860704700206149086076
S31520252A40704702200421C9B2491E01F0FF01C0B2F8
S31520252A50000210F4E06008435B490860704745484A
S31520252A60016801F0FF00C1F302220021012A0BD0C3
S31520252A7008D3032A0CD009D3052A0DD00AD3072A31
S31520252A800ED00BD319490CE018490AE02F4908E046
S31520252A904E4906E03B4904E04D4902E0454900E020
S31520252AA04C49401CB1FBF0F0704780B5FFF7D7FFA6
S31520252AB002BD494870474648704700001041C84026
S31520252AC02049C8403049C84010CACA402040C8407D
S31520252AD0C040C8400040C840F040C8401045C840C6
S31520252AE0DAFFF7FF3045C840FEFFF9FF00366E01B5
S31520252AF030C9CA40A0C9CA4000F824018001272030
S31520252B0040420F0014E000E018E000E010E000E06D
S31520252B105040C8406040C8400042C8401042C84086
S31520252B203042C8400D1120187042C840A042C840E6
S31520252B308042C8409042C840080000404042C840D4
S31520252B401B101820001DCC40801DCC400084D71793
S31520252B500027B929001C4E0E80F5E409000E27070B
S31520252B60C0496E0A0040CC402040CC400000CC40D5
S31520252B708000CC400001CC408001CC40800CCC404C
S31520252B80001E7C2900389C1C002A75152048C84023
S31520252B903048C8400045C8408045C8407045C84093
S31520252BA03840434030404340A0404340A84043401E
S31520252BB00040434000A4781F80B8672300D693277A
S31520252BC00002CC402064CC400020CC400024F400D8
S31520252BD000C2EB0B40DCB31100879303C9B203294E
S31520252BE005D10121224A40B24001115004E000219D
S31520252BF01F4A40B240011150704780B5032140B28B
S31520252C00FFF7ECFF01BD0100002000E0401C132842
S31520252C1004D2184A52F820208A42F7D17047F8B5AF
S31520252C2004000D0016002000FFF7EDFF1249085677
S31520252C30FFF7E3FF0127616917FA05F081436161F3
S31520252C403078002805D16068AF4030EA07076760ED
S31520252C5008E072782900200000F010F86068AF405F
S31520252C6007436760B2782900200000F016F8F1BDE9
S31520252C700060CC40001225204C122520D2B2002AF5
S31520252C8005D1012212FA01F1C0F8881004E00122AB
S31520252C9012FA01F1C0F88410704770B40C00012592
S31520252CA0C66915FA01F39E43C661102902D210F191
S31520252CB00C0302E010F11003103CD2B2012A07D0F2
S31520252CC037D3032A19D00BD3052A2CD023D330E08A
S31520252CD019680322E4B2600082409143196028E0F6
S31520252CE0196803222000C0B2400082409143E4B2F5
S31520252CF0600085400D431D601BE0196803222000D6
S31520252D00C0B24000824091430222E4B26000824054
S31520252D10114319600DE019680322E4B26000824050
S31520252D201143196005E0C26915FA01F11143C16104
S31520252D30FFE770BC70475AA738B515000022002436
S31520252D40002D03D00B00DBB2042B01DB04205EE033
S31520252D50012803D0022801D0042058E0C9B2002931
S31520252D6002D0022905D04DE0002000F03CFE0200CD
S31520252D7049E0002300230023012802D1DFF800376C
S31520252D8003E0022801D1DFF8FC361868C0F30220BB
S31520252D901B6803F0FF035B1C00280BD0022819D0E3
S31520252DA00BD304281CD018D306281FD01BD30728BD
S31520252DB01FD021E0DFF8D0161FE0DFF8D006006807
S31520252DC0C0F38000002802D0DFF8C41601E0DFF822
S31520252DD0B81612E0DFF8BC160FE0DFF8BC160CE0BB
S31520252DE0DFF8B81609E0DFF8B81606E0DFF8B416DE
S31520252DF003E0DFF8B41600E00324002C03D1B1FB51
S31520252E00F3F200E00424002C00D12A60200032BDF4
S31520252E102DE9F843012802D0022840F0D08100224E
S31520252E20022800D102220C00206CC00500D5521C98
S31520252E30DFF880167820424301EB0205206E002814
S31520252E4002D0D4F8609001E0D5F86890E06E00288D
S31520252E5001D0E66E00E06E6F606E002801D0676EA9
S31520252E6000E0EF6EA06E002802D0D4F8688001E03D
S31520252E70D5F87080206D002803D1606D002800F0DC
S31520252E80C180206D00280AD06878DFF820162A7898
S31520252E9041F82200DFF81806297840F82190606D40
S31520252EA000280DD0287900280AD06879DFF8FC1566
S31520252EB02A7941F82200DFF8F805297940F821906A
S31520252EC0287A00280CD0687A50F01000DFF8DC1517
S31520252ED02A7A41F82200DFF8D805297A40F8217088
S31520252EE0002119E005EB810010F114025078DFF856
S31520252EF0BC3592F800C043F82C00DFF8B4051378CA
S31520252F0040F823809078002805D0D078DFF8A8359A
S31520252F10927843F82200491C0429E3D394F84500E6
S31520252F20082821D195F8240000281DD0042119E050
S31520252F3005EB810010F114025078DFF8703592F8F0
S31520252F4000C043F82C00DFF86805137840F8238065
S31520252F509078002805D0D078DFF85C35927843F82C
S31520252F602200491C0829E3D3207B032802D0207B75
S31520252F70012829D10020206C800508D5DFF83C05BD
S31520252F80E16E002901D0E66E03E0082601E015F161
S31520252F901000002818D00178002915D0417851F045
S31520252FA01001DFF80825037842F82310DFF80015ED
S31520252FB0027841F822608178002905D0C178DFF88A
S31520252FC0F824807842F82010200000F0EFFD002814
S31520252FD018D0287B002815D0687B50F01000DFF804
S31520252FE0CC142A7B41F82200DFF8C404297B40F83B
S31520252FF02170A87B002805D0E87BDFF8BC14AA7BA6
S3152025300041F82200A06D002803D1E06D002800F0AC
S31520253010D680A06D002811D095F8340000280DD033
S3152025302095F83500DFF8841495F8342041F82200E8
S31520253030DFF87C0495F8341040F82190E06D0028BF
S3152025304011D095F8380000280DD095F83900DFF8ED
S315202530505C1495F8382041F82200DFF8540495F8B9
S31520253060381040F8219095F83400002804D195F899
S315202530703800002800F0A38095F83C0000280FD0C2
S3152025308095F83D0050F01000DFF8201495F83C20E7
S3152025309041F82200DFF8180495F83C1040F82170F5
S315202530A0002119E005EB810010F148025078DFF860
S315202530B0FC3392F800C043F82C00DFF8F40313788C
S315202530C040F823809078002805D0D078DFF8E8339B
S315202530D0927843F82200491C0429E3D394F8450025
S315202530E0082821D195F8580000281DD0042119E05B
S315202530F005EB810010F148025078DFF8B03392F8BD
S3152025310000C043F82C00DFF8A803137840F8238065
S315202531109078002805D0D078DFF89C33927843F82C
S315202531202200491C0829E3D3207B032802D0207BB3
S3152025313001281FD195F8440000281BD095F8450075
S3152025314050F01000DFF8641395F8442041F822004A
S31520253150DFF85C0395F8441040F8216095F8460081
S31520253160002807D095F84700DFF84C1395F8462018
S3152025317041F82200200000F019FD00281FD095F8DF
S31520253180400000281BD095F8410050F01000DFF8AC
S315202531901C1395F8402041F82200DFF8140395F8F2
S315202531A0401040F8217095F84200002807D095F860
S315202531B04300DFF8041395F8422041F82200BDE8A4
S315202531C0F18338B504000D00002000F00CFCBC4925
S315202531D0B0FBF1F122002B00541E73F10005002BC4
S315202531E001D1002A08D00A009208521C1000421E3E
S315202531F00028EFD000BFF9E731BDB249086000208D
S315202532007047B049096801600020704704200029CD
S3152025321002D0AD4808600020704700207047FEB5D3
S3152025322004000420002C03D0032C01D2082900D326
S3152025323037E00026012C01D1914E02E0022C00D147
S31520253240904E376861F30A276846A04991E82C00F5
S3152025325080E82C003068874222D00025200000F007
S31520253260DBF800280CD0684650F82410096851F060
S31520253270020150F824000160200000F0BCF8012549
S315202532803760EDB2002D0BD0200000F0A3F868465C
S3152025329050F82410096831F0020150F82400016005
S315202532A00020FEBD2DE9F84398B005000C00160038
S315202532B0022E01D2002C00D189E0012D02D0022D2B
S315202532C040F085800027012D01D16D4F02E0022D8A
S315202532D000D16C4F3868C0F302280EA87C492822D5
S315202532E001F0C2FA04A87B49282201F0BDFA002064
S315202532F05FF001090021B8F1000F0ED0B8F1020FB9
S3152025330007D00ED3B8F1030F0FD001205FF00008A8
S315202533100EE001205FF001080AE05FF00109002197
S3152025332006E05FF00109012102E05FF00109032192
S31520253330C0B2002813D014210EA801FB08F2104490
S31520253340012E03D104A801FB08F840440A2C00D3FA
S31520253350012400EB440191F8019010F81410B9F1DD
S31520253360010909F0FF09090211F4E06151EA090969
S3152025337001A8594991E81C0080E81C00280000F086
S315202533804BF800280BD001A850F82510096851F0D4
S31520253390020150F825000160280000F02CF8386835
S315202533A0814501D0C7F80090280000F013F801A820
S315202533B050F82510096831F0020150F825000160E2
S315202533C0002000906A4602212800FFF7B5FC19B097
S315202533D0BDE8F0830021012801D1404902E00228D9
S315202533E000D13F49002905D001200860BFF34F8F22
S315202533F0BFF36F8F70470021012801D1374902E09D
S31520253400022800D13649002905D000200860BFF3BF
S315202534104F8FBFF36F8F7047020000210020012AAE
S3152025342001D12E4902E0022A00D12D49002905D0B5
S315202534300868002801D0012000E00020C0B270478E
S31520253440002915D0CA0012F0380252F00102026670
S31520253450CA0012F03802C266CA0012F0380252F0AB
S3152025346001024266C90011F0380151F00101816639
S3152025347070471C480068C0F3C020401C70470000D8
S31520253480000ACC40800ACC4000366E01A0C9CA402D
S3152025349000B0710B0084D7170024F400E04B9D273C
S315202534A000A4781F007B9A1700389C1C10800E409C
S315202534B054820E40F40D252098840E40F00D2520AB
S315202534C040420F001C40C04080F5E409D40F25203A
S315202534D0A00D2520C80D2520D40F25208063CC407E
S315202534E0A063CC400840C040BFF34F8FDFF8D813E8
S315202534F00A6812F4E062DFF8D40302430A60BFF3B8
S315202535004F8F00BFFDE7C9B2032906D10121DFF878
S31520253510C02340B24001115005E00021DFF8B02339
S3152025352040B240011150704780B5032140B2FFF7C4
S31520253530EAFF01BD80B5002140B2FFF7E4FF01BDBA
S3152025354030B40C220C2104240C230021DFF88453CB
S315202535502960DFF884130A600021DFF8805329606B
S31520253560DFF87C130A600021DFF878532960DFF81D
S3152025357078130A600021DFF874532960DFF8701369
S315202535800A600021DFF86C532960DFF86C130A6086
S315202535900021DFF868532960DFF864130A600021CB
S315202535A0DFF860532960DFF860130A600021DFF811
S315202535B05C532960DFF858130A60017A002906D062
S315202535C0017A01293BD190F82110102937D10021E4
S315202535D0DFF840532960DFF840130A600021DFF821
S315202535E03C532960DFF838130A600021DFF834536D
S315202535F02960DFF834130A600021DFF8305329606B
S31520253600DFF82C130A600021DFF828532960DFF81C
S3152025361028130A600021DFF824532960DFF82013B8
S315202536200A600021DFF81C532960DFF81C130A6085
S315202536300021DFF818532960DFF814130A600021CA
S31520253640DFF810231160DFF810130B600021DFF857
S315202536500C231160DFF808130B600021DFF8042303
S315202536601160DFF804130B600021DFF800231160B9
S31520253670DFF8FC120C600021DFF8F8221160DFF854
S31520253680F8120B6090F83000C0B2042807D100202C
S31520253690DFF8E8120860DFF8E802036006E000207C
S315202536A0DFF8E0120860DFF8E002036030BC7047DF
S315202536B000207047FF20DFF8D4120968090911F088
S315202536C00F0100290CD0891E01290BD9891E032912
S315202536D009D9091F032908D9091F032907D907E06D
S315202536E0012005E02020082002E0402000E00220DD
S315202536F0C0B27047A648C06800698C30A5490A68BB
S31520253700120405D00A6882820968090CC18204E060
S3152025371041F2A25181827321C18270479C48C0689B
S3152025372000699D49096881649C490968C164704777
S3152025373080B50020FFF7CCF800F03AF87320FFF784
S31520253740F3FE01BD80B57320FFF7F4FE01BD10B44D
S315202537509348010093490968C1F30311002901D033
S31520253760914817E091490B68914AC3F340031468A1
S3152025377014F002042343012B01D18E480AE009685F
S31520253780C1F34001126812F002021143002901D12A
S315202537908948FFE710BC704788480068C0F30B109E
S315202537A040F62441884201D1012000E000207047BF
S315202537B010B5C4B0684682494FF4887201F054F892
S315202537C080480068C0F305442D2C01D3FFF78CFED5
S315202537D0FFF7E2FF002819D07B497C4808607C4A00
S315202537E04A6048618A616A460620444302EB040002
S315202537F082884FF4806042435FF4C010754B8B62FC
S315202538008B6AC0181218521ECA622DE006226846F7
S3152025381002FB04F1084441884FF480604143684601
S3152025382002FB04F3C35A4FF480604343684654434E
S31520253830204482884FF480604243634800240460F4
S3152025384004680919491E41605FF0005141614169AB
S315202538505B185B1E83615FF4C0115E4B8362836AAE
S31520253860C9185218521EC26244B010BD10B4C1697F
S31520253870026A59480068C0F34030002821D000202C
S3152025388004E001EB00035B789B1C1818904202D2BA
S315202538900B5C202BF5D1431D934212D24F4A136838
S315202538A001EB0004A37013681B0A01EB0004E370E7
S315202538B013681B0C01EB000423711268120E0844B1
S315202538C0427110BC704700000CED00E00400FA059B
S315202538D00060CC4010800E4054820E4014800E404D
S315202538E058820E4018800E405C820E401C800E4069
S315202538F060820E4020800E4064820E4024800E4039
S3152025390068820E4028800E406C820E402C800E4008
S3152025391070820E4088800E40CC820E408C800E40D0
S31520253920D0820E4090800E40D4820E4094800E4048
S31520253930D8820E4098800E40DC820E409C800E4018
S31520253940E0820E40A0800E40E4820E40A4800E40E8
S31520253950E8820E405C800E40A0820E4060800E409C
S31520253960A4820E4068800E40AC820E40B0800E4068
S31520253970F4820E4058800E409C820E4054800E4084
S3152025398098820E40B4800E40F8820E400840C040F2
S3152025399010002720E0CACA4000C9CA4010C9CA401B
S315202539A0CC424140D0C8CA4033424148E0C8CA40EB
S315202539B060C9CA40F04241480042414800ED00E036
S315202539C03013252070CCCA40480027200000FE1F32
S315202539D0FFFF01200000202070C9CA4090CCCA4094
S315202539E04FF40040704710B5C0B200281ED00128DC
S315202539F034D0022834D0032834D0052834D00628BC
S31520253A0035D0072837D0082839D009283BD00A2889
S31520253A103DD00B283FD00D2841D00E2843D00F2846
S31520253A2045D0102847D0112849D04CE0FFF7B4FEC1
S31520253A30002802D04148006801E04148006800F08E
S31520253A40FF04641CC0F30220022801D13D4802E070
S31520253A50002000F03AF8B0FBF4F035E0002033E002
S31520253A60002031E000202FE0FFF7BAFF2CE00020D0
S31520253A7000F02BF828E0032000F027F824E000208A
S31520253A8000F047F820E0012000F043F81CE0022052
S31520253A9000F03FF818E0032000F03BF814E0022060
S31520253AA000F013F810E0002000F01FF80CE00120AC
S31520253AB000F01BF808E0022000F017F804E00320A8
S31520253AC000F013F800E0002010BDC0B2002804D075
S31520253AD0022804D0032804D005E01B4804E01B480F
S31520253AE002E01B4800E0002070470021C0B20028D4
S31520253AF005D0022807D004D3032806D007E0154889
S31520253B0006E0154804E0154802E0154800E00020A7
S31520253B1070470021C0B2002805D0022807D004D33B
S31520253B20032806D007E00F4806E00F4804E00F4893
S31520253B3002E00F4800E00020704700008000CC40BE
S31520253B400000CC400084D7178083902F00A4781FAF
S31520253B5000389C1C0018FB1480B86723007B9A1715
S31520253B6040DCB311D9399D27A5104B1E80DF1710B0
S31520253B70002A7515016851F0010101600168C90700
S31520253B80FCD47047DFF89C1781610221C1617047FB
S31520253B90DFF8901781610121C161704790F84000B7
S31520253BA0400701D5012000E00020704790F840000D
S31520253BB0C00701D5012000E00020704790F840007D
S31520253BC0000701D5012000E00020704790F840002D
S31520253BD0800701D5012000E00020704790F840009D
S31520253BE0400601D5012000E0002070472DE9FF4140
S31520253BF007000E000424380000F0FAF805000120FD
S31520253C00002D04D0002E02D0317B042900DBADE027
S31520253C10317B0029022902D9C91E02D00AE00120BA
S31520253C2008E03000FFF7D2FF002801D0012000E070
S31520253C300020FFE7C0B2002808D04FF480700190FD
S31520253C400290286880076ED500216DE003AA0221FF
S31520253C503800FFF771F800200399DFF8CC2691422A
S31520253C6004D396F84010090600D40120C0B20028B6
S31520253C7004D07920019079200290E2E75FF00008B0
S31520253C8017E008E04B20B1FBF0F04B2202FB00F2B7
S31520253C908A4200D2401C3F21814200D208004002A0
S31520253CA010F4FC4050F4807001A941F8280018F141
S31520253CB00108B8F1020FC4D206EB480090F8790026
S31520253CC006EB480191F878100028DAD16420414383
S31520253CD00029D7D13000FFF781FF04002200D2B278
S31520253CE069463800FFF792FAE4B2002C0DD1DFF8A9
S31520253CF03C060099B0FBF1F149084FF47A7041430F
S31520253D004B20B1FBF0F0401CC5E7DFF820060099D3
S31520253D10B0FBF1F189084FF47A7041434B20B1FB72
S31520253D20F0F0401CB7E701210800C0B2002803D0D7
S31520253D30286850F002002860306D002802D1706D69
S31520253D40002802D00198C5F8C000B06D002802D100
S31520253D50F06D002802D00298C5F8C400C9B2002902
S31520253D6003D0286830F0020028600024200004B003
S31520253D70BDE8F08130B404000420002C03D0002AAD
S31520253D8001D0002B00D110E0DFF8A005B0FBF2F220
S31520253D9003FB02F0B1FBF0F000E0401C02FB00F52E
S31520253DA05D438D42F9D32060002030BC704700202A
S31520253DB07047D0F8BC1051F00101C0F8BC10D0F8DE
S31520253DC0BC10C907FBD47047D0F8B81051F00101B3
S31520253DD0C0F8B810D0F8B810C907FBD47047D0F86A
S31520253DE0E010C907FBD5D0F8E0108907FBD5704729
S31520253DF001000020032903D2DFF8340550F82100DD
S31520253E007047416951F01E01416170472DE9FE43F6
S31520253E1006000C000427002000903000FFF7E8FF5D
S31520253E200500002D01D0002C00D15BE014F15007B0
S31520253E305FF0000852E051F4106149E038683F1DD3
S31520253E40800A05EB8801086694F80E9019F01F095B
S31520253E50607B400110F4787050EA0909E07BC002A6
S31520253E6010F4F04050EA09092000FFF7A7FE0028A4
S31520253E7001D059F48069606F00280DD001AA02214E
S31520253E803000FEF759FF0123019A616F6846FFF737
S31520253E9071FF009859EA004905EB8800C0F8709013
S31520253EA0002194F847000028C5D094F890014001B8
S31520253EB010F0E00FBFD094F89101000210F4706045
S31520253EC0014394F89001401E400310F460400143BD
S31520253ED005EB8800C0F8801018F10108B8F1040F09
S31520253EE0ACD300273800BDE8FE8338B5040004206E
S31520253EF0002C01D0002900D123E091F84400012887
S31520253F000CD1E5686D086D0055F040050800FFF7D2
S31520253F1045FE002801D055F00105E560E06850F002
S31520253F202000E060002109E004EB8100026ADFF829
S31520253F300404024004EB81000262491C0729F3D3BD
S31520253F40002032BD18B589B004000420002927D0C9
S31520253F5000208DF8000001200390032002908DF883
S31520253F601020019391F84700002809D091F888015F
S31520253F70002805D091F88901029091F888010390AF
S31520253F80039B02980001084410F18002012120009C
S31520253F9000F0D4F9012002906946200000F006FAA7
S31520253FA00AB010BDF0B589B006000D00170004240F
S31520253FB03000FFF71DFF002801D0002D00D13FE05E
S31520253FC001208DF800000197687D0290287D0390B9
S31520253FD000208DF8100015F1180005900420069074
S31520253FE03B00002229003000FFF7ACFF039B0298F7
S31520253FF00001284410F180020121300000F09EF9AD
S31520254000012002906946300000F0D0F90400002CEA
S3152025401016D1688A00280DD1687C02280AD0687CAA
S31520254020032807D03B0000222900300000F0F5FAAE
S31520254030040005E0688A642148430021FFF7C1F87A
S31520254040200009B0F0BD2DE9F84306000D00042017
S31520254050002D18D0002715F150095FF0000802E041
S31520254060E71918F10108B8F1040F0CD2D9F8004048
S3152025407019F10409002CF4D03A0029003000FFF765
S3152025408091FF0028ECD0BDE8F2832DE9F84189B0CF
S3152025409006000D00170004243000FFF7A9FE00288E
S315202540A001D0002D00D161E001208DF80000019777
S315202540B000208DF81000042006905FF0000831E0DE
S315202540C0688A642148430021FFF77BF828E0039B73
S315202540D002980001284410F180020121300000F0C9
S315202540E02DF9012002906946300000F05FF9040081
S315202540F0002C37D1688A0028E2D105EB0800407FBD
S315202541000228DDD005EB0800407F0328D8D03B00C8
S3152025411000222900300000F080FA0400002C23D14B
S3152025412018F10108B8F1030F20D205EB880090F885
S3152025413021000028F4D005EB880090F82100029074
S3152025414005EB880090F82000039005EB8800303099
S3152025415005903B00002229003000FFF7F3FE0028BA
S31520254160B5D004E0200002E0200000E020000AB0BF
S31520254170BDE8F0812DE9F84306000D000420002D29
S3152025418018D0002715F150095FF0000802E0E7193D
S3152025419018F10108B8F1040F0CD2D9F8004019F10D
S315202541A00409002CF4D03A0029003000FFF76DFFD2
S315202541B00028ECD0BDE8F2832DE9F04180460E009B
S315202541C004244046FFF714FE0500002D01D0002EBD
S315202541D000D1A4E0307C002802D1307F002805D0EC
S315202541E096F8407017F010073F0900E00027306841
S315202541F05149884240F093804046FFF7FCF831002C
S315202542004046FEF705FE3800C0B2002805D000221C
S3152025421001214046FFF746F809E03000FFF7DEFC8E
S315202542200200D2B296F846104046FFF73BF84046A4
S31520254230FFF7D0F8286830F0020028602800FFF71D
S3152025424099FC286850F00200286029684DF60F70E1
S31520254250014096F84500082801D151F4005141F036
S315202542607F4151F47F01307B000110F0300001435E
S31520254270296031004046FFF79AFDA86830F40040B2
S31520254280A8603000FFF792FC002803D0A86850F4D8
S315202542900020A86031002800FFF727FE3100404680
S315202542A0FFF7B4FD31004046FFF7A0FC286830F023
S315202542B0020028602800FFF75DFC307C002806D008
S315202542C031004046FFF7BFFE0400002C27D1307F62
S315202542D0002806D031004046FFF74CFF0400002C6D
S315202542E01DD1FFB2002F19D0286850F00200286072
S315202542F03000FFF773FCC0B2020096F84610404600
S31520254300FEF7D0FF31004046FFF751FD31004046EC
S31520254310FFF76CFC286830F0020028600024200076
S31520254320BDE8F081F05AF05A00E1F50500CA9A3B1E
S31520254330D40F252000FEF0F8464346422DE9F041CC
S315202543400E00150098460427FFF752FD0400002C81
S315202543500CD0002D0AD0300000214246002380189B
S315202543605941002903D301D8112800D31BE0200069
S31520254370FFF735FD002000202000FFF703FCB000C5
S3152025438018EB0606B10004EB800212F5007204E054
S315202543902B681360401C121D2D1D8842F8D3200042
S315202543A0FFF7F6FB00273800BDE8F0812DE9F84315
S315202543B081460D005FF004084846FFF719FD0600E3
S315202543C0002E04D0002D02D02878042800DBF3E027
S315202543D000272C7C3000FFF702FD484600F0E5F942
S315202543E03000FFF70EFD6868C6F8A0002878022859
S315202543F001D1AF69BFB22878032801D12F6ABFB270
S31520254400A868000410F47020E968491E090611F0F1
S31520254410E0610843E4B250EAC4700743C6F8A470A5
S315202544202878032858D12C6AEF6917F0030000282D
S3152025443040F0C2805FF08009484600095FEA5909A5
S31520254440401E800010F07C00C6F8B8003000FFF72B
S31520254450BBFCD6F8B00050F00100C6F8B000002C01
S315202544603AD016F580714C4514D34A469208706980
S31520254470800604D42DE00868091D38603F1D1000EC
S31520254480421E0028F7D1B4EB0904706950F02000AC
S3152025449070611EE0D6F8F00000F0FF00C000A042B3
S315202544A017D304E00868091D38603F1D241F042CF6
S315202544B0F8D2002C0CD008680090684639000022D6
S315202544C004E003780B70401C491C521CA242F8D3E9
S315202544D0002470690007C2D52878022802D02878BA
S315202544E001283DD1AC696F6917F00300002863D1F7
S315202544F05FF08008404600095FEA5808401E800084
S3152025450010F07C00C6F8BC003000FFF752FC0021D5
S31520254510012C25DB16F5C072706940061DD543464C
S315202545209B08444539D303E0386810603F1D121D8A
S315202545301800431E0028F7D1B4EB08040800C0B2A2
S31520254540002806D1D6F8B00050F00100C6F8B000F4
S315202545500121706950F04000706170690007D7D538
S315202545602878002805D1D6F8B00050F00100C6F8E5
S31520254570B0003000FFF733FC706900071AD5D6F84E
S31520254580E400C0F303600E2811D041F6593813E014
S31520254590241F386810603F1D121D1800431E002851
S315202545A0CCD0012CF4DA00201060121DF5E741F657
S315202545B0583801E05FF000084046BDE8F28380B513
S315202545C0FFF716FC002803D0D0F8E0108907FBD585
S315202545D001BD80B5FFF70CFC002801D0FFF7CAFAEC
S315202545E001BDF0B40400042025000E00002B05D0C3
S315202545F0DF0703D4002C01D0002909D10BE0107840
S315202546002870501C6D1C01783170421C761C9B1E0F
S31520254610002BF4D10020F0BC70472DE9F04F8FB048
S3152025462088460426B8F1000F00F08E80002101214E
S31520254630B8F87C9011FA09F9B8F87EB0002518F15A
S315202546405006002700E07F1C042F06D2290056F8A5
S31520254650274065199D42F6D30B008DF80020079338
S3152025466003218DF81810012109910121089103A90B
S315202546700D919DF80010002901D0082100E0042184
S315202546800E91B8F87C10102902D20E9949080E9160
S315202546909DF800108DF8281098F84710002909D084
S315202546A098F88411002905D098F88511089198F84D
S315202546B0841109910590099B08980001404410F121
S315202546C0800208990598FFF739FED8F8700000284A
S315202546D002D05FF0010A01E05FF0000AD8F87040A9
S315202546E0002506A90598FFF761FE0600002E2BD189
S315202546F09DF8000000283AD0082303AA01A902A87C
S31520254700FFF76FFFBBF1000F24D0029839EA00008E
S31520254710019939EA01010843002819D001273800D3
S31520254720C0B210EA0A0F0BD0002D01D1002C39D0AA
S315202547304FF47A700021FEF744FD641E75F10005BD
S31520254740FFB2002FCDD1FFE730000FB0BDE8F08FA7
S315202547500027E4E7029819EA0000019919EA0101E0
S315202547600843002801D00127D9E70027D7E7BBF141
S31520254770000F0FD0B8F87C00102802DA039880B2F3
S315202547800390039839EA0000002801D00127C6E7BF
S315202547900027C4E7039810EA090F01D00127BEE7B1
S315202547A00027BCE741F65A36CEE780B5FFF720FB32
S315202547B000280ED000210AE000EB8102D2F88020C5
S315202547C052F0004200EB8103C3F88020491C0429BE
S315202547D0F2D301BD38B50D00FFF70AFB0400002CE6
S315202547E00DD02000FFF7FBFA002D04D0206850F4C9
S315202547F00060206003E0206830F40060206031BD31
S3152025480038B50D00FFF7F4FA0400002C09D0200056
S31520254810FFF7E5FA6D0215F4FC4555F48075C4F8C5
S31520254820C05031BD38B50D00FFF7E2FA0400002C43
S3152025483009D02000FFF7D3FA206865F305102060FC
S315202548402000FFF797F931BD62B38B0708D0521E9A
S3152025485011F8013B00F8013B00F024808B07F6D1A7
S31520254860830740F0208000BF103A07D330B4B1E843
S315202548703810103AA0E83810F9D230BC530724BF97
S31520254880B1E80810A0E8081044BF51F8043B40F8C9
S31520254890043BD20724BF31F8022B20F8022B44BF34
S315202548A00B7803707047121F17D35B0009D151F877
S315202548B0043B20F8023B1B0C121F20F8023BF6D2A4
S315202548C00BE051F8043B00F8013B1B0A20F8023B7C
S315202548D01B0C121F00F8013BF3D238BF121D521EA6
S315202548E024BF11F8013B00F8013BF8D8704788878B
S315202548F0BFF34F8FDFF8B4170A6812F4E062DFF8AA
S31520254900B00702430A60BFF34F8F00BFFDE7DFF8EC
S31520254910A4070069C068002101600020704738B5CA
S31520254920002000218DF80010DFF88847E1694969C4
S3152025493000294AD02069C0680068012831D00DF1A8
S3152025494002032069C06810F108022069C068011D8C
S31520254950E069E5696D696D68A847002807D042F2A8
S315202549601271884203D042F2137188422DD1BDF8A7
S3152025497002104FF2F002914227D12169C968896830
S31520254980002922D02069C06881682069C0684068CE
S3152025499000F036F8002818D101212269D268116045
S315202549A013E0684600F058F8002804D00021226933
S315202549B0D268116009E09DF80010002901D0012157
S315202549C000E000212269D268116032BD0200100064
S315202549D0C0B2002803D01000C0B2142801DB002065
S315202549E00DE0DFF8D0060069806800E00C304168CC
S315202549F0002904D001681300DBB29942F6D170470D
S31520254A0070B505000E002800047800202000C0B2CD
S31520254A10FFF7DCFFDFF89C261169C9680863106952
S31520254A20C068006B00280ED01069C068006B4068EE
S31520254A30002808D0310028001269D268126B5268E6
S31520254A409047002007E042F21075E4B221002800A5
S31520254A5000F0CCFA280070BD80B5DFF858261169FC
S31520254A60C968096B00290FD0002101701169C96811
S31520254A70096B8968002905D01169C968096B896878
S31520254A80884700E0002000E0002002BD80B501789F
S31520254A90002000F0ABFADFF81C16C869C9694969F8
S31520254AA009698847022000F00FFBFFF721FF01BD8A
S31520254AB010B524210022DFF8FC050069C06810F115
S31520254AC00C04200000F03CFB10BD10B5040000208E
S31520254AD06068093808D0F7380CD0401E07D01F3813
S31520254AE00ED0401E09D00EE000F02FFE0CE001F07E
S31520254AF04DFA09E002F0CEF806E002F0B7FE03E013
S31520254B0003F009FA00E00420217800F06FFA10BDA1
S31520254B1010B504000020E268A1686068DFF89435A6
S31520254B201B68DB699847217800F060FA10BD10B51F
S31520254B300400FFF7BDFFDFF87C0561680269D268AE
S31520254B40116108210069C06880F82010217800208D
S31520254B5000F04CFA03F02FFD10BD3EB50021019142
S31520254B6000210091DFF84C456B4601AA81684068F3
S31520254B70C0B2E568AD68A84700212269D2681161CF
S31520254B80009A9208019900F04CFA37BD10B5040019
S31520254B90A1686068C0B2DFF81C25D268D268904724
S31520254BA0217800F023FA10BD1CB504000420616885
S31520254BB0092903D1A06800F076FB15E06168C1F3C9
S31520254BC00321012910D16946606803F07FFF00285B
S31520254BD00AD1DFF8E0048168009A14204243114463
S31520254BE0A068096909698847217800F0FFF913BD6E
S31520254BF010B50400FFF75CFFDFF8B804E168026909
S31520254C00D2689161A1680269D268116161680269D9
S31520254C10D268516104210069C06880F82010217866
S31520254C20002000F0E3F910BD10B50400FFF740FF82
S31520254C30DFF88004E1680269D2689161A16802697A
S31520254C40D268116161680269D268516103210069C0
S31520254C50C06880F82010A168002000F00CFA10BD4D
S31520254C6038B50400DFF84C5400202969C968486105
S31520254C7000202969C96808612869C06890F820003C
S31520254C80042805D1286840698047002C00D10400D6
S31520254C90286880698047002C00D104002869C068CF
S31520254CA090F82010200000F0A1F942F212708442DB
S31520254CB007D12869C06890F82000082801D103F07B
S31520254CC0D1FC31BD2DE9F04385B00600DFF8E4732C
S31520254CD03869C0680069002806D100203070002078
S31520254CE0FFF7BEFF002096E0012030703869C068A6
S31520254CF0D0F818903869C06805693869C068D0F831
S31520254D0014800020009001AB6A4602A9F869FC6947
S31520254D1064696468A0470400002C05D1BDF8040009
S31520254D204AF6AA2188420BD0F869F9694969C968E2
S31520254D3088472000FFF794FF0020307000206AE086
S31520254D400098002807D142F21270FFF789FF00202C
S31520254D50307000205FE00098A84200D3009538697E
S31520254D60C06890F82000082816D102983969C968A4
S31520254D70C86000983969C968C8610099029803F006
S31520254D8026FC040042F27D70844203D042F27470E0
S31520254D90844220D100241EE03869C06890F820007E
S31520254DA013280DD10098049002980390C146049AA1
S31520254DB003994846FFF748FD009810EB08080AE0B6
S31520254DC04B46029A009940463C68E468A047040071
S31520254DD0009810EB080800982D1A2800002805D1E0
S31520254DE02000FFF73DFF0020307013E0002C0AD06D
S31520254DF0F869F9694969C96888472000FFF730FFAE
S31520254E000020307006E03969C96808613869C068AC
S31520254E10C0F81480002005B0BDE8F0832DE9FE4FAB
S31520254E200600DFF890723869C0680069002806D127
S31520254E30002030700020FFF713FF00207BE00120A3
S31520254E4030703869C068806901903869C068D0F8A3
S31520254E5010B03869C068D0F814803869C068C4682D
S31520254E603869C06890F820008DF800000025DFF805
S31520254E704892F869F9694969496988478246DA4530
S31520254E8000D3DA46002C09D0524621004D4628006B
S31520254E90FFF7DAFC04EB0A00002518E09DF8000050
S31520254EA0032808D1019B4A46514640463C686468FA
S31520254EB0A047050009E09DF80000132805D1524694
S31520254EC041464C462000FFF7BFFC1AEB0808002D6B
S31520254ED00FD04AF6AA2300224946F869FC69646957
S31520254EE0A468A0472800FFF7BBFE002030700020CD
S31520254EF021E0BBEB0A0B5C464AF6AA2352464946D5
S31520254F00F869FD696D69AD68A847002C04D1FFF7BE
S31520254F10A7FE002030700DE0002804D0FFF7A0FE64
S31520254F200020307006E03869C06804613869C06899
S31520254F30C0F814800020BDE8FE8F10B50400E26875
S31520254F40A16860685B4B1B681B699847217800F030
S31520254F504DF810BD2DE9F0410700D7F80480BE682D
S31520254F60564DF868286000242868002805D028682A
S31520254F7003F052FE002800D10424404603F032FED9
S31520254F80002800D104243978200000F02FF8002CA1
S31520254F9016D14B4CC4F80080002000F095F84949DD
S31520254FA00E602868002805D0286880F30888286898
S31520254FB080F30988086821688847002000F084F84E
S31520254FC0BDE8F08138B504000020606803F00AFEAC
S31520254FD0002801D1042005E06568012000F074F839
S31520254FE0A068A847217800F001F831BD1FB5A02279
S31520254FF08DF8002000228DF8012000228DF8022030
S3152025500002228DF80320019002912A4C4FF2F003BB
S315202550100C226946E069E4696469A468A0470028EA
S315202550201FBD10B588B0A7238DF8003000238DF835
S31520255030013000238DF80230531C8DF80330019062
S31520255040002006E051F820306C4604EB8004A3604E
S31520255050401C9042F6D39DF803008200121D154C64
S315202550604FF2F0036946E069E4696469A468A047BC
S31520255070002808B010BD1FB5A3228DF800200122D7
S315202550808DF8012000228DF8022002228DF803209A
S3152025509001900291074C4FF2F0030C226946E069F4
S315202550A0E4696469A468A04700281FBD0CED00E0CB
S315202550B00400FA0510002720641C272060202720BD
S315202550C0642027206820272038B504002000C0B278
S315202550D0012819D0002510E001FB05F01044C068F1
S315202550E08068002808D001FB05F0104401FB05F156
S315202550F01144C968896888476D1C18210E4A01FB09
S3152025510005F010580028E7D1E4B2002C0ED103F083
S31520255110DEFDFCF720FD03F08DFE00200749086003
S315202551200120FDF7D5FBFEF70DFB62B6BFF36F8F8A
S31520255130BFF34F8F31BD00BFB815252008ED00E000
S3152025514062F30F2262F31F42401810F0030308D0A2
S31520255150C91A1FD3DB0748BF00F8012D28BF20F821
S31520255160022D130030B414461546103928BF20E9E0
S315202551703C00FAD8490728BF20E90C0048BF40F84B
S31520255180042D890028BF20F8022D48BF00F8012DBF
S3152025519030BC7047C91818BF00F8012DCB0728BF8A
S315202551A000F8012D7047FEE72022BFF34F8F04E03C
S315202551B0DFF85C3618601018891A0129F8DABFF34A
S315202551C04F8FBFF36F8F7047DFF8480600787047FB
S315202551D0DFF84416C96B401A704780B50120FFF7C2
S315202551E0F8F901BD80B50B0000920200DFF82C16D8
S315202551F0012006F0F6F902BD10B50C00002C01D1D0
S31520255200042018E000280CD0012815D0022817D014
S31520255210032821D0042825D0052829D0102833D0A5
S315202552203DE0FFF7D1FF002801D0002001E042F222
S31520255230DD702060002010BD5FF0C0402060F9E7BA
S31520255240DFF8D8150A6D486D8218886D8218C86DC5
S315202552508218920A2260EDE7DFF8C005D0F8C00152
S315202552602060E7E7DFF8B405D0F8C4012060E1E740
S31520255270DFF8A815D1F8D001002803D0D1F8D00120
S315202552802060D7E70420D6E7DFF890150A6D486D0C
S315202552908218886D8218C86D82182260CAE7042074
S315202552A0C9E7012070472DE9F843ADF5007D0700B4
S315202552B0042400260025B84608F2FF19404603F0A7
S315202552C091FC002804D0484603F08CFC002800D108
S315202552D0D3E04246D8F800001168090F0C2919D1C8
S315202552E0DFF83815012006F033F80400002C40F0AD
S315202552F0C4800126F6B2002E31D0DFF818650020AD
S315202553003070DFF81815012003F09AFD0400002CD3
S315202553101BD0B2E03968DFF80825914209D14FF430
S315202553200072DFF8F86439003000FFF78DFA012680
S31520255330E0E7DFF8F014884206D1DFF8D8040078B4
S315202553400028D7D00125D5E797E0FFF746FF00F0BF
S315202553503AFA0400002C40F0908001203070EDB2FE
S31520255360002D00F08A80DFF8B4743800FEF716FC8D
S315202553700500B84600262800C0B2002823D04FF4C1
S31520255380007239006C462000FFF75EFAE846386C35
S3152025539030F004003864D7F8C0014008C7F8C001AA
S315202553A0D7F8C4014008C7F8C401D7F8D00140086A
S315202553B0C7F8D0013900012003F042FD0400002C56
S315202553C001D0012645E04FF400715FF0C04000F082
S315202553D0F0F800283AD097F8CA01002801D00120F4
S315202553E000E00020C0B2002810D03800002109E0B6
S315202553F000EB010252786B465A54425C6B460B44AD
S315202554005A70891CB1F5007FF2D3E84642464FF4FF
S315202554100071DFF8140400F049F80400002C07D0A9
S315202554204FF400715FF0C04000F0E7F9012610E047
S3152025543000F014F90400002C07D0D7F8C4115FF02A
S31520255440C04000F054F9012603E002E042F2DB7465
S315202554500126EDB2002D0DD04FF400723C004146B9
S315202554602000FFF7F1F93900012003F0E9FC0400BB
S31520255470002C02D1F6B2002EFFD120000DF5017D9C
S31520255480BDE8F08370B504000D001600FFF79CFEDD
S31520255490002802D142F2DD7007E02000FFF798FEB2
S315202554A02A0001003000FFF79DFE70BD2DE9F0474B
S315202554B006000C001500FFF787FE002802D142F2D0
S315202554C0DD704DE0FFE7002C49D0DFF8487378786A
S315202554D0002818D1DFF84403D0F8C001401E064223
S315202554E002D044F689603BE0012078700020B86020
S315202554F07E60DFF82883B8682018D8F8C01188423E
