S0130000666C6173686C6F616465722E737265638C
S31520002000785E2120AD4B01207B240020492F012022
S315200020107B2400207B2400207B240020000000005D
S315200020200000000000000000000000007B240020CB
S315200020307B240020000000007B2400207B2400203D
S31520002040D54B0120DD4B0120E54B0120ED4B012036
S31520002050F54B0120FD4B0120054C01200D4C0120A4
S31520002060154C01201D4C0120254C01202D4C012012
S31520002070354C01203D4C0120454C01204D4C012082
S31520002080554C0120F35D0120F35D0120F35D012015
S31520002090C74501205D4C0120654C01206D4C012077
S315200020A0754C01207D4C0120854C01208D4C012052
S315200020B0954C01209D4C0120A54C0120AD4C0120C2
S315200020C0B54C0120BD4C0120C54C0120CD4C012032
S315200020D0D54C0120DD4C0120F35D0120F35D01206C
S315200020E0F35D0120F35D0120F35D0120F35D012006
S315200020F0F35D0120F35D0120F35D0120F35D0120F6
S31520002100F35D0120F35D0120F35D0120F35D0120E5
S31520002110F35D0120F35D0120F35D0120F35D0120D5
S31520002120E54C0120ED4C0120F54C0120FD4C012011
S31520002130054D0120F35D0120F35D0120F35D0120B3
S31520002140F35D0120F35D0120F35D0120F35D0120A5
S31520002150F35D0120F35D0120F35D0120F35D012095
S31520002160F35D0120F35D0120F35D0120F35D012085
S31520002170F35D0120F35D0120F35D0120F35D012075
S315200021803B330020F35D0120F35D0120F35D012048
S31520002190F35D0120F35D0120F35D0120F35D012055
S315200021A0F35D0120F35D01200D4D0120154D012029
S315200021B0F35D0120F35D0120F35D0120F35D012035
S315200021C0F35D0120F35D0120F35D0120F35D012025
S315200021D0F35D0120F35D0120F35D0120F35D012015
S315200021E0F35D0120F35D0120F35D01201D4D0120EB
S315200021F0254D0120F35D01202D4D0120354D012077
S31520002200F35D0120015D01203D4D0120454D01205A
S31520002210F35D0120F35D0120F35D0120F35D0120D4
S31520002220F35D0120F35D0120F35D0120F35D0120C4
S31520002230F35D0120F35D0120F35D0120F35D0120B4
S31520002240F35D0120F35D0120F35D0120F35D0120A4
S31520002250F35D0120F35D0120F35D0120F35D012094
S31520002260F35D0120F35D0120F35D0120F35D012084
S31520002270F35D0120F35D0120F35D0120F35D012074
S31520002280F35D0120F35D0120F35D0120F35D012064
S31520002290F35D0120F35D0120F35D0120F35D012054
S315200022A04D4D0120554D01205D4D0120F35D01204E
S315200022B0F35D0120F35D0120F35D0120F35D012034
S315200022C0F35D0120F35D0120F35D0120F35D012024
S315200022D0F35D0120F35D0120F35D0120F35D012014
S315200022E0F35D0120F35D0120F35D0120F35D012004
S315200022F0F35D0120F35D0120F35D0120F35D0120F4
S31520002300F35D0120F35D0120F35D0120F35D0120E3
S31520002310F35D0120F35D0120F35D0120F35D0120D3
S31520002320F35D0120F35D0120F35D0120F35D0120C3
S31520002330F35D0120F35D0120F35D0120F35D0120B3
S31520002340F35D0120F35D0120F35D0120F35D0120A3
S31520002350F35D0120F35D0120F35D0120F35D012093
S31520002360F35D0120F35D0120F35D0120F35D012083
S31520002370F35D0120F35D0120F35D0120F35D012073
S31520002380F35D0120F35D0120F35D0120F35D012063
S31520002390F35D0120F35D0120F35D0120F35D012053
S315200023A0F35D0120F35D0120F35D0120F35D012043
S315200023B0F35D0120F35D0120F35D0120F35D012033
S315200023C0F35D0120F35D0120F35D0120F35D012023
S315200023D0F35D0120F35D0120F35D0120F35D012013
S315200023E0F35D0120F35D0120F35D0120F35D012003
S315200023F0F35D0120F35D0120F35D0120FFFFFFFF68
S31520002400002A01D101207047F0B41F460346032459
S315200024102340002B09D00424E31A0170013008243C
S31520002420E141521E26D05B1EF7D1042A1ADB13D0B7
S31520002430002F11D00C460D460E46102A02DB72C024
S31520002440103AFAE70C2A02DB32C00C3AFAE7082ADD
S3152000245002DB12C0083AFAE7042A03DB01600430E3
S31520002460121FF9E7002A05D0017001300824E14146
S31520002470521EF7D1F0BC00207047FEE7AF3A00208D
S3152000248000000000033B002000000000453C002027
S31520002490DF3D0020CD3B0020E53C0020BD3E002056
S315200024A00000000000000000000000003B3B002070
S315200024B000000000133B0020E53C0020DD3E00200C
S315200024C0000000003B3F002000000000633A00208F
S315200024D0000000006B3B0020000000000000000010
S315200024E0000000005F3F002000000000873F002022
S315200024F0000000000000000000000000813B0020DA
S31520002500000000000000000000000000EB3B00205F
S31520002510CF3C002000000000B71DC1046E3B82099D
S31520002520D926430DDC7604136B6BC517B24D861A7C
S315200025300550471EB8ED08260FF0C922D6D68A2F99
S3152000254061CB4B2B649B0C35D386CD310AA08E3CB8
S31520002550BDBD4F3870DB114CC7C6D0481EE0934531
S31520002560A9FD5241ACAD155F1BB0D45BC296975600
S31520002570758B5652C836196A7F2BD86EA60D9B636B
S3152000258011105A6714401D79A35DDC7D7A7B9F70FC
S31520002590CD665E74E0B6239857ABE29C8E8DA191F2
S315200025A0399060953CC0278B8BDDE68F52FBA58248
S315200025B0E5E66486585B2BBEEF46EABA3660A9B7D5
S315200025C0817D68B3842D2FAD3330EEA9EA16ADA4F4
S315200025D05D0B6CA0906D32D42770F3D0FE56B0DD23
S315200025E0494B71D94C1B36C7FB06F7C32220B4CE04
S315200025F0953D75CA28803AF29F9DFBF646BBB8FBEF
S31520002600F1A679FFF4F63EE143EBFFE59ACDBCE86F
S315200026102DD07DEC77708634C06D4730194B043D44
S31520002620AE56C539AB0682271C1B4323C53D002E5B
S315200026307220C12ACF9D8E1278804F16A1A60C1B20
S3152000264016BBCD1F13EB8A01A4F64B057DD00808D7
S31520002650CACDC90C07AB9778B0B6567C6990157170
S31520002660DE8DD475DBDD936B6CC0526FB5E61162DF
S3152000267002FBD066BF469F5E085B5E5AD17D1D5722
S315200026806660DC5363309B4DD42D5A490D0B19449B
S31520002690BA16D84097C6A5AC20DB64A8F9FD27A5B5
S315200026A04EE0E6A14BB0A1BFFCAD60BB258B23B6A7
S315200026B09296E2B22F2BAD8A98366C8E41102F83DC
S315200026C0F60DEE87F35DA9994440689D9D662B9093
S315200026D02A7BEA94E71DB4E0500075E4892636E9A2
S315200026E03E3BF7ED3B6BB0F38C7671F7555032FAE3
S315200026F0E24DF3FE5FF0BCC6E8ED7DC231CB3ECFA6
S3152000270086D6FFCB8386B8D5349B79D1EDBD3ADC0E
S315200027105AA0FBD8EEE00C6959FDCD6D80DB8E60AA
S3152000272037C64F643296087A858BC97E5CAD8A732C
S31520002730EBB04B77560D044FE110C54B3836864625
S315200027408F2B47428A7B005C3D66C158E440825508
S31520002750535D43519E3B1D252926DC21F0009F2CED
S31520002760471D5E28424D1936F550D8322C769B3FB0
S315200027709B6B5A3B26D6150391CBD40748ED970A77
S31520002780FFF0560EFAA011104DBDD014949B93194C
S315200027902386521D0E562FF1B94BEEF5606DADF81E
S315200027A0D7706CFCD2202BE2653DEAE6BC1BA9EB78
S315200027B00B0668EFB6BB27D701A6E6D3D880A5DEE1
S315200027C06F9D64DA6ACD23C4DDD0E2C004F6A1CDC4
S315200027D0B3EB60C97E8D3EBDC990FFB910B6BCB4BF
S315200027E0A7AB7DB0A2FB3AAE15E6FBAACCC0B8A734
S315200027F07BDD79A3C660369B717DF79FA85BB4927B
S315200028001F4675961A163288AD0BF38C742DB0813F
S31520002810C330718599908A5D2E8D4B59F7AB08543C
S3152000282040B6C95045E68E4EF2FB4F4A2BDD0C478B
S315200028309CC0CD43217D827B9660437F4F460072AC
S31520002840F85BC176FD0B86684A16476C93300461A7
S31520002850242DC565E94B9B115E565A1587701918AC
S31520002860306DD81C353D9F0282205E065B061D0B0F
S31520002870EC1BDC0F51A69337E6BB52333F9D113E2E
S315200028808880D03A8DD097243ACD5620E3EB152D6B
S3152000289054F6D4297926A9C5CE3B68C1171D2BCC61
S315200028A0A000EAC8A550ADD6124D6CD2CB6B2FDF57
S315200028B07C76EEDBC1CBA1E376D660E7AFF023EAE8
S315200028C018EDE2EE1DBDA5F0AAA064F4738627F9E3
S315200028D0C49BE6FD09FDB889BEE0798D67C63A80BE
S315200028E0D0DBFB84D58BBC9A62967D9EBBB03E9393
S315200028F00CADFF97B110B0AF060D71ABDF2B32A632
S315200029006836F3A26D66B4BCDA7B75B8035D36B55E
S31520002910B440F7B100000000CD5D0120D75D012055
S31520002920E15D012000000000000000000900000019
S315200029304B470020010100005D4F002008000000E9
S315200029406358002000010000875F0020100100006E
S315200029506D670020200100008774002021010000FF
S31520002960F36E002000000000000000005A04180842
S315200029700830FF2400000000000000005A05180956
S315200029800831FF2500000000000000005A06180A42
S315200029900832FF26000000000000000000000000B2
S315200029A00000000000000000000000009F04032437
S315200029B00000000000000000000000009F076007E4
S315200029C0200B042700000000000000009F8760877E
S315200029D0208B04A700000000000000005A041808FD
S315200029E00830FF2400000000000000005A06180AE4
S315200029F0FF26000000000000000000005A07180B08
S31520002A00FF27000000000000000000005A06188A78
S31520002A10FFA6000000000000000000005A07208BDF
S31520002A20FFA7000000000000000000001742002061
S31520002A304144002059440020D94400208D450020DF
S31520002A4095460020000000000040184000801840F5
S31520002A5000C018400000194000401940008019406D
S31520002A6000C0194000001A400000000000000000CD
S31520002A700000000000000000000000000000000030
S31520002A800000000000000000000000000000000020
S31520002A900000000000000000000000000000000010
S31520002AA00000000000000000000000000000000000
S31520002AB0000000000A0000000C0000000D000000CD
S31520002AC00F000000140000001A0000001E00000085
S31520002AD023000000280000002D0000003400000024
S31520002AE0370000003C0000004600000050000000B7
S31520002AF000000000000000000000000000000000B0
S31520002B00000000000000000000000000000000009F
S31520002B10000000000000000000000000000000008F
S31520002B20000000000000000000000000000000007F
S31520002B30000000000000000000000000000000006F
S31520002B40000000000000000000000000000000005F
S31520002B50000000000000000000000000000000004F
S31520002B60000000000000000000000000000000003F
S31520002B70000000000000000000000000000000002F
S31520002B80000000000000000000000000000000001F
S31520002B90000000008000000080000000000100000E
S31520002BA0800000004000000040010000800000007E
S31520002BB000010000800000008000000020000000CE
S31520002BC0600100004000000080000000400100007D
S31520002BD04000000000010000C000000000000000CE
S31520002BE0BA01000040000000000100008000000043
S31520002BF0800000000001000040000000C00000002E
S31520002C00C00000000001000040000000C0010000DC
S31520002C1000000000400000000000000080000000CE
S31520002C20800100002000000020000000C0010000FC
S31520002C30000000000001000000010000000000006C
S31520002C400000000000020000ED440120694501203B
S31520002C50834501200000000000000000B54501204A
S31520002C60137D0020757A0020CD7A0020B57B0020C8
S31520002C70F17B0020017C00204D7B00202B6B002067
S31520002C800D6D0020A76D00206F6E0020A96B00201F
S31520002C90516E0020636E002000555603590C0F5AC2
S31520002CA05A0F0C5903565500653033663C696A3F06
S31520002CB03F6A693C66333065663330653F6A693CF6
S31520002CC03C696A3F65303366035655005A0F0C59E6
S31520002CD0590C0F5A00555603693C3F6A30656633D6
S31520002CE0336665306A3F3C690C595A0F55000356C6
S31520002CF0560300550F5A590C0F5A590C56030055B6
S31520002D00550003560C595A0F6A3F3C6933666530A5
S31520002D1030656633693C3F6A6A3F3C693366653095
S31520002D2030656633693C3F6A0F5A590C5603005585
S31520002D30550003560C595A0F0C595A0F5500035675
S31520002D40560300550F5A590C693C3F6A3065663365
S31520002D50336665306A3F3C69035655005A0F0C5955
S31520002D60590C0F5A00555603663330653F6A693C45
S31520002D703C696A3F65303366653033663C696A3F35
S31520002D803F6A693C6633306500555603590C0F5A25
S31520002D905A0F0C5903565500F588002035B70020E8
S31520002DA041B7002051B700200000000000000000BD
S31520002DB00100000001000000D5320020482C002030
S31520002DC0582C0020CC2F002010000000010000000D
S31520002DD00000000054300020000000006430002075
S31520002DE000000000000000000000000000000000BD
S31520002DF00000000000000000F14501200D460120E2
S31520002E00BD4601207B47012054B42020717100204B
S31520002E10AF7200204973002011740020B971002080
S31520002E20F37300200574002000000000000000005D
S31520002E30000000000000000000000000000000006C
S31520002E400000000046001400000032001E00320080
S31520002E501E0000007800C800C8002800C800000036
S31520002E6023000A00000019000F0019000F000000BF
S31520002E7050006400640014006400000019000A0079
S31520002E80000011000F0011000F0000005000640028
S31520002E9064001400640000001900050000000F0003
S31520002EA00A000F000A0000003C00640064001400C1
S31520002EB0640000001400050000000C000A000C004D
S31520002EC00A0000003C006400460014006400000074
S31520002ED00F00050000000A0007000A000700000096
S31520002EE03C0064004600140064000000000000005E
S31520002EF000000000000000000000000000000000AC
S31520002F0000000000000000004D4943524F4E202093
S31520002F10202020205350414E53494F4E2020202020
S31520002F2053414D53554E47202020202057494E428D
S31520002F304F4E44202020202048594E4958202020FA
S31520002F4020202020544F5348494241202020202031
S31520002F504D4143524F4E495820202020000000006A
S31520002F600000000000000000F5580020655C0020ED
S31520002F70575D0020635E0020355A0020515F0020F7
S31520002F80635F0020000000000E000A000000000021
S31520002F90420021000A009C000A00000000000000F8
S31520002FA0070005000000000028001400050060004E
S31520002FB0070000001755002095560020AB5600202C
S31520002FC03F570020BD570020E15700206D480120C3
S31520002FD073480120DF4801207749012071480120EC
S31520002FE0834901204D480120F96400200365002013
S31520002FF01D650020EB65002097660020996500205E
S31520003000000000001D480020654B0020954C002044
S315200030106D4E00205F4A00202F4E0020414E00209A
S31520003020513F0120D93F012000000000D93F012057
S315200030300000000071400120B9400120000000007E
S315200030406141012097410120EB4101202B420120C3
S315200030505F420120815901208D5A0120395B0120D0
S31520003060995B0120A75B0120CB5B01204F5C0120EF
S31520003070E75C0120F75C0120FB5C012000000000DA
S3152000308038B504463E4D00202862C5E90000C5E952
S315200030900200C5E9040068623A4800F0ACF8C5E9C8
S315200030A0060120460FF25D01BDE8344000F053B919
S315200030B000F067B970B50C46314E316A072904BF56
S315200030C0756AA8421BD100F03EFB0546C5EB0515E7
S315200030D0D6E90023D6E9020182184FF49666B5FB9D
S315200030E0F2F00A250A2368434FF49662B0FBF6F6FF
S315200030F0761D0020B6FBF3F35343236070BD0120F9
S3152000310070BD00002DE9F8431D4F064600F069F812
S315200031103A6A0446D7E904598846521C651BD7E902
S31520003120060168EB0909494502D82CBFA8420122AD
S31520003130012A3A6206D0042A08D0052A0ED0072A88
S315200031400FD018E0C7E900487E6214E0D7E90023D3
S31520003150A21A68EB0303C7E900230CE0C7E902487B
S3152000316009E0D7E90201201A68EB0101C7E902014B
S31520003170304600F006F9C7E90448BDE8F1830000AF
S31520003180009820208038010010B54FF4867000F09A
S315200031906CFB0021294A116029484FF0FF3100239A
S315200031A0016101228361C261846944F0040484615F
S315200031B0826942F00102826101600121C160816061
S315200031C000F0C1FAC0001F49B0FBF1F000B90120A0
S315200031D01D4A906010BD1948016841F00201016046
S315200031E0704781B01948016842680092009801B082
S315200031F0C943C043704714498A68A2FB0001C0082E
S3152000320040EA4170C908704738B50446FFF7E9FF20
S3152000321000F00BF8241841EBD505FFF7E2FFA94291
S31520003220FBD301D8A042F8D331BD074A9368A3FB4C
S315200032300445E40844EA457470470000004008400D
S315200032400041084040420F0028982020E0400840D6
S315200032500901020002D4564881547047554A00F0AD
S315200032600F00131803F8041C704710B5039C01F0D7
S315200032700F01240104F010042143016002B1136000
S3152000328010BD0021016002B11160009808B10199BA
S3152000329001607047FEB5089E0027099C0A9D01978C
S315200032A00096FFF7E2FF3068012101FA05F540F4A8
S315200032B010403060606820EA05056560F7BD7CB582
S315200032C0069C0025019547F2B0060094FFF7CDFF36
S315200032D0266073BD7FB5384C384D3948394A19B107
S315200032E0022919D00DD37FBD41F2B0060095019673
S315200032F0002300F01EF801960023009500F019F82F
S315200033007FBD0D21304B02910521019300230092B0
S315200033100022FFF7BFFF7FBD009200230022FFF7A8
S31520003320CEFF00950023002202212046FFF7C7FF8B
S315200033307FBD002202212046A3E710B5234C20683A
S31520003340800407D52249496821B1012088474FF4D6
S315200033500051216010BD10B51D4B1B4C5960042235
S315200033600D21204600F0DCFA63690121502043F448
S3152000337000536361FFF76CFF4FF4803015490860F6
S3152000338010BD80B54FF4803013490860BFF34F8FCE
S31520003390BFF36F8F00215020FFF75AFF00220D2127
S315200033A0094800F0BDFA00200949486001BD000027
S315200033B000E400E018ED00E0EC801F40DC821F40B6
S315200033C0F0801F40E0821F4000801B4018801B4079
S315200033D04CB4202008E100E088E100E0002808BF86
S315200033E000F023B87047DFF89803DFF898230168C8
S315200033F04FF0004341F00301016040201060DFF8E8
S31520003400880383634FF08041816300220260DFF8E6
S315200034107C03036843F4C0130360DFF87403016878
S315200034204908490001600120704770B5DFF8640340
S3152000343000F027FADFF8600301210269DFF85C3328
S315200034400068520D02F0030201FA02F21968C0F375
S315200034508000002841F4803119601C6B44F48034CC
S315200034601C63196941F48031196114BFDFF83013E8
S31520003470DFF83013196019680029FCD51D6B25F477
S3152000348080551D63196B0029FCD5DFF81C43DFF836
S315200034901C1325694FF4405625F03F350D43256111
S315200034A01E6119690029FCD51E69DFF8041326F46C
S315200034B080361E612568012625F03F350D430028FC
S315200034C02560DFF8F042DFF8F0122660DFF8EC62C4
S315200034D00CBFBB48BB48B0FBF2F00860012100E0FE
S315200034E0491CB0FBF1F5B542FAD26568491EB648CB
S315200034F00E04521E06F4E02605409202354302F4DD
S31520003500E05209022A4301F440710A43626060696D
S31520003510AE4AC009C00140F003006061A168AC4812
S3152000352011400143A160A568AA49AB480D4045F06A
S31520003530A055A560E268024042F0C74242F001026F
S31520003540E260E16841F44031E160606920F4E720FF
S3152000355040F484306061196821F480311960186B59
S3152000356020F480301863196921F48031196170BD07
S31520003570FAE00000012A2DE9FE43044652D800292C
S3152000358050D0012C4ED8DFF82082944FD8F8000076
S315200035908309002CA0A007BF7D6825F060753D68D3
S315200035A025F06045012A08BF0FF284200B2928BF89
S315200035B0012100EB410210F8110000BFA2A15278B0
S315200035C0521E002C00F03F0040EA8319684603BFD4
S315200035D0D20502F06072154345EA427591E80C1057
S315200035E080E80C105DF82460306840F002003060FE
S315200035F0204600F025F8D8F80010894518BFC8F8ED
S31520003600009024B97868854205D07D6003E039684A
S315200036108D4218BF3D60204600F006F8306820F045
S3152000362002003060BDE8F783554920B9086840F4A8
S315200036304060086070474A6842F00C024A60704752
S315200036404F4920B9086820F44060086070474A68EE
S3152000365022F00C024A60704730B5574C00230020F8
S3152000366024685F4D19B102290AD002D318E02346F7
S3152000367017E02968C1F30121491CB4FBF1F310E0DE
S315200036804949584C0968AB6801F03F01B4FBF1F594
S3152000369012214D43C3F3C251491CB5FBF1F300E09F
S315200036A00420136030BD042011B14F48086000206B
S315200036B07047000030B54A4906280A6842F04002A1
S315200036C00A600B68494A23F080030B6013680C6874
S315200036D023F47C1324F4E02414D8DFE800F0040655
S315200036E008130B0D100023200DE0222000E01B20E4
S315200036F0072509E01D2003E01220042504E01320FD
S31520003700032501E01220082543EA00436D1E2D04FF
S3152000371005F4E02510682C43834218BF13600A681D
S31520003720944203D00C604B6BD807FCD430BD304894
S31520003730016841F03001016070472D48016821F091
S3152000374030010160704726481B4A0168806813686B
S31520003750C1F30121491C00F03F00401CB3FBF1F1ED
S31520003760B1FBF0F0704700001D48134900680A6855
S31520003770C0F30120401CB2FBF0F0704700000000AF
S3152000378080C00F4014800D4000900D40B0810D4048
S3152000379040012E4000366E0160441F4000800D40DF
S315200037A05820010042200100F0800D4018181318FF
S315200037B023231A0F10C00F40F085202001449508BE
S315200037C0007B9A1700A4781FFFE0F8FFFFFCF31F89
S315200037D000010CE0CFFFFFE380FF7F9C18C00F4065
S315200037E014C00F4000389C1C80F5E40900810D4070
S315200037F074C00F4038B504460D4602E00120FFF79D
S3152000380003FD20462946441E61F10005002908BF14
S315200038100028F3D131BD0000000022081608180642
S315200038201E0412060C0712040D050D0416020000D4
S315200038300000180616040C061E02120315021202B8
S3152000384021010D021601000000802A400000000020
S3152000385000402A401348144A01681160704710B589
S3152000386000F01BF81C69A04710BD10B500F015F834
S315200038709C69A04710BD10B500F00FF8DC69A04781
S3152000388010BD10B500F009F81C6CA04710BD10B58E
S3152000389000F003F89C6AA04710BD03490A689369A3
S315200038A0704700001C00200034982020F8B50646FA
S315200038B00C4615465FF0000033A151F82020B24295
S315200038C002D0401C0628F8D335A1012731F9100073
S315200038D0A740FFF7CAFF7269F9430A407261287848
S315200038E018B972681140716007E06A78214630463F
S315200038F000F009F8706807437760AA7821463046B9
S31520003900BDE8F8400CE00123002A10B503FA01F1C6
S3152000391007BF026822EA010104682143016010BD45
S31520003920F0B5C369012404FA01F5AB431029C3613C
S3152000393032BF00F10C0300F11003103949000326B1
S315200039408E40F743521E042A1DD8DFE802F00307F3
S315200039500D151900186807401F60F0BD1A688C40C5
S3152000396017403C431C60F0BD1C68022505FA01F196
S31520003970274039431960F0BD186806431E60F0BD24
S31520003980C1690D43C561F0BD0000000000801B40E9
S3152000399000C01B4000001C4000401C4000000C40A2
S315200039A0FFFF1A011E001A020C031E01DFF8D816AB
S315200039B000200A69D36818607047F8B5DFF8C86632
S315200039C00024306A8DF800404569002D47D03169C2
S315200039D0C9680F68012F31D06C6801F108020023F5
S315200039E0091DA04704001FBF42F21270844242F212
S315200039F013718C4233D13069C268916800292ED068
S31520003A00546823781D0007D0142B05DA806800EB54
S31520003A10C305A5F1080000E00020002850621CBF65
S31520003A200268002A03D020460024904713E042F281
S31520003A3010741946204600F0BCFA10E0486A58B1C6
S31520003A40416811B16846884704460CB1002003E05E
S31520003A509DF8000000B101203169CA681060204637
S31520003A60F2BD80B50178002000F0A3FADFF8182611
S31520003A70106A41690A699047022000F013FBBFF3E0
S31520003A804F8FDFF80816DFF808060A6802F4E062AE
S31520003A9002430A60BFF34F8F00BFFDE7DFF8E8055A
S31520003AA018210269D36803F10C0000F027BB10B57A
S31520003AB004466068083812D0401E0AD0F73811D064
S31520003AC0401E09D00F3810D0103814D0401E0FD009
S31520003AD014E000F00CFE12E001F018FA0FE001F0FD
S31520003AE0B4FE0CE002F009FA09E002F097FD06E0C8
S31520003AF003F0E3F903E003F0A9FC00E004202178B9
S31520003B0070E0DFF8843570B500F0E2F9AE69B047B1
S31520003B10DAE110B500F094F8DFF86C056268016907
S31520003B20C8680821026180F820102178002000F062
S31520003B3040FABDE8104003F001BF7CB5DFF84845E8
S31520003B400022E56801920092816840686B46AE6863
S31520003B5001AAC0B2B04722690021D3681961009A30
S31520003B600199920800F02BFA73BDDFF81C2538B5B1
S31520003B70D36804466068A168DD68C0B2A847EAE158
S31520003B8038B5044604206268092A03D1A06800F0EB
S31520003B9044FB19E0082A03D1A06801F0D5FC13E004
S31520003BA0C2F3032101290FD16946104604F07DF89E
S31520003BB050B9009DDFF8D02414219368A0684D43A6
S31520003BC059190A69136998472178D9E110B500F087
S31520003BD037F8DFF8B404E2680169042300F041F8FD
S31520003BE021780020BDE81040E3E170B5DFF8985455
S31520003BF000F026F829691320DFF89864CA6882F84D
S31520003C0020002969E068CA6882F82100E06838B98E
S31520003C1029691022C868026146612178002054E192
S31520003C2006F11001304604F0D5F82869482106F13E
S31520003C301002C068016142610020BDE87040D9E1F0
S31520003C4004462BE710B5FFF7FBFFDFF83C04E268DC
S31520003C500169032300F005F8A1680020BDE81040A3
S31520003C60D6E1C8688261A16801616268426180F814
S31520003C702030704738B50446DFF80C5428690021F7
S31520003C80C0684161016190F82000042804D12968A8
S31520003C900A69904704B9044628684169884704B9E7
S31520003CA004462869C168204691F8201000F081F961
S31520003CB042F21270844201BF2969CA6892F8200034
S31520003CC0082803D1BDE8314003F07BBE31BDDFF8C3
S31520003CD0B8130A69D36893F82110002908BF00F0A9
S31520003CE001B87CE02DE9FE4300F0DEF811B900F0C2
S31520003CF0E1F871E0012101233170D0F818900569AF
S31520003D00D0F8148000206A460090386A01A94469D8
S31520003D10D4F804C0E04704000AD0386A4169CA686A
S31520003D2090472046FFF7A6FF00210020317054E07F
S31520003D30009830B942F21270FFF79CFF00203070D5
S31520003D404BE0A842396988BF28460090C86890F899
S31520003D502010082912D10199C160009AC2610099E8
S31520003D60019803F0F5FD044642F27D7084421CBFA3
S31520003D7042F274718C4216D1002414E0132907D123
S31520003D80009A0199404604F08DF8009880440AE094
S31520003D903C68019A00994B464046D4F808C0E04753
S31520003DA000990446884400982D1A05D12046FFF72D
S31520003DB061FF002131700FE04CB1386A4169CA6851
S31520003DC090472046FFF756FF0020307004E03969FF
S31520003DD0C9680D61C1F814800020BDE8FE832DE975
S31520003DE0F84F00F061F811B900F064F859E00121AC
S31520003DF0DFF8A4A23170826900920569D0F8148098
S31520003E00C46890F820B0386A41694A69904781466B
S31520003E10A94588BFA946ACB14A462146504604F07A
S31520003E2041F8386AA5EB090401234A4651464569FB
S31520003E30D5F808C0E04704B170B3FFF71BFF002098
S31520003E4030702EE0BBF1030F09EB080419D1D7F827
S31520003E5000C04046009B52464946DCF80480C047D5
S31520003E605FEA000BA046DCD0386A012300225146C7
S31520003E704469A568A8475846FFF7FCFE0020307025
S31520003E8010E0BBF1130F01D0A046CAE74A464146CF
S31520003E90504604F007F8F7E73869C0680461C0F8AF
S31520003EA014800020BDE8F28F0646774F3869C06837
S31520003EB001697047002200203270DBE6724B70B534
S31520003EC000F006F8EE68B0472178BDE8704070E053
S31520003ED01D680446E268A168606870472DE9F041D4
S31520003EE005466E4F6E68D5F80880E868002438606D
S31520003EF018B104F012F800B90424304603F0F6FF96
S31520003F0000B904242978204600F053F89CB97E6035
S31520003F10002000F0C7F8C7F80880386818B180F389
S31520003F20088880F309887968404688470020BDE8DC
S31520003F30F04100F0B7B8BDE8F08138B504466068B6
S31520003F4003F0D4FF08B9042005E06568012000F0DD
S31520003F50A9F8A068A8472178BDE8344029E038B5FB
S31520003F60044604F0C7F8E0686A460090A3686168D2
S31520003F704B4804F005F9054604F0C2F82178284696
S31520003F8000F017F831BD3EB500210446CDE90011F9
S31520003F9004F0B0F8A36861686A46414804F04EF917
S31520003FA0054604F0ADF8A2686946284600F042F8B6
S31520003FB037BD3EB5002400F031F8A0231EE070B5D1
S31520003FC0002588B0A7248DF801508DF800400026E2
S31520003FD0551C01908DF8026000208DF803506C4628
S31520003FE005E004EB800551F82030401CAB60904280
S31520003FF0F7D33BE03EB500F010F8B3238DF8003040
S315200040000023029144690C226946A568A84737BD5A
S315200040103EB500F002F8A323F0E7012401908DF8C5
S31520004020014002248DF80340174C206A00258DF8A4
S315200040300250704770B5002588B08DF80150AF2426
S31520004040002602258DF800408DF802608DF8035079
S31520004050019050B99DF80300029200EB920403A848
S315200040608DF8034003F01EFF00E0029606489DF8F7
S315200040700320006A0023694644699200121DA56840
S31520004080A84708B070BD0000108020200CED00E08D
S315200040900400FA05589C202060982020B09C2020FF
S315200040A000401F40012870B504461DD00025114E42
S315200040B005E07018C168896801B188476D1C182110
S315200040C0694370580028F4D174B904F013F8FFF747
S315200040D082F804F02BF90020074908600120FFF739
S315200040E07DF904F0CFFB62B6BFF36F8FBFF34F8F1E
S315200040F070BD00BFB02D002008ED00E0002204F0C6
S3152000410067BC30B4002513E050F8042BD30744BF16
S31520004110A9F101039A18091F042942F8045BFAD26F
S3152000412013468C0744BF15809B1CC90748BF1D70CA
S3152000413050F8041B0029E7D130BC7047BFF34F8FDE
S31520004140DFF8BC2602E01060203020390129FADA97
S31520004150BFF34F8FBFF36F8F704730B504460420EF
S31520004160002C85B01EBFDFF89C261178002950D080
S3152000417023681D0F0B2D4CD1C3F30361012902F5D2
S3152000418082650DD0002944D1204604F03BFC10B1B5
S31520004190002129703DE0A26801236A602B7038E077
S315200041A02978002935D013F00F0F32D100210120B4
S315200041B00491039104A900F0C8FA50BB03A910206A
S315200041C000F0C3FA28BB01A9032000F0BEFA00BB09
S315200041D06C68049D694602A804F04BFC6519C0B9B9
S315200041E0009A0399A418A14213D3019B5B1E1D427A
S315200041F00FD10199284600F092F910B942F2DB70EE
S3152000420007E0029A0099284600F026F908B900F03E
S31520004210BDF905B030BD012070472DE9F84FADF549
S31520004220007D054603F062FE00284FF0040A2CD0DC
S3152000423005F2FF1003F05AFE002826D02868DFF882
S31520004240C47507F58368010F0C291FD104F040FBC4
S315200042502A46414606F074F85FEA000A15D1002086
S31520004260387004F035FB414604F022FC5FEA000A70
S315200042700BD104F02DFB06F0E4FE6946102000F079
S3152000428064FA002800F08880824674E0DFF878150A
S315200042904FF40079884236D13878002878D04046C5
S315200042A0002606F07DFA0546002DC34607F5BB64B9
S315200042B040F0808004F013FB494603F043FD0028BC
S315200042C000F0A280A07A78B100200DF10102391801
S315200042D091F819140DF8001018F800301354801CAA
S315200042E0B0F5007FF3D3EB4604F0F9FA5A46494677
S315200042F000F0B2F85FEA000A7BD004F0F0FA4946F3
S3152000430000F05FFA82E0DFF80415884205D14A46BC
S315200043102946404603F0C6FDA1E7000F0E282FD1FF
S31520004320387840B3284607F00FF820B3284607F020
S3152000433014F85FEA000A1ED1012078700020451C7F
S315200043406A4601A907F010F990B904F0C8FA00EB03
S3152000435085204FF4007100F0E2F848B104F0BFFA6E
S31520004360019A009900EB852000F076F800F00EF90E
S3152000437028460128E3D950460DF5017DBDE8F08F8A
S315200043800B2806D12846FFF7E8FE5FEA000AF2D19D
S315200043904DE000207870EEE7DFF874540121A96320
S315200043A004F09DFA009928630818401E68630120CE
S315200043B038703CE04A4641466846EB4603F072FDBB
S315200043C0D8F8400020F00400C8F8400021684908C9
S315200043D0216060684008606021694908216104F015
S315200043E077FA414604F064FB00283FF463AF0126C8
S315200043F00EE000F0CBF85FEA000A08D004F06FFA6E
S31520004400616800F047F901E042F2DB7A012665B1E6
S315200044104A465946404603F045FD04F059FA4146BE
S3152000442004F046FB5FEA000AA5D1002EA3D17878D6
S31520004430002883D106F080FF00289CD00120A9E720
S3152000444010B5DFF8C043237813B942F2DD7010BDF2
S31520004450BDE8104007F06EB92DE9F8430546DFF8B0
S31520004460A47338780C46914688BB42F2DD7031E061
S31520004470B87868B9D7F8D815491E0D4202D044F647
S31520004480896027E001200021B870B9607D6004E0D2
S31520004490B86879680818A84216D1B868D7F8D885B8
S315200044A049462218424534BF2646A8EB0006384422
S315200044B032461030751903F0F5FCB868A41BB144D8
S315200044C030184045B86002D100F060F810B9002CD1
S315200044D0CED10020BDE8F28376B50D460646DFF83C
S315200044E02413087810B942F2DD7076BDAC08A4001A
S315200044F005F0030507E001AA04213046FFF7ACFFCB
S3152000450060B9361D241F002CF5D12DB101AA2946EC
S315200045103046FFF7A1FF08B900F038F876BDF8B5A8
S315200045200C460546B749ADF5806D4878012620B181
S315200045302146284606F0F2FFB0B92146284603F068
S3152000454001FC064630460DF5806D01B0F0BD491CD4
S31520004550B1EB970F06D250F8042B12F1010FF6D0CB
S315200045600020F0E7E41B7D19002CEBD04FF4806788
S31520004570B4F5806FA648016B684698BF27463A4631
S31520004580691A00F02EF968460021E1E72DE9F84383
S315200045909C4E0024B078ADF5806D002874D0B470A0
S315200045A0D6F8D845B068A04206D0211A06F11003E5
S315200045B0FF22184407F0D6F870682146FFF7AFFFB0
S315200045C010B942F2DB7060E0D6F8D815706806F0B4
S315200045D0A5FF40B1D6F8D815706806F1100207F08D
S315200045E00AF8040050D17468894F03F083FD386BB4
S315200045F0241A04F06DF906F11003224606F58361AC
S3152000460004F056FB044603F07BFD0020002CB0701E
S31520004610B06039D17F480268D10304D5D6F8D815C1
S315200046207068FFF78BFD7078D6F8D85506F110081C
S31520004630D6F80490F0B12946484606F06FFFC8B177
S3152000464015B34FF48066B5F5806F396B684698BF11
S315200046502E463246A9EB010100F0C3F83246414608
S31520004660684607F089F8002802BFAD1BB144B04464
S31520004670E6D006E02A4606F11001484607F07CF807
S3152000468010B144F68A6000E020460DF5806D01B039
S31520004690BDE8F08370B504465A4A107810B942F244
S315200046A0DD7070BDD2F8DC55684200EA04060C19AC
S315200046B0644204406442A41B2146304600F081F83F
S315200046C0A0B92946304606F0F5FF52480168CA03CC
S315200046D003D529463046FFF731FD21463046FFF700
S315200046E01EFF10B944F68A6070BD002070BD1CB54F
S315200046F0444C207810B942F2DD7016BD04F0E8F87B
S3152000470004F5836104F031FBF0B901A9012000F022
S315200047101CF8C8B96946102000F017F8A0B900990E
S31520004720019806F0C7FF3B480168CA0303D50099E4
S315200047300198FFF703FD0099019803F003FB10B9D8
S3152000474044F68A6016BD002016BD38B50C002ED062
S315200047502C4901F5BB6201F58D6360B1012813D0A8
S31520004760022814D0032817D0042818D0052818D0DA
S31520004770102819D01BE00878002814BF002042F228
S31520004780DD702060002032BD04F0A9F8F9E700F0C2
S3152000479010F8AD0A2560F5E712682260F2E7506846
S315200047A0EFE7106918B1ECE700F003F8F2E7042010
S315200047B032BD1D685A689968D86855194D1945192A
S315200047C0704738B50D4604461149086B241A04F083
S315200047D07FF82B46224601B00F49BDE8304005F050
S315200047E05FBE7CB504460D46164604F071F8009669
S315200047F02B462246084905F08EFE76BD00000000B5
S315200048005CEF00E004A520200F0000F0464346425E
S315200048105080202014ED00E01CA920203EB503F096
S31520004820EDFF022801D001203EBDDFF8144C42F2F4
S315200048302C102518284606F0C3FF48BB284600F052
S315200048409DFD28BB01A902A806F0A6FF01990298A2
S3152000485000F05AFCE0B9284600F090FDC0B942F2BB
S315200048602C00204400F0D0FC90B9012140F2011028
S315200048702170694603F019FA50B900F06BF9E01877
S3152000488004681144CC60C269806842438A60002073
S315200048903EBDFEB504460420002C1EBFDFF8A02B2B
S315200048A0117800294DD023681D0F0B2D49D1C3F354
S315200048B0036142F22405012915440DD0002940D177
S315200048C0204604F09FF810B100212970FEBDA26891
S315200048D001236A602B70FEBD297891B303F00F0384
S315200048E0082B1AD202EBC30042F26C0142F2EC23EF
S315200048F06D68D658084469460768446801A804F0DC
S31520004900B8F806FB0757E0B900982D18B5FBF6F066
S31520004910844202D3711E0F4201D00420FEBDB7FB94
S31520004920F6F40121204600F0CBFB10B942F2DB70F1
S31520004930FEBD019A0099204600F0EDFC08B900F072
S3152000494076FAFEBD2DE9F041064604240D46002EDA
S3152000495018BF002D0ED0287800F00F00C01E0828A2
S315200049603FD24FF480613046FFF7C8FB686803F0FA
S31520004970BDFA002870D06868083003F0B7FA00281E
S315200049806AD06A6806F58071002007F015FA0400DF
S3152000499062D12868DFF8A81AC0F3032000281CBFBC
S315200049A0012800204860286800F00F039B1E082B72
S315200049B052D8C0F30357032FC0F303610CD8DFE8A6
S315200049C007F002040609402708E0802706E04FF496
S315200049D0807703E0202701E0202F3DD300293BD01C
S315200049E0052939D2DFF85C0A0122706017FB01FC29
S315200049F0378200207182B260C6F80CC0736116E05F
S31520004A00B2F806C0B2F804E0E644B2F80AC0F445AB
S31520004A101CD31289D6F8C8E206EBC008401C0EFB50
S31520004A200CFC0EFB02F2C8F84420C8F840C098429D
S31520004A300CD2002805EB8002E2D1D6F8C8C2B7FB1B
S31520004A40FCFE01FB0EFE4FEA4E0EDEE74FF47F71B1
S31520004A50301D00F0B2FC30602046BDE8F081F8B58C
S31520004A600424074603F042FA00283D4654D005F2B6
S31520004A70FF35284603F03AFA00284DD03868DFF88B
S31520004A80C05942F22C016E18000F0C2846D1394627
S31520004A903046FFF757FF04003ED10020287042F22F
S31520004AA02C11681800F06AFC040035D1304600F05D
S31520004AB0ABFBC8B1DFF89049FF224FF48461204652
S31520004AC003F082FFDFF88409012160600022A160E3
S31520004AD040F21C412261201D00F06FFC2060304610
S31520004AE000F0BFFB040017D1304600F042FB040063
S31520004AF012D101206946287040F2011003F0D5F842
S31520004B00040009D100F026F8E81805681144CD60A4
S31520004B10C269806842438A602046F2BD7968DFF820
S31520004B20242991420FD14FF48061384600F038FC99
S31520004B300028F1D000204FF4806228703946304694
S31520004B4003F0B0F9ABE70B28E6D13846FFF7A1FE14
S31520004B500446E1E7009A142042F2EC23DFF8F0182D
S31520004B60424370472DE9FE4F92460425BAF1000FC5
S31520004B70034688464CD0DFF8C868307810B942F230
S31520004B80DD7545E0726842F2EC2177183968012A12
S31520004B90019118D1307B48B9F9698B4238D2B8686F
S31520004BA0B360327300244343009312E0B068BA68BE
S31520004BB0424301FB02331B1A0198B3FBF1F100912A
S31520004BC000FB113304E0B3FBF1F001FB103300903E
S31520004BD01C46684641F20D0900F023FC12E006F15E
S31520004BE00D0001192A46504603F05CF901992C194B
S31520004BF0A8EB0508AA448C4203D3009A641A521CD7
S31520004C0000920025B8F1000F11D10DB100203073AC
S31520004C102846BDE8FE8F084600F0E0FBF8B142F2D8
S31520004C2020003158491C315000985844009041F2D8
S31520004C3010050099725916F809008A4200D108BB5E
S31520004C40D7F808B0B1FBFBF118B1B2FBFBF08142FB
S31520004C5005D0F8698142DED342F2D875D6E7DDF871
S31520004C6000B00020396806F8090006F10D02584602
S31520004C7000F037FB20B9012146F805B006F80910E7
S31520004C800500C2D1019808EB040290422CBF45468C
S31520004C90051BA4E72DE9F84F93460424BBF1000F2A
S31520004CA005D0DFF89C773A7812B942F2DD7494E0A9
S31520004CB08946796842F2EC2342F21406FA58BD1965
S31520004CC001290646904640D1387BA0B9DFF88407F3
S31520004CD0C1698E42EBD2002201232A7092463B7391
S31520004CE0DFF87427BE60806846430096314608FB8D
S31520004CF0019111602FE03B44B8689968414302FB5B
S31520004D000162DFF85417121AB2FBF8F008FB102ADA
S31520004D1000900868824213D0287818B100F05AF91A
S31520004D20040058D1012042F2EC2238733A44BE6086
S31520004D30906831464FF0000A4143009108FB01F28A
S31520004D404A44DFF814170A6005E0B6FBF8F008FBC2
S31520004D5010660090B2460098A96D88423DD36846F9
S31520004D6000F05FFB1EE009EB0A00804507EB0A0016
S31520004D7041F214035946184434BFA8EB0A044C46A2
S31520004D802246A24403F08EF86868A9EB0409A344DE
S31520004D902018C245686004D30099AAEB080A491C6A
S31520004DA000910024B9F1000F06D113E0E868401CF9
S31520004DB0E860009976180096A96800982C788142B8
S31520004DC00ED16CB169685145CDD000F003F90028A9
S31520004DD0F2D004460CB1002038732046BDE8F28F8D
S31520004DE042F2EC223A449668B0FBF6F01CB1B1FBD5
S31520004DF0F6F188420AD0D169884202D342F2D874A9
S31520004E00E9E700F0EBFA0028D0D11CB100F0E2F877
S31520004E100400DFD1BAF1000F06D10020012268601C
S31520004E200099A9602A709EE744F62A64D3E7DFF842
S31520004E302C2600201178002918BF00F0CBB8704727
S31520004E4038B5DFF8FC450020617821B142F22C000C
S31520004E50204400F006FA42F214012144002241F2D5
S31520004E600D050A706255CA60227332BD2DE9F843DA
S31520004E700D46DFF8CC753978042411B942F2DD7479
S31520004E8041E00DB900243EE07B6842F2EC21394432
S31520004E90CE698A68012B08BF81460DD00968B0FB10
S31520004EA0F1F82818401EB0FBF1F0B8FBF2F9B0FB80
S31520004EB0F2F5A5EB09056D1C42F26C017B58B3FB9C
S31520004EC0F2F2914507D21EE0484600F056FA040059
S31520004ED003D16D1EC14625B90DE0484600F08FFA74
S31520004EE0C146B14507D2484609F1010800F076FAD5
S31520004EF00028E9D0F4E7787828B142F22C01781816
S31520004F0000F0AFF904462046BDE8F28370B5DFF81D
S31520004F103045207810B942F2DD7070BD42F208307B
S31520004F200025265800E06D1CB5420CD2284600F01C
S31520004F3055FA0028F7D1284600F01FFA0028F2D0AB
S31520004F4070BD002070BD60780028FAD042F22C0196
S31520004F50601800F086F90028F3D070BD002930B51E
S31520004F602ED0DFF8DC2442F2EC2342F27C141344E8
S31520004F70144450B1012811D0022811D0032814D08E
S31520004F80052815D0102818D01AE01078002814BF4C
S31520004F90002042F2DD700860002030BD0020FAE7D4
S31520004FA000F010F8ED0A0D60F6E71B680B60F3E7DA
S31520004FB01A68986842430A60EEE700F003F8F2E7C1
S31520004FC0042030BD25686368A268E0685D1955191C
S31520004FD0451970472DE9FE4FDFF8645442F214005C
S31520004FE042F2EC212E186F1872683B6842F2DB7889
S31520004FF09A421CBF00202873D6F808A000223270DF
S315200050000121504600F05CF8002848D0716841F232
S3152000501014022A44504600F07EF9002843D0B8688E
S31520005020BAFBF0F42046641C00F0E9F9F168F8694F
S315200050300190491CF16006E0204600F0E0F9F06896
S31520005040641C401CF06001998C422AD2204600F054
S31520005050C5F90028F3D1B868BAFBF0FB00FB0BFBBF
S3152000506060430090AAEB0B01491C00F029F8B0B16F
S31520005070DDF80090D345396817D205F10D02584660
S3152000508000F02FF9B8B9396805F10D02484600F04D
S3152000509042F980B90BF1010B09F10109EAE7404613
S315200050A001E042F2D870BDE8FE8F41F214002A18C2
S315200050B0484600F030F90028F5D04045BCD1F2E74B
S315200050C0F8B50546DFF8786342F2EC200C463758EF
S315200050D00CE0001DB84208D251F8042B12F1010F42
S315200050E0F7D00020F2BD0120F2BD641E002CFAD0BC
S315200050F006F10D02394628466D1C00F0F2F800280C
S31520005100EFD106F10D01E5E72DE9F041002705462F
S315200051100E46B846CA4C01E07F1CB044B8B2A8423D
S3152000512024D204F10D024FF48061404600F0D9F8F4
S31520005130002802BFD4F81100C249884204BFD4F81F
S315200051401520012AE8D14FF4806104F10D0000F00A
S3152000515027F90028E0D042F22C004FF4806204F1B7
S315200051600D01204402F09EFE002000E00120BDE853
S31520005170F0812DE9F84F054644F62968B5F81290D6
S31520005180B5F810A0D5F8C81200260027DFF8B0B26F
S3152000519009FB0AF0B0FBF1F44E452FD20BF10D02BC
S315200051A04FF48061384600F09CF858BB4FF480627B
S315200051B029460BF10D0006F0DFFA18BB761C574482
S315200051C0EAE73046761C00F0E6F8A642F9D300243A
S315200051D0002647464C4512D22A464FF48061304677
S315200051E000F099F800280FBF0027D5F8C802B6FBB3
S315200051F0F0F000F0D0F8641C5644EBE70027384660
S31520005200BDE8F28F0026E0E72DE9F0418E4C002123
S315200052106160458A068A0027D0F80C8001E07F1C51
S31520005220B044B8B2A84219D2082817DA22464FF459
S315200052308461404600F055F8002802BF6068834923
S31520005240884204BFA268012AE9D14FF4846120462E
S3152000525000F0A6F80028E2D0002000E00120BDE8FA
S31520005260F0812DE9F84F814644F62966B9F8128077
S31520005270B9F810A0D9F8C802D9F80C20002508FBE7
S315200052800AF1B2FBF0F4B1FBF0F703E000196D1C54
S3152000529000F081F8A8B2B842F8D36B4F40F21C4117
S315200052A0381D002500F089F83860D9F80CB0644C18
S315200052B0A8B2404512D23A464FF48461584600F0CF
S315200052C02AF810B96070002605E0D9F8C812BBFB91
S315200052D0F1F000F060F86D1CD344E9E73046BDE8F4
S315200052E0F28F2DE9F04105460C469046544F08E0D2
S315200052F042463146284600F045F850B9B044A41B32
S315200053006D1C34B142F2EC203E58A64228BF2646F8
S31520005310EEE7BDE8F0812DE9F84307460C469046B6
S31520005320474E12E006F10D022946384600F02AF8CB
S315200053305FEA00091ED12A4606F10D01404606F015
S315200053401BFAA8B9A844641B7F1C9CB142F2EC202E
S3152000535042F22C11355843463A463144A54228BFDD
S3152000536025460095002006F087FC0028DAD002E0CA
S31520005370012000E04846BDE8F2830CE0014600200B
S3152000538006F064BB80B513460091024634490020DE
S3152000539006F06EFB02BD02463149002006F00EBC27
S315200053A010B50446091F201D00F007F82268904218
S315200053B001D1012010BD002010BD3EB504460D468A
S315200053C001A806F061FE2A46214601A806F062FEE3
S315200053D0694601A806F073FE00983EBD30B51A4A0C
S315200053E00021136900E0491C994206D202EB810490
S315200053F0256A8542F7D1012030BD002030BD1249F3
S315200054000A69B2F5807F0AD201EB8202106208692E
S315200054100B4A401C08610121517000207047012071
S315200054207047074942F2200330B5CC5842F2F425A2
S315200054300268495901FB04220260002030BD0000A9
S31520005440B80E21204243464EE432212054424244A3
S31520005450C0802020A431212004372120CC2E2120D9
S31520005460E42F212030B504460420002C85B01EBF31
S31520005470DFF87424117800294BD023681D0F0B2DDB
S3152000548047D1C3F30361012902F543750DD00029E5
S315200054903FD1204603F0B6FA10B10021297038E03A
S315200054A0A26801236A602B7033E0297889B313F050
S315200054B00F0F2ED1002101200491039104A900F0A1
S315200054C0D0F930BB03A900F0BEF910BB01A9032017
S315200054D000F0C7F9E8B96C68049D694602A803F094
S315200054E0C8FA6519A8B9009A0399A418A14210D33D
S315200054F0019B5B1E1D420CD10199284607F01FF81F
S3152000550010B142F2DB7004E0029A0099284600F0BE
S31520005510CCF805B030BD38B503F070F9102801D0AD
S31520005520012032BDDFF8C053281D07F0B7F904006B
S3152000553008D1281D07F01EF8040003D100F0BFF99A
S3152000554001202870204632BDFEB5054602F0CEFC6D
S3152000555020B105F1FF0002F0C9FC08B90420FEBD08
S315200055602968DFF88803DFF8804381420DD14FF4A4
S3152000557080722946201D02F095FC0021201D2170F5
S3152000558006F0F8FF00286BD0FEBD080F0D285ED16F
S31520005590C1F3012000B9012021F4407141EA002124
S315200055A0201D296007F07AF900286ED1052004F124
S315200055B025061821207431702A7804F1450702F057
S315200055C003027A742868000AC10001F0180171707C
S315200055D02A68920A02F0010272722868000B00F013
S315200055E00700F0712868C0F3810002283874C4D1FE
S315200055F0AA8800F04BF8F075EA8800F047F8307674
S315200056002A8900F043F870766A8900F03FF8B07670
S31520005610AA8900F03BF8F076EA8A00F037F8B077EE
S315200056202A8B0121201D06F061FDF077EA8900F022
S315200056302DF838702A8A00F029F830776A8A00F027
S3152000564025F87077AA8A00F021F8787095E70B285C
S3152000565003D12846FFF706FFFEBD45F27C20FEBD9E
S3152000566000F02DF901A9012000F0FBF86946102071
S3152000567000F0F7F800989E49019A0A6483185B1E89
S3152000568001224B648A6400202270FEBD0021201D69
S3152000569006F02CBD10B5944C237813B942F2DD7078
S315200056A010BDBDE8104006F045B82DE9F843064682
S315200056B08D4D28780C46904610B942F2DD703CE0BC
S315200056C0304606F03CFFA8B342F2DB7035E005F524
S315200056D0827778683968002808BF00290CD195F8A8
S315200056E02610C908B6FBF1F201FB126111B142F294
S315200056F0DE7022E03E6002E04118B14217D1211847
S31520005700B1F5007F414694BFA146C0F500792844F3
S315200057104A4600F58670C84402F0C4FB78684E44B9
S31520005720A4EB09044844B0F5007F786002D100F06C
S3152000573045F810B9002CCAD10020BDE8F2832DE926
S31520005740FC41694E054630780C46174604EB0508A1
S3152000575010B942F2DD702CE000F02DF801A900F01E
S3152000576072F800998D4223BF01984218424545F2AE
S315200057706D201ED306F5867841468020401E41F8CE
S31520005780047BFBD19CB14FF400770020B4F5007F59
S31520005790C6F808014246284698BF27463946FFF7ED
S315200057A084FF002804BF7D19E41BEBD001E000F044
S315200057B005F8BDE8F6816946012052E010B54A4C4D
S315200057C0002004F5827253684BB111681060506056
S315200057D004F58672201DBDE8104006F01CBF10BDE2
S315200057E02DE9FF41404C064620780D46AF1910B9E9
S315200057F042F2DD7024E0FFF7DEFF01A9052000F06C
S3152000580030F802A900F01FF800998E4223BF0298B3
S315200058104218BA4245F26D2012D375B900200FE026
S3152000582000980199301AB0FBF1F1201D06F02DFFEA
S315200058305FEA000803D101988619BE42F0D340469C
S3152000584004B0BDE8F08110200BE0E0B501A9FFF718
S31520005850B3FF6946FFF7F7FF00990198FFF7C0FFEE
S315200058600EBD10B549B3204A02F1A40350B1012858
S3152000587011D0022812D0032816D0052816D01028B9
S3152000588017D01AE01078002814BF002042F2DD70ED
S315200058900860002010BD52690A60FAE75C689868C3
S315200058A04443A40A0C60F4E71A68F5E7586820B167
S315200058B0EEE75A6898684243EEE7042010BDE0B54B
S315200058C001A90520FFF7CDFF69461020FFF7C9FF84
S315200058D00548009A8169914204D2019BB1FBF3F1FC
S315200058E0C0F8AC1007BD00003007212053454D43BA
S315200058F0508020203EB502F081FF202801D00120D3
S315200059003EBD00F041FDDFF8044B44F2201025187F
S31520005910284607F0C0F870BB284607F007FE50BBA4
S31520005920694601A806F0F2FF009B019A002100209B
S3152000593000F047FCF8B944F220004FF48062A11C25
S31520005940204402F0AFFA284607F0F0FD98B9009BF4
S31520005950019A44F22C002158012000F032FC50B963
S315200059604FF48462A11CDFF8A80A02F09BFA0120FA
S31520005970207000F022FD3EBD2DE9FC4104460420A6
S31520005980002C1EBFDFF8845A2978002950D02268BF
S31520005990130F0B2B4CD144F21803C2F30361EE18FC
S315200059A001290DD0002943D1204603F02BF810B150
S315200059B0002131703CE0A26801237260337037E029
S315200059C03178A9B302F00F02082A1BD205EBC200D8
S315200059D044F2600144F2C012D6F80480AF5808445D
S315200059E069460668446801A803F043F807FB068663
S315200059F0F0B900988044B8FBF7F0844202D3791EB0
S31520005A000E4201D0042013E044F220100122B6FBFE
S31520005A10F7F1284407F07EFF10B142F2DB7007E071
S31520005A20019A0099304600F096F908B900F090FAEC
S31520005A30BDE8F6812DE9F84F07463C4602F056FAB6
S31520005A4028B104F2FF34204602F050FA08B90420A7
S31520005A50FDE0DFF8B84944F22C0044F22011251865
S31520005A6004EB01093946002000F090FB90B300209A
S31520005A7044F2200320704FF480623946E01802F089
S31520005A8011FA484607F052FD0028E1D1AB88EA8892
S31520005A9029680120DFF878694FF4846700F091FBCC
S31520005AA0002800F0C680FF223946304602F08CFFDF
S31520005AB0DFF86009012170600022B16040F21C41CC
S31520005AC03261301D00F04FFC306000F03FFA0028B4
S31520005AD0BED1B3E03968080F0D2840F0A080786861
S31520005AE010F00F0F14BF00F00F060126C0F3034875
S31520005AF0B8F1000FC1F3012008BF4FF0010800B92B
S31520005B00012021F4407141EA002139607968C1F30E
S31520005B100720002821F47F4108BF012041EA002107
S31520005B207960387810F00700D8BF45F2E4208FDD81
S31520005B30B8F1090F28BF45F2E5206FD2002020706A
S31520005B4000F022FC484606F0A6FF002834D144F295
S31520005B5072102044002144F229128172A1180523D3
S31520005B600022CB70C2720A703A7802F007020270E5
S31520005B703B68C3F3C002CA753A68C2F30212521CCC
S31520005B8042703B681B0ADA0002F018020A7639686E
S31520005B9044F25012090B01F00701A1543B681B0C7B
S31520005BA003F00103C3703968490C01F0010101714A
S31520005BB0484607F0BBFC002849D1796844F2C81E44
S31520005BC054F80E00BC46C1F3072A16FB0AFAC1F3A5
S31520005BD0072200FB02F900224FEA4A0A10E004EBF2
S31520005BE0C20144F2600754F80EB0521C39440789AA
S31520005BF00BFB07F74F60408954F80E707843086016
S31520005C00424526D20CEB82001AB1C188878807EB61
S31520005C10010A47895745E2D245F2E62017E00B28CC
S31520005C2004D13846FFF7A8FE88B92FE745F2E020D1
S31520005C300DE03A46A11C304602F034F9002000F06F
S31520005C40EEFA20B901202070BDE8F14FB5E3BDE89A
S31520005C50F28FEE8009FB06F6A5F804902E60C5F8B3
S31520005C60088013E72DE9F84F5FEA0208DFF89C6702
S31520005C7044F2C012054606EB02073C68009408BFB2
S31520005C800420B5FBF4F904FB195521D0327812B95A
S31520005C9042F2DD701CE044F21403BA68F45802FBA9
S31520005CA004990C4610E0B01C41195246404602F0B9
S31520005CB0F9F8009A5544A4EB0A04D044954224BF2F
S31520005CC0AD1A09F101090020002C42F2040A0BD179
S31520005CD0BDE8F28F484600F031FBF0B144F21400E3
S31520005CE0D9443158491C315056F80A1042F2020064
S31520005CF0305C494500D130BBD7F808B0B9FBFBF280
S31520005D0018B1B1FBFBF0824207D0F86839694843E5
S31520005D108242DFD342F2D870DAE742F2020B002049
S31520005D203B6806F80B0044F2201CB21C494606EBE1
S31520005D300C0007F08DFC20B9012146F80A9006F8E0
S31520005D400B100028C4D10098621990422CBFA2469D
S31520005D50A0EB050AA7E72DE9F84F5FEA02080746F8
S31520005D60DFF8A85644F2C012AC58009408BF0420AD
S31520005D70A146B7FBF9F904FB197747D02A7812B95F
S31520005D8042F2DD7042E044F20803EE18B26D91450E
S31520005D9038BF45F2E32039D344F2C0142C19F368F6
S31520005DA0A2688A4602FB03991CE000980AEB0701C9
S31520005DB042F208038842414634BFC41B5446E819C0
S31520005DC022461844E71902F06DF87268AAEB040A15
S31520005DD0A044A218726000998F4224BF7F1A09F14D
S31520005DE001090020BAF1000F04D10FE0F068D94470
S31520005DF0401CF060B0683478484509D144B17068D9
S31520005E00B842D2D000F00BF90028F3D0BDE8F28FCB
S31520005E1044F2C0116A18D2F808B0B9FBFBF11CB1E4
S31520005E20B0FBFBF081420DD0D0681269504381420D
S31520005E3002D342F2D870E9E7484600F07FFA0028FC
S31520005E40D4D11CB100F0EBF80028DFD137B90020FF
S31520005E5001217060C6F808903170A6E745F2D1207E
S31520005E60D4E72DE9F047DFF8A47544F2C0157C1974
S31520005E703A782569E3685D4312B942F2DD703AE06B
S31520005E8009B9002037E02368A268B0FBF3F60818AA
S31520005E90401E44F26001B6FBF2F9B0FBF3F07B58EA
S31520005EA0B0FBF2F6A6EB0906761CB3FBF2F291459F
S31520005EB009D245F2E3201EE0504600F05DF95FEA84
S31520005EC0000802D1761E86B102E0504600F08CFA18
S31520005ED0CA46AA4509D2A0680AF1010900FB0AF0C0
S31520005EE000F02CFA0028E7D0F2E7787810B100F01D
S31520005EF02DF880464046BDE8F08744F2C8122DE9C9
S31520005F00F041DFF808650025B7183078BC68796855
S31520005F104C4388B942F2DD7016E03868684300F0D9
S31520005F200DFA40B9284600F027F95FEA00081CBFA1
S31520005F30284600F059FA6D1CA542EED3707810B1B0
S31520005F4000F004F880464046BDE8F081012066E175
S31520005F50DFF8C42400201178002918BF00F05FB8AC
S31520005F60704738B5DFF8A4440020617809B1FFF7FF
S31520005F70EDFF44F208012144002242F202050A7094
S31520005F806255CA6032BD002930B52BD0DFF87C249B
S31520005F9044F2C013D41850B1012811D0022811D0D0
S31520005FA0032814D0052815D0102818D01AE0107808
S31520005FB0002814BF002042F2DD700860002030BDAA
S31520005FC00020FAE700F010F8AD0A0D60F6E7236826
S31520005FD00B60F3E7A268206842430A60EEE700F010
S31520005FE003F8F2E7042030BD2569E368A26820683B
S31520005FF05D43554345437047DFF8101401F584424D
S315200060001078002800D0704710B5002342F2020411
S3152000601042F204000B550B50891C516010BD2DE92E
S31520006020FE4FDFF8E84344F2080044F2C011251879
S315200060306618D5F808A03369F068B268434301931F
S315200060400020287068683168BAFBF2F8884207D0C9
S3152000605042F20803091A2344FF22184405F082FB62
S3152000606044F2201301225146E01807F053FC002881
S3152000607042F2DB7B48D1306842F2080162180146C1
S3152000608000FB0AF000F052F8002841D0404608F103
S31520006090010800F0A9F9E86805E0404600F0A4F9F7
S315200060A0E86808F10108401CE860019988452DD26E
S315200060B0B76807FB08F9484600F040F90028EFD1F9
S315200060C0BAFBF7F0474344F220102044494600909B
S315200060D0AAEB0702521C07F01DFCA8B957453168E8
S315200060E018D200980B46A21C394607F0B1FAC0B95F
S315200060F03068A21C014600FB09F000F017F880B9B1
S315200061007F1C09F10109E9E7584601E042F2D870FF
S31520006110BDE8FE8F42F20800221801FB0AF000F0CB
S3152000612005F80028F4D05845B7D1F1E72DE9F04716
S31520006130904644F2C015B54E08EB010972590C463B
S31520006140B0FBF2FAFFF758FF38460CE044F2201075
S315200061503B4642465146304407F0E6FA50B9B84429
S31520006160E41B0AF1010AC84504D27759BC4238BF5C
S315200061702746EBE7BDE8F08710B50446FFF73CFF5E
S315200061802146A648BDE8104007F066BB10B50C4670
S3152000619020B9A34A201D4FF47F7103E09D4A201D9C
S315200061A040F21C416368934204BFA268012A06D1CB
S315200061B000F0D9F82168884201D1012010BD0020C5
S315200061C010BD2DE9F04782460F46904D91469846E0
S315200061D04FF40051A81C07F0DDFB5FEA0A000CBF54
S315200061E04FF480644FF48464002601E04744761C13
S315200061F04E4511D244F2C010AA1C28582146784395
S31520006200FFF730FD0028F1D1A91C5046FFF7BEFF4D
S315200062100028EBD0002000E00120BDE8F0872DE922
S31520006220F84F804D84B06A8A2B8A0192019A029394
S31520006230012A06D953437C4AD2F808A0B3FBFAFABE
S3152000624001E04FF0010A8DF80000774CF8B90026DE
S31520006250B146B346DDF80480029FC14558D2206876
S31520006260724A4FF4806100FB0BF0FFF7FBFC00281D
S3152000627051D166484FF480622946801C05F07CFA8D
S31520006280002804BF09F10109BB44E6D043E0D5F854
S315200062900C90A0685E4D45F2E22703954FF4846882
S315200062A0B9FBF0F440F21C41281D00F05CF8286090
S315200062B0002503E028196D1CFFF75EFF5545F9D32D
S315200062C00024DDF804A0029D039EDFF85CB154454E
S315200062D032D2DBF800003246414600FB09F0FFF7D8
S315200062E025FF40B99DF80000012802D10021474A28
S315200062F05170002705E0DBF80800B9FBF0F0FFF746
S315200063003BFF641CA944E2E7002005B0BDE8F08FFE
S31520006310CDF8048002E0CDF80480012602970024FF
S31520006320002EA14645F2E12703954FF48068EBD075
S315200063304FF47F713E48B8E73846E6E770B53D4BE7
S3152000634001461C68324B00220020B1FBF4F11C6987
S3152000635000E0521CA24205D203EB82052E6AB1420E
S31520006360F7D1012070BD3EB504460D4601A805F0C3
S315200063708BFE2A46214601A805F08CFE694601A817
S3152000638005F09DFE00983EBD70B5204C44F22003DA
S31520006390E518FF224FF48061284602F015FB204EB7
S315200063A0012344F224006E60AB604FF47F712044D9
S315200063B0FFF7D9FF2860002070BD1CB569464FF451
S315200063C0807001F072FC70B9009A14201A49424379
S315200063D0154803680A44D3600469C16880684C4341
S315200063E044439460002016BD09490A69B2F5807FAE
S315200063F00AD201EB820210620869044A401C086135
S3152000640001215170002070470120704734BE2020A2
S3152000641054022120544242443CFE202054FF202096
S315200064204243464E54FE2020F4FF202036BE202034
S3152000643058FE2020FCFF2020C080202030B50446B6
S315200064400420002C85B01EBFDFF89825117800297E
S3152000645050D023681D0F0B2D4CD1C3F303610129A6
S3152000646002F23C450DD0002944D1204602F0CAFA5A
S3152000647010B1002129703DE0A26801236A602B70CB
S3152000648038E02978002935D013F00F0F32D10021BA
S3152000649001200491039104A900F068F950BB03A9D7
S315200064A0102000F063F928BB01A9032000F05EF953
S315200064B000BB6C68049D694602A802F0DAFA6519E9
S315200064C0C0B9009A0399A418A14213D3019B5B1E5D
S315200064D01D420FD10199284600F0B6F810B942F2B4
S315200064E0DB7007E0029A0099284600F017F808B9F1
S315200064F000F052F805B030BD0020DFF8E8148860BF
S31520006500704710B51346DFF8DC44227802B998E0CC
S315200065100A461946BDE8104007F078BA2DE9F84337
S315200065208046DFF8C05428780C469146D5F8287462
S3152000653010B942F2DD702DE0B7F5806F88BF4FF4B9
S31520006540806734B3A8686968002804BF0029C5F8A5
S31520006550048002D04118414516D121188F422CBF04
S3152000656026463E1A284400F10C01894504D03246BD
S3152000657049460C3001F096FCA868A41BB144B044EF
S315200065803018B842A860DCD100F006F80028D8D030
S3152000659000E00020BDE8F283F8B5DFF84864ADF5E9
S315200065A0806DB5680024DDB177687460B4602A46D2
S315200065B006F10C01384607F0A9FA040010D12A4644
S315200065C06946384607F022FA040009D12A46694668
S315200065D006F10C0005F0D0F810B142F2DF7000E0B1
S315200065E020460DF5806D01B0F0BD38B50D46044648
S315200065F0DFF8F013087810B942F2DD7032BD294673
S31520006600204607F01BFA40B92946204600F01CF820
S3152000661010B942F2DF7032BD002032BD10B5DFF86E
S31520006620C443207800B90CE007F049FA40B9D4F801
S31520006630241400F009F810B942F2DF7010BD0020D2
S3152000664010BD42F2DD7010BD70B5ADF5806D05460A
S315200066500C4610E0491CB1EB960F0AD250F8042BD9
S3152000666012F1010FF6D0002000E001200DF5806D1B
S3152000667070BDA41B7519002CF7D04FF48066B4F5B5
S31520006680806F6946284698BF2646324607F0BEF9EF
S3152000669068460021DFE72DE9F8430646042401F089
S315200066A025FC00285FD006F12B0001F01FFC0028F6
S315200066B059D03068DFF82C5305F5826805F20C476F
S315200066C0DFF82493000F0C281AD12C214046FDF721
S315200066D015FD4FF480300121B86005F58660022251
S315200066E0017042700323052106228370C470017154
S315200066F0314642714046C7F8049000F0D5F813E0C1
S315200067003068010F0B2904D13046FFF797FE044667
S3152000671029E0484527D12C214046FDF7EFFC2C22C5
S315200067203146404601F0BEFB00203C7B2870D7F85E
S31520006730108005F58360AD4E01F0F2FF204601F092
S31520006740A9FF3146204601F0DDFF4246314620466C
S3152000675000F034F8396805F5846007F01FF9040065
S3152000676004BF012028702046BDE8F28321B39D4A4C
S3152000677002F2244350B1012811D0022814D0032854
S315200067800FD0042814D0102814D015E01078002833
S3152000679014BF002042F2DD70086000207047002000
S315200067A0FAE75A680A60F8E71B689B0A0B60F4E769
S315200067B09868F1E71A68F5E70420704770B58CB041
S315200067C004460D46164607A891A1142201F06AFB3D
S315200067D01C216846FDF792FC00960821009B01913A
S315200067E083490022ADF80820B1FBF3F38DF80A2087
S315200067F00A46039313460099B2FBF1F1009A0491DD
S3152000680002218DF818106946B3FBF2F20592002298
S3152000681007AB8DF81920ADF81A2053F824002A4624
S3152000682007F0C6FA0CB070BD2DE9F0430746714853
S3152000683089B0884616460478457804A879A114229A
S3152000684001F030FBE946002000210022002389E8E0
S315200068500F004FF4801003900EB9012201E0032EA1
S3152000686005D12946204601F02FFF002019E0012EF0
S3152000687008BF019702D0022E08BF0097CDF80880E6
S3152000688004A8694650F8240007F0F6FBB0F5C87F47
S31520006890F6D030B100222946204601F015FF42F6F7
S315200068A0CD1009B0BDE8F08370B50B78524A03F0DD
S315200068B00F0302EB8304E56D85610B68C3F30313B5
S315200068C002EB8304256CC5610B68C3F3032352F8DE
S315200068D023204A4B42610C68240B04F00F04012C40
S315200068E002D0022C10D012E0012202744269B2F5C5
S315200068F0803F98BF102205D99A4202D218234374AA
S3152000690036E02022427433E00223037430E0002272
S315200069106024027400F12102D47145699D4213D28C
S315200069201823422443745471C369B3F5803F28BFAA
S31520006930D82316D2B3F5805F08BF202417D0B3F52D
S31520006940004F15D152230CE0202412254474132322
S315200069500026157053705671C369B3F5803F02D374
S31520006960DC23937104E0B3F5805F01D12124947177
S315200069700A68120D02F00F02521E032A0BD8DFE816
S3152000698002F002040608012206E0022204E00322A5
S3152000699002E0042200E0002202720A68120C02F0D1
S315200069A00F02012A06D004D3032A03D038BF0222BD
S315200069B000D3002242720A68C2F303627AB10979CF
S315200069C001F00F01012904D009D3032905D002D3F0
S315200069D005E00B4904E00B4902E00B4900E00B49B6
S315200069E0C16070BDAC8120206B736563005A620262
S315200069F000CA9A3BC485202038812020010000014E
S31520006A0080969800404B4C0080841E00002D31015A
S31520006A1000000000004039400080394000C0394065
S31520006A2000003A4000000000004039400080394014
S31520006A3000C0394000003A40F0B504460420002C3E
S31520006A4085B01FBFDFF8E45505F565763178002956
S31520006A5069D02268130F0B2B65D1C2F3036101297C
S31520006A600DD000295FD1204601F0CCFF10B10021C6
S31520006A70317558E0A2680123B261337553E0317D48
S31520006A80002950D012F00F0F4DD100210120049182
S31520006A90029104A900F02DFA002844D102A902206F
S31520006AA000F027FA00283ED10298DFF884154FF02F
S31520006AB0FF34884201A928BF0294052000F019FA64
S31520006AC088BBB769049E694603A801F0D2FFBE19A8
S31520006AD048BB009A0299BF18B94224D3019B5B1E7A
S31520006AE01E4220D195F80003019901280198019BA7
S31520006AF0B2FBF1F100FB112218BF00241000224640
S31520006B0018BF01204118B6FBF3F000F067FA10B960
S31520006B1042F2DB7007E0039A0099304600F043F911
S31520006B2008B900F095F905B0F0BD3EB5DFF8FC4494
S31520006B30DFF8001521600E20FCF7A9FE0546DFF8D8
S31520006B40F804FCF78CFE401C40F2FF11B5FBF0F078
S31520006B50606004F55B750222A9846A84204607F0EA
S31520006B600FFCE8B9204608F015FCB0B901A940F29F
S31520006B70211001F09AF898B900F013F880B9019B1A
S31520006B801421DFF8B8242D684B43D118CD60009A24
S31520006B908A60012184F894133EBD002384F894333F
S31520006BA03EBD694620464DE27FB5054601F09EF979
S31520006BB068B1E81D01F09AF948B12868000F0B2842
S31520006BC003D12846FFF738FF02E00C2802D0042024
S31520006BD004B070BDDFF854444FF46C712046FDF7C5
S31520006BE08DFADFF8500420600E20FCF750FE064692
S31520006BF0DFF84404FCF733FE401C0222B6FBF0F01B
S31520006C00606004F55B76728440F2FF11B1842868D7
S31520006C1004F12801030B000A03F00F0300F00F0014
S31520006C200B7048706868C20C02F001020A7341F2C8
S31520006C308832C30D000E00F0030003F00103012883
S31520006C404B7340F6C41306D002D3032808D005D3CD
S31520006C5044F6206005E042F2107002E0104600E0A3
S31520006C60184648606868C0F3005000B11A468A602A
S31520006C706868800C00F001008873204608F08AFBC3
S31520006C800028A5D129682046090E01F0070108F041
S31520006C9099FD00289CD103A9FFF784FF002897D1EE
S31520006CA002A940F2211001F000F8002890D1029BA1
S31520006CB01421DFF8882336684B43D118CE60039A17
S31520006CC08A602968CB071DD5C1F30112080C8DF8FF
S31520006CD0042000F003000A0D8B08C90801F0010109
S31520006CE08DF8030002F0070203F001038DF802106D
S31520006CF08DF8012069468DF80030204608F074FE94
S31520006D00002802D1012184F8941361E72DE9F84F78
S31520006D10DFF81893824609F565760C46307890465A
S31520006D2010B942F2DD703CE04FEA5A2509F56C7045
S31520006D30AAEB45254FEA5A2700900FE000985A46BD
S31520006D40A4EB0B044119404601F0ACF85D44B5F5BF
S31520006D50007FD84424BFA5F500757F1C04B3707846
S31520006D6078B1706887420CD3411C8F4209D2AAEBB6
S31520006D7040256019B0F5007F94BFA346C5F5007B7A
S31520006D80DCE700200099707001233A46484608F057
S31520006D9038FD002802BF012070707760E9D000E03E
S31520006DA00020BDE8F28F2DE9F84FDFF8809209F533
S31520006DB065773B7813B942F2DD703EE082464FEAB2
S31520006DC05A26AAEB46264FEA5A240D46904613E049
S31520006DD009F5B66041465A46801901F063F8F9680C
S31520006DE05E44B6F5007FA5EB0B05D8445944F960FF
S31520006DF024BFA6F50076641CF5B1387A18B3386935
S31520006E0084421CD3411C8C4219D2AAEB4026F86836
S31520006E10B04209D000F09AF80028EED00DE000200C
S31520006E200121F8603C613972A819B0F5007F94BF42
S31520006E30AB46C6F5007BCBE70020BDE8F28F00F01D
S31520006E4085F80028F9D1002EE9D042F2DE70F4E769
S31520006E50764A002092F89C13002918BF00F076B8D5
S31520006E60704777480021C17101700020704770B5C6
S31520006E7006466E4D95F894030C4610B942F2DD7025
S31520006E8070BD284608F096FC10B142F2E07070BD45
S31520006E9094B105F55B70A419C1690068641EB4FB42
S31520006EA0F0F2B2FBF1F2B6FBF0F0B0FBF1F12846BE
S31520006EB0BDE8704008F0EABC70BD38B55B4C04F5FF
S31520006EC06275287B10B942F2DD7032BD204608F08B
S31520006ED071FC10B142F2E07032BDFFF762FE38B9A4
S31520006EE000982968B0FBF1F20021204608F0CEFC7C
S31520006EF032BD38B50C0027D04C4D30B101280ED00C
S31520006F0002280ED005281BD01EE095F894030028F1
S31520006F1014BF002042F2DD702060002032BD002028
S31520006F20FAE76946284600F08DF80028F6D1009A3F
S31520006F30D5F86C13A1FB0201800A40EA8150EBE7E9
S31520006F40D5F86C232260E8E7042032BDF8B5374C2B
S31520006F50204608F02FFC10B142F2E070F2BD04F595
S31520006F60677504F5B66668684FF0FF37B0F5007FA1
S31520006F700AD094F800130129C0F5007130440CBFE3
S31520006F803A46002204F0EEFB94F800130020287005
S31520006F90A868012918BF00273A46012100F01EF8EB
S31520006FA010B942F2DB70F2BDAA68012331462046B1
S31520006FB008F040FC88B9AA6804F56C7701233946A5
S31520006FC0204608F01EFC40B94FF400723946304680
S31520006FD004F0D2FB08B142F2DF70F2BD2DE9F8438E
S31520006FE005460C461646DFF8448017E008F56C790E
S31520006FF03B462A464946404608F003FC40B900E095
S31520007000001DB0EB472F08D259F8041BB142F7D028
S31520007010002000E00120BDE8F283E41B002CF9D01B
S31520007020012C8CBF01272746E0E700009CAC2020DE
S315200070300100400000402C4024F00080C080202029
S3152000704031B0202000F55C70027F072A14D8DFE8D3
S3152000705002F0040808130B0D0F11006808600020C9
S31520007060704742680A60FAE78068F7E7C268F9E77E
S315200070700069F3E74269F5E704207047F0B5044656
S315200070800420002C85B01FBFDFF8242502F1AA05B5
S31520007090A97D00296AD023681E0F0B2E66D1C3F363
S315200070A00361012902F1D4060DD000295ED12046C4
S315200070B001F0A8FC10B10021317057E0A26801232D
S315200070C07260337052E0317800294FD013F00F0FE1
S315200070D04CD1002101200491029104A900F0D3F99A
S315200070E0002843D102A9022000F0CDF900283DD185
S315200070F00298DFF8C0144FF0FF34884201A928BF58
S315200071000294052000F0BFF980BB7768049E69468B
S3152000711003A801F0AEFCBE1940BB009A0299BF1825
S31520007120B94223D3019B5B1E1E421FD12878019BA7
S31520007130C10701990198B2FBF1F158BF002400FB69
S3152000714011221000224618BF01204118B6FBF3F089
S3152000715000F006FA10B942F2DB7007E0039A0099B4
S31520007160304600F0F1F808B900F043F905B0F0BD5B
S3152000717038B5DFF83C44DFF8401421600E20FCF7D8
S3152000718086FB0546DFF83404FCF769FB401CB5FB9B
S31520007190F0F06060204607F045F960B92046B43427
S315200071A009F072FA28B900F070F820B900F072F8E8
S315200071B032BD0023237332BD7CB5044600F096FE13
S315200071C068B1E01C00F092FE48B12068000F0B2841
S315200071D003D12046FFF752FF76BD0D2801D00420AB
S315200071E076BDDFF8CC53DC212846FCF787FFDFF895
S315200071F0C80328600E20FCF74AFB0646DFF8BC03CE
S31520007200FCF72DFB401C05F12801B6FBF0F0686069
S315200072102068020B02F007020A70C20D030AC60C90
S31520007220000E00F0030003F0010302F00102012822
S315200072304B7006F001064A730E7341F2883240F60F
S31520007240C41306D002D3032808D005D344F6206001
S3152000725005E042F2107002E0104600E01846486051
S315200072602068C0F3005000B11A468A60284609F00B
S315200072700BFA05F1B40428B900F007F820B900F09C
S3152000728009F876BD0023237376BD69464FF49070C6
S3152000729000F00BBD009B1421DFF8242365684B43C7
S315200072A0D118CD6022688A600121217370472DE9AB
S315200072B0F84FDFF8FC92824609F1C0060C4630787A
S315200072C0904610B942F2DD703CE04FEA5A2509F1AA
S315200072D0DC00AAEB45254FEA5A2700900FE00098DC
S315200072E05A46A4EB0B044119404600F0DBFD5D44F1
S315200072F0B5F5007FD84424BFA5F500757F1C04B3DF
S31520007300707878B1706887420CD3411C8F4209D2BD
S31520007310AAEB40256019B0F5007F94BFA346C5F5BA
S31520007320007BDCE700200099707001233A4648462E
S3152000733009F00CFC002802BF012070707760E9D0AC
S3152000734000E00020BDE8F28F2DE9F84FDFF86092CB
S3152000735009F1C0073B7813B942F2DD703EE0824660
S315200073604FEA5A26AAEB46264FEA5A240D4690465D
S3152000737013E009F5377041465A46801900F092FD10
S31520007380F9685E44B6F5007FA5EB0B05D844594451
S31520007390F96024BFA6F50076641CF5B1387A18B3D7
S315200073A03869A0421CD1411C8C4219D2AAEB402636
S315200073B0F868B04209D000F089F80028EED00DE038
S315200073C000200121F8603C613972A819B0F5007FD0
S315200073D094BFAB46C6F5007BCBE70020BDE8F28F15
S315200073E000F074F80028F9D1002EE9D042F2DE70C0
S315200073F0F4E76F4A002092F8C810002918BF00F061
S3152000740065B870476F480021C17101700020704730
S3152000741070B50546664E96F8C0000C4610B942F285
S31520007420DD7070BD304609F089FB10B142F2E07084
S3152000743070BD54B1690A65196D1E3046C1EB5522DF
S31520007440BDE87040521C09F0CABB70BD38B5584C17
S3152000745004F1B405287B10B942F2DD7032BD204616
S3152000746009F06CFB10B142F2E07032BD2868696801
S31520007470A1FB002320460021520A42EAC352BDE85E
S31520007480384009F0ACBB10B5F1B14F4A30B10128F4
S315200074900DD002280DD0052814D015E0107B002829
S315200074A014BF002042F2DD700860002010BD0020CD
S315200074B0FAE714685368A3FB0423920A42EA83522C
S315200074C00A60F2E75068EFE7042010BD2DE9F0418D
S315200074D0374C204609F032FB10B142F2E0703DE015
S315200074E004F1CC0504F53776286804F1AA074FF095
S315200074F0FF38B0F5007F09D03978CA07C0F500718A
