S0130000696C65645F626C696E6B792E737265638B
S113200000800020094B00006F3800007338000086
S11320107B390000B3390000574100000000000084
S113202000000000000000000000000097420000D3
S1132030A34B000000000000AF4B0000F54200007D
S1132040994D0000A14D0000A94D0000B14D0000C4
S1132050B94D0000C14D0000C94D0000D14D000034
S1132060D94D0000E14D0000E94D0000F14D0000A4
S1132070F94D0000014E0000094E0000114E000011
S1132080194E0000954E0000954E0000954E00003C
S1132090214E0000294E0000314E0000394E000050
S11320A0954E0000954E0000414E0000954E0000F4
S11320B0494E0000514E0000954E0000954E000020
S11320C0594E0000614E0000954E0000954E0000F0
S11320D0954E0000954E0000954E0000954E000070
S11320E0954E0000954E0000954E0000954E000060
S11320F0954E0000954E0000954E0000954E000050
S1132100954E0000954E0000954E0000954E00003F
S1132110954E0000954E0000954E0000954E00002F
S1132120694E0000954E0000714E0000794E00008B
S1132130814E0000954E0000954E0000954E000023
S1132140954E0000954E0000954E0000954E0000FF
S1132150894E0000954E0000954E0000954E0000FB
S1132160954E0000954E0000954E0000954E0000DF
S1132170954E0000954E0000954E0000954E0000CF
S1132180954E0000954E0000954E0000954E0000BF
S1132190954E0000954E0000954E0000954E0000AF
S11323F0954E0000954E0000954E0000FFFFFFFF34
S1132400F8B504000D00C4F38566DFF8000504F098
S1132410FF0141180968C4F34C3223001B1213F066
S11324201F039A4091432200121212F01F0215FA60
S113243002F2C4F34C3327003F1217F01F07BB40CE
S11324401A40114304F0FF0280180160212E09D3C1
S11324504FF43372DFF8B814DFF8B80400F0CCFAA4
S1132460AFF30080202E05D0DFF8AC040068F04004
S1132470C007F9D4F1BDF8B504000D00C4F38566B6
S1132480DFF8880404F0FF0141180968C4F34C32F2
S113249023001B1213F01F039A40914322001212CF
S11324A012F01F0215FA02F2C4F34C3327003F1254
S11324B017F01F07BB401A40114304F0FF028018B5
S11324C00160212E09D340F2F122DFF84414DFF831
S11324D0440400F091FAAFF30080202E05D0DFF819
S11324E038040068F040C007F9D4F1BDF8B5040021
S11324F00F0025002DB22D0A260036B216F01F0655
S1132500072D09D340F21332DFF80414DFF80C046A
S113251000F072FAAFF30080DFF8040400EB8500EA
S113252001680322B24091433A00D2B2B24011434F
S11325300160F1BD10B504000021200000B2FFF7D6
S1132540D5FF10BDDFF8DC1308607047DFF8D8133F
S11325500860704710B41300DBB2002B07D0C1F33E
S11325600B431B181B1D5FF480341C6006E0C1F391
S11325700B431B1808335FF480341C6010BC704795
S113258010B40B00DBB2042B0CDB446803238B4038
S113259034EA03031400E4B214F003048C401C4333
S11325A044600BE0446807238B4034EA03031400BF
S11325B0E4B214F007048C401C43446010BC704720
S11325C030B48468D94B1C400B00DBB29B0613F07B
S11325D0806323431500EDB253EA0543836030BCA6
S11325E0704738B54FF40040FFF7B0FFD04801689A
S11325F051F480310160016831F400310160CD484B
S1132600FFF7A0FF002000F035FA00F066FA012081
S113261000F055FABD480168090A090251F07F012A
S11326200160C54C01212000FFF7EAFEC34D0121E2
S11326302800FFF7E5FEC24801684909490151F045
S113264012010160BF4800680028FBD50021BE4884
S1132650FFF711FF4FF48870FFF76CFF40F216206C
S1132660FFF768FF0321B948FFF705FF4FF48A70AD
S1132670FFF760FF4FF48B70FFF75CFF1820FFF744
S113268059FF1A20FFF756FF4FF48670FFF752FFE9
S11326900121AF48FFF7EFFE40F20A60FFF74AFF5F
S11326A00321AC48FFF7E7FE0021AB48FFF7A8FE83
S11326B00021AA48FFF7A4FEA948016821F00041BF
S11326C001600B21A748FFF7D6FE4FF48070FFF797
S11326D031FF4FF48170FFF72DFF0421A248FFF76B
S11326E0CAFE0221A148FFF78BFE1620FFF722FF46
S11326F002219F48FFF7BFFE02219E48FFF780FE9C
S113270040F21250FFF716FF03219B48FFF7B3FE78
S113271001219A48FFF7AFFE00219948FFF770FEA8
S113272040F21650FFF706FF03219648FFF7A3FE79
S113273001219548FFF79FFE00219448FFF760FEB2
S113274040F20620FFF7F6FE4FF40270FFF7F2FEA8
S113275000218F48FFF78FFE00218E48FFF750FEBF
S11327604FF4A360FFF7E6FE1C20FFF7E3FE0C2006
S1132770FFF7E0FE4FF48C70FFF7DCFE0021864883
S1132780FFF779FE00218548FFF73AFE40F20E502C
S1132790FFF7D0FE01218248FFF76DFE0721814833
S11327A0FFF769FE03218048FFF72AFE40F202503A
S11327B0FFF7C0FE01217D48FFF75DFE07217C483D
S11327C0FFF759FE03217B48FFF71AFE00217A48E0
S11327D0FFF716FE794800F087F91B21002000F06E
S11327E086FA1021012000F082FA1821022000F05C
S11327F07EFA1421032000F07AFA714800F0AEF951
S11328000C21002000F093FA1021012000F08FFA2F
S11328101121022000F08BFA1321032000F087FA23
S11328206848016831F04001016000F0B7F9012205
S113283065496648FFF78EFE6548016831F400413A
S11328400160016831F4000101606248016851F4DB
S113285000510160604800F0A7F903215F48FFF7C9
S1132860CFFD00212800FFF7CBFD00212000FFF75A
S1132870C7FD00215A48FFF7C3FD5A48016831F0EB
S11328807001016001680909090151F00101016049
S1132890016831F460010160016831F4F81151F408
S11328A090110160016831F480710160016831F0B8
S11328B080010160016831F0807101604A4C00229E
S11328C000212000FFF75CFE002203212000FFF717
S11328D057FE002206212000FFF752FE00220A21A3
S11328E02000FFF74DFE002200212000FFF768FEC4
S11328F03E48016831F080510160016831F00051B7
S113290001603B483B49086031BD000000C00F40F6
S113291074460000E04B000048C00F409C4C00008F
S113292068C00F400400002008000020FFFF00FBE7
S1132930C0820D4000366E01186C008014390014FA
S11329400C0008400000084014EA000414680080E9
S11329501CE007801CF700801C7D00801C3F008069
S113296020C00F4020FB018018FA01801864008009
S113297024F90180186E008028E6008028E0078092
S11329801C6A008028F6008028F007801C6E0080F6
S113299038F307803832008024E007802466008002
S11329A030F9008030F600803074008028E900801F
S11329B028F90180207300800C200080104C000056
S11329C05635000010800D400D00700000800D4051
S11329D070810D4070800D40384D000018720080E9
S11329E01C26008060C00F4000C00A4014C00A408A
S11329F00065CD1D0000002070B504000D00160018
S1132A0033002A002100024800F0AAFA00BEFDE7C4
S1132A10104A0000DFF858030068C00602D5DFF84A
S1132A20540302E0DFF85003006870470901090D00
S1132A3008180068000C10F0010070470A00120129
S1132A40120D1018006811F01F01C84010F00100A9
S1132A50704738B504000D0028000001000D00196E
S1132A600068C0F38130002802D1FFF7D3FF00E0F3
S1132A70002032BD10B504002000C0B2002808D0E8
S1132A809722DFF80413DFF80403FFF7B5FFAFF371
S1132A900080DFF8FC025FF080410160DFF8D012B3
S1132AA00968C903FAD55FF48031DFF8E8221160C0
S1132AB0DFF8E42212681204FAD5016010BD0100A7
S1132AC0C9B2002904D11021DFF8D022116003E03B
S1132AD01021DFF8CC2211607047DFF894020168FE
S1132AE051F0010101607047DFF8C422116831F42C
S1132AF04041037B9B0313F44043194351F4803159
S1132B0011601368DFF8AC120B40017811F0010179
S1132B100B4353F400531360416821F04041DFF844
S1132B2098321960816821F04041DFF890321960D1
S1132B30418A4904490C037CDB0313F40043194321
S1132B40C38951EA0341DFF878321960116800291A
S1132B50FCD5116831F4803111607047DFF84C12F4
S1132B600A6832F4404243789B0313F440431A4307
S1132B7052F480320A600A6832F0020203785B0081
S1132B8013F002031A4352F441520A600A68002AFD
S1132B90FCD50A6832F480320A6070474FF48050E2
S1132BA0DFF820120860704710B40022DFF82832E2
S1132BB0196831F440410479A40314F440442143D6
S1132BC051F4803119604178002901D052F4800217
S1132BD0196831F480511143196019680029FCD532
S1132BE0196831F48031196010BC70472DE9F8433D
S1132BF00700DFF8E89139004846FFF71FFF002877
S1132C0001D1002071E039004846FFF722FF060099
S1132C1039004846FFF70AFF002801D0300064E07D
S1132C2038005649884221D05549884206D05E4929
S1132C30884225D05B49884254D055E05E480068FC
S1132C40A0FB06015D4A1268002300F0BFF90400EE
S1132C500D0057480068C00703D5162046433000CE
S1132C6002E014204643300020183EE04F4800683C
S1132C70800701D5162000E014204643300034E0DC
S1132C80DFF84091D9F8000010F07F0080464E48EC
S1132C900068A0FB06014D4A1268002300F096F973
S1132CA004000D0008FB06463000D9F8001011F4AA
S1132CB0C011002903D0B1F5002F02D003E0800831
S1132CC001E04008FFE743490A6841490A40B2F578
S1132CD0004F04D03E498A4203D1800801E04008F5
S1132CE0FFE702E0274800E00020BDE8F28370B46B
S1132CF00300DBB23A4D2A68BF261C00E4B2E400AC
S1132D0016FA04F432EA040480261A00D2B2D2007D
S1132D10964026432E600E00F6B216F03F061A00C7
S1132D20D2B2D200964026432E6070BC704770B475
S1132D300300DBB22B4D2A68BF261C00E4B2E4007A
S1132D4016FA04F432EA040480261A00D2B2D2003D
S1132D50964026432E600E00F6B216F03F061A0087
S1132D60D2B2D200964026432E6070BC7047000059
S1132D7070820D4000366E01040000200D0010002A
S1132D800D0030000065CD1DD04600004C4C000005
S1132D9058810D4054810D4050810D4074820D4086
S1132DA078820D401600E0000D00700010800D4088
S1132DB030800D40FEEFFFFF50800D4060800D40DD
S1132DC040800D4070800D4080800D4090800D400B
S1132DD00080800070810D40E0800D4000800D4037
S1132DE000810D40F0800D4070B505000C0043F2E9
S1132DF02156002D07D140F2D1126B496B48FFF7E1
S1132E00FBFDAFF30080002C07D14FF4E972664953
S1132E106748FFF7F1FDAFF3008022002900654801
S1132E2000F0ECFA002801D05FF0FF34200070BD00
S1132E302DE9F04104000D0016001F0000205FF092
S1132E400008B84511DA2868401C802805D3296891
S1132E502000FFF7C9FF002028602868265428684E
S1132E60401C286018F10108EBE7BDE8F0812DE96A
S1132E70F14F88B00E001700984643F2215568467A
S1132E804D49102200F0D4FACDF8008001969DF847
S1132E9020008DF80A008DF818703800C0B201289F
S1132EA018D1684607905FF01C0A5FF0000BDFF84A
S1132EB00C914C465A465146200000F019FBC9F8C3
S1132EC0109004A9D9F8100000F0FAF90400002CBD
S1132ED014D11BE03800C0B2022801D128003CE024
S1132EE03800C0B2032801D1280036E03800C0B24F
S1132EF0042801D1280030E028002EE04FF433727A
S1132F0029492F48FFF778FDAFF3008019F1140128
S1132F10D9F8100000F009FA0500002D07D040F29E
S1132F20D62221492648FFF767FDAFF3008019F147
S1132F301801D9F8100000F029FA0400002C07D079
S1132F4040F2E12218491E48FFF756FDAFF3008016
S1132F50D9F810001B490860002009B0BDE8F08FC3
S1132F600EB42DE9F841A0B00400002500266846FF
S1132F70802100F0F1FA13480068002801D10020F4
S1132F800BE027AF104B6A463900200000F047FBE6
S1132F90804641466846FFF727FF21B0BDE8F001AF
S1132FA05DF810FB0000000040450000404D0000AB
S1132FB0A84C0000200000205C4C00000C00002005
S1132FC0684A000028000020312E0000BBBBE1B19C
S1132FD0B2F5803F80F07E80022A1ED98C46B1FB78
S1132FE0F2F102FB11C31B0443EA1043B3FBF2FCEE
S1132FF002FB1C3380B240EA0343B3FBF2F002FB52
S1133000103240EA0C4000237047022A05D9844656
S1133010B0FBF2F002FB10C270474AB105D100F0D8
S1133020010249085FEA300070470022002370471C
S113303000F01EBC0B0002000021002070479042EB
S113304071EB030CF6D3B3F5803F2FD2F0B5B3FA8E
S113305083F7B1FA81F4A7F10F0E3D1B5340CEF173
S1133060200602FA0EF2F3415340B5F10F0746D899
S11330700F3C2C444140C4F12006A040F1414140A2
S1133080B1FBF3F603FB1611A2FB0645001BA94195
S113309002D2761E8018594180EA010221FA0EF309
S11330A062FA0EF200215A403046F0BD30B4B1FB52
S11330B0F3FC03FB1C11A2FB0C45001BA94103D22A
S11330C0ACF1010C8018594130BC02460B466046F5
S11330D000217047B2F1807F65D3F0B5B2FA82F770
S11330E0B1FA81F4C7F10F063D1B22FA06F307F18A
S11330F0110EF24120355A40B5F10F07B8D94140BD
S1133100C4F12006A040F1414140B1FBF3FC03FBB4
S11331101C11A2FB0C45001BA94103D2BCF1010CFC
S1133120801859410F2F12D30F3FC90341EA504170
S1133130B1FBF3F603FB1611A2FB0645D4EBC0303A
S1133140A94102D2761E8018594146EACC3C07B305
S11331504140C7F12006B840F1414140B1FBF3F6CC
S113316003FB1611A2FB0645001BA94102D2761EE1
S11331708018594180EA010221FA0EF3C7F12004B4
S113318062FA0EF20CFA07F05A402CFA04F13043BA
S1133190F0BD80EA010221FA0EF3002162FA0EF278
S11331A060465A40F0BD8C46B1FBF2F102FB11C3FC
S11331B01B0243EA1063B3FBF2FC02FB1C331B0249
S11331C04CEA002043EA1063B3FBF2FC02FB1C331D
S11331D01B024CEA002043EA1063B3FBF2FC02FB3F
S11331E01C331B024CEA002043EA1063B3FBF2FCDD
S11331F002FB1C324CEA002000237047EFF31080DE
S113320072B6704780F3108870472DE9F0410500CD
S11332100C0016001F0043F221508046002C0BD0F6
S1133220297B012907D13A00310015F1080000F08B
S113323058FB804600E08046404600B2BDE8F0817D
S11332402DE9F04107000E001500002F09D140F2CE
S11332500E32DFF8BC11DFF8BC01FFF7CDFBAFF392
S11332600080002E09D140F20F32DFF8A411DFF8FC
S1133270A801FFF7C1FBAFF30080002D09D14FF483
S11332804472DFF88C11DFF89401FFF7B5FBAFF35C
S11332900080B846D8F80040002C09D140F215321D
S11332A0DFF86C11DFF87801FFF7A6FBAFF30080BD
S11332B02B00320041462000FFF7A7FFBDE8F08154
S11332C02DE9F04704000D0043F22156002D07D1EB
S11332D040F231324E495448FFF78EFBAFF3008081
S11332E0002C07D140F2363249495048FFF784FB9D
S11332F0AFF3008027005FF010085FF00009BA46C2
S11333004A464146504600F0F3F8287A3873287A42
S1133310012806D1E96817F1080000F0ABFA0600AD
S1133320FFE7300000B2BDE8F0872DE9F047040064
S11333300D00002C07D140F2E73235493B48FFF736
S11333405BFBAFF30080002D07D14FF47A72304954
S11333503048FFF751FBAFF3008026002F005FF0E9
S113336004085FF00009AA464A464146504600F068
S1133370BFF8FFF743FF82467068401C70605046F8
S1133380FFF740FF3E600020BDE8F0872DE9F84FCD
S113339004000D00002C07D140F221421C492348AF
S11333A0FFF72AFBAFF30080002D07D140F2224241
S11333B017491C48FFF720FBAFF3008026002F00BD
S11333C0FFF71CFF80463068002805D04046FFF711
S11333D019FF43F222500FE037604046FFF712FF17
S11333E05FF004095FF0000AAB465246494658466E
S11333F000F07EF83E600020BDE8F28F70B5040056
S11334000D001600320029002000FFF719FF70BDDF
S1133410B4450000144D0000684D0000704D0000DC
S1133420784D0000204D0000804D00006C4C0000E1
S1133430103A07D330B4B1E83810103AA0E8381085
S1133440F9D230BC530724BFB1E80810A0E8081033
S113345044BF51F8043B40F8043BD20724BF31F881
S1133460022B20F8022B44BF0B7803707047121F05
S113347017D35B0009D151F8043B20F8023B1B0C25
S1133480121F20F8023BF6D20BE051F8043B00F87F
S1133490013B1B0A20F8023B1B0C121F00F8013BE6
S11334A0F3D238BF121D521E24BF11F8013B00F89D
S11334B0013BF8D8704730B4002513E050F8042BD2
S11334C0D30744BFA9F101039A18091F042942F83C
S11334D0045BFAD213468C0744BF15809B1CC907B2
S11334E048BF1D7050F8041B0029E7D130BC704759
S11334F062F30F2262F31F42401810F0030308D056
S1133500C91A1FD3DB0748BF00F8012D28BF20F8D4
S1133510022D130030B414461546103928BF20E993
S11335203C00FAD8490728BF20E90C0048BF40F8FE
S1133530042D890028BF20F8022D48BF00F8012D72
S113354030BC7047C91818BF00F8012DCB0728BF3D
S113355000F8012D70470000002200F0F5B92DE9B4
S1133560F04F84460D001400099E0020E2465FF0EF
S1133570000B8AF800B01AF1010A002C24D0D5F807
S113358000B05946002905D15FF0300B8AF800B02D
S1133590401C42E0002940D091FBF3FBDE4603FBD4
S11335A01E1BBBF1000F05D55F467FEA070919F121
S11335B0310902E0D94619F1300971468AF80090C0
S11335C01AF1010A401CE5E7D5F800B05A46002A72
S11335D005D15FF0300B8AF800B0401C1DE0002AD2
S11335E01BD0B2FBF3FBD84603FB182BBBF10A0F2D
S11335F002D25F46303709E03700FFB2002F01D016
S1133600412700E061270A3F17EB0B0742468AF87F
S113361000701AF1010A401CE1E7BDE8F08F2DE9C2
S1133620F54F91B08B461F0000265FF00008002084
S1133630029000208DF8040000200490DDF844A0DE
S11336409AF800000500002D00F00D81252D07D00B
S1133650012328000200D2B202A91298B847FFE061
S113366001208DF805000020814600200390039876
S1133670002813D11AF1010A9AF800000500302D30
S113368007DB3A2D05DA0A21B5F1300001FB0909FF
S1133690EDE7BAF1010A01200390E8E7062005905E
S11336A01AF1010108782E2819D100200590002074
S11336B003900398002813D1491C08780500302D85
S11336C009DB3A2D07DA059A0A23B5F1300003FB2A
S11336D002020592EDE7491E01200390E9E7491E25
S11336E011F1010A9AF800000500642D11D0692D2A
S11336F00FD0662D0DD0462D0BD0782D09D0582D26
S113370007D06F2D05D0622D03D0702D01D0752DFB
S113371072D1642D01D0692D11D1DBF800001BF1A9
S1133720040B06909DF8050000900A23012206A9C7
S113373008A8FFF714FF804608A840440600582D47
S113374001D0782D16D1782D02D100208DF80500F6
S1133750DBF800001BF1040B04909DF805000090B9
S11337601023002204A908A8FFF7F9FE804608A840
S1133770404406006F2D05D0622D03D0702D01D07A
S1133780752D27D1DBF800001BF1040B04906F2D7D
S113379003D108208DF804000EE0622D03D102202D
S11337A08DF8040008E0702D03D110208DF804007A
S11337B002E00A208DF804009DF8050000909DF8B1
S11337C00430002204A908A8FFF7C9FE804608A80F
S11337D040440600B9EB0803202202A91298B84716
S11337E0002E3DD0307800283AD00123327802A947
S11337F01298B847761EF5E7632D0DD1DBF800006B
S11338001BF1040BC0B20790012307980200D2B247
S113381002A91298B84723E0732D1AD1DBF80000EF
S11338201BF1040B0400002C1AD0200000F0A6F8B1
S11338308046B9EB0803202202A91298B8472078E1
S113384000280DD00123227802A91298B847641CDD
S1133850F5E7012328000200D2B202A91298B84762
S11338601AF1010AECE6029813B0BDE8F08FFEE706
S11338707047FEE7F8B584B004000D00002D06D1B2
S11338808B222C492C48FFF7B7F8AFF30080002CAB
S113389006D18C2227492948FFF7AEF8AFF3008000
S11338A02E00270070680190307A8DF80800707A35
S11338B08DF80900F07A8DF80A00307B8DF80B0042
S11338C030680090B07A8DF80C006946380000F03A
S11338D079F8002802D043F2215000E0002005B01E
S11338E0F0BDF8B506000D001400002E07D140F21B
S11338F00B1210491148FFF77FF8AFF30080002D39
S113390007D14FF486720B490D48FFF775F8AFF3F2
S11339100080002C07D140F20D1206490948FFF738
S11339206BF8AFF30080370022002900380000F064
S1133930BAF8F2BD144600007C4C00008C4C000028
S1133940884D0000904D000000B500BF130096465E
S11339509446103928BFA0E80C50FAD85FEA417C9D
S113396028BF0CC048BF40F8042BC90728BF20F863
S1133970022B48BF00F8012B00BDFEE700F1010354
S1133980810704D010F8011B820781B1FAD10268C3
S1133990A2F10131914311F0803104BF50F8042F9A
S11339A0F6E709BAB1FA81F100EBD100401CC01A64
S11339B07047FEE70100002901D1002001E042F632
S11339C0AF70704778B585B004000D00002C06D1A7
S11339D0E4224C494C48FFF70FF8AFF30080002D68
S11339E006D1E52247494948FFF706F8AFF30080BE
S11339F0287B052806D3E62242494548FEF7FCFF0A
S1133A00AFF30080434E287B56F82000002806D1EF
S1133A10E7223C494048FEF7EFFFAFF300806846D9
S1133A2000F0F4F968680090287A012803D1022094
S1133A308DF8040009E0287A022803D103208DF8C8
S1133A40040002E000208DF80400687A012803D104
S1133A5001208DF8070002E000208DF80700A87A05
S1133A60002801D0012000E000208DF81100E87A40
S1133A70002801D0012000E000208DF810002A6801
S1133A806946287B56F8200000F09BF80600002EBB
S1133A9003D03000FFF78EFF03E02100287B08707D
S1133AA0002006B070BDF8B506000D001400002E0D
S1133AB007D140F2551213491348FEF79DFFAFF3A7
S1133AC00080002D07D14FF4AB720E491348FEF766
S1133AD093FFAFF30080002C07D140F2571209493D
S1133AE00F48FEF789FFAFF300803700220029005A
S1133AF008483B7850F8230000F0BEF90020F2BDDE
S1133B0000000000F4480000484D0000504D000043
S1133B1048490000384C0000E04A0000584D0000BD
S1133B20604D0000F8B504000F0025002DB22D0AE9
S1133B30260036B216F01F06072D09D340F21332C1
S1133B40DFF87013DFF87003FEF756FFAFF3008061
S1133B50DFF8680300EB850001680322B24091435B
S1133B603A00D2B2B24011430160F1BD10B5040075
S1133B700321200000B2FFF7D5FF10BD816851F08A
S1133B8002018160816831F002018160704738B5BB
S1133B9004000025052D07D2DFF8240350F8250082
S1133BA0A04201D06D1CF5E7052D08D37A22DFF879
S1133BB01413DFF81403FEF71FFFAFF3008028008F
S1133BC032BD2DE9FE4F05000C001600002C08D173
S1133BD0F122DFF8F012DFF8F802FEF70DFFAFF381
S1133BE000802068002808D1F222DFF8D812DFF81C
S1133BF0E402FEF701FFAFF30080207A052808DB1A
S1133C00F422DFF8C012DFF8D002FEF7F5FEAFF3BE
S1133C100080607A052808DBF522DFF8A812DFF8B7
S1133C20BC02FEF7E9FEAFF30080D4F800805FF039
S1133C3000090020ADF800005FF0040BBBF1210F78
S1133C4036D220680BFB00F0B6FBF0F082465046FB
S1133C5080B2002801D101208246504680B200FB88
S1133C600BF0B6FBF0F0019001992068091A0F00DF
S1133C702168504680B2401C00FB0BF0B6FBF0F00C
S1133C80091AB9420BD22168504680B2401C00FB8D
S1133C900BF0B6FBF0F0091A0F001AF1010AB8454F
S1133CA003D3B846D946ADF800A01BF1010BC5E714
S1133CB020686421B0FBF1F103204143414502D265
S1133CC040F22150A0E02800FFF761FF0290DFF8E6
S1133CD01002029930F91100FFF748FF2800FFF79E
S1133CE04DFF2A69B9F1040F04D3B9F1080F01D2C9
S1133CF052F4003232F0F852B9F10100000610F02B
S1133D00F8500243520B5203BDF80000C004C00C2B
S1133D1010432861286930F000502861A969DFF850
S1133D20E80101402079E37B1B0213F4E0631843AC
S1133D30A37B9B0013F0040318430143607901281B
S1133D4008D12079002802D031F4006107E051F451
S1133D50006104E02079002801D051F01001A9612C
S1133D60286930F40050E279520312F400520243FD
S1133D702A61627A237A53EA0243EB62AA6A52F016
S1133D808802AA62AA6A52F44042AA62DFF89C211D
S1133D9052F0004252F440426B6A94F80DC05FEA5C
S1133DA00C1C1CF0100C94F80CE05FEA4E1E1EF084
S1133DB0200E5EEA0C0C5CEA03036B62A37A012B0F
S1133DC003D1686A50F008006862E07A012803D1E0
S1133DD0686A50F001006862A079012802D152F0AB
S1133DE0005201E032F00052686910436861A96929
S1133DF0207C012801D151F40021607C012801D1EB
S1133E0051F48021A9610020BDE8FE8FF8B50400BB
S1133E10002C09D14FF40272DFF8A810DFF8B000CB
S1133E20FEF7EAFDAFF300801425002627003200D8
S1133E3029003800FFF75CFB5FF4E13020600020CC
S1133E402071002060710020A0710020E07100202A
S1133E502072002060720020A0720020E072002016
S1133E606073002020730020A0730020E073002002
S1133E70207400206074F1BD70B505000C001600BC
S1133E80002C09D140F24132DFF83810DFF83C0051
S1133E90FEF7B2FDAFF3008021003000002807D008
S1133EA06A691202FCD50A78EA61491C401EF5E7EA
S1133EB070BD000088470000D84C000068C00F4067
S1133EC0244C0000E447000094490000E44C000046
S1133ED0F04C0000C44B0000904A0000B84A0000B7
S1133EE0FC4C000080B5124841681348114A12681E
S1133EF0904701BD80B50E48816810480D4A12688C
S1133F00904701BD00000000E8F8FFFF80B50848B5
S1133F10C1680B48074A1268904701BD80B5044840
S1133F2001690848034A1268904701BD00001F4018
S1133F302C00002040000020004018400080184061
S1133F4000C0184000001940F8B504000F00250017
S1133F502DB22D0A260036B216F01F06072D07D300
S1133F6040F2133249494A48FEF746FDAFF3008058
S1133F70484800EB850001680322B24091433A00AF
S1133F80D2B2B24011430160F1BD10B50400032167
S1133F90200000B2FFF7D8FF10BD70B504000D007B
S1133FA016003200D2B22900200000F07FF870BD64
S1133FB038B504000025062D06D2374850F82500F0
S1133FC0A04201D06D1CF6E7062D06D339223349F1
S1133FD03348FEF711FDAFF30080280032BD2DE910
S1133FE0F04104000D0016002000FFF7E1FF070078
S1133FF0062F09D22B4830F9171011F1010F03D005
S113400030F91700FFF7C1FF5FF00108616918FA82
S113401005F0814361613078002807D1606818FA9F
S113402005F830EA0808C4F804800BE07278290027
S1134030200000F00EF8606818FA05F858EA000845
S1134040C4F80480B27829002000FFF7A6FFBDE879
S1134050F08170B504000D001600202D06D37122E6
S11340600E491148FEF7C8FCAFF300803000C0B21F
S1134070002805D120680121A9408843206004E07C
S113408020680121A9400843206070BD2C4700002E
S1134090B44C000068C00F40F84B00009C4800007E
S11340A0D4490000CC4C0000C04C0000F0B40C001B
S11340B00126C56916FA01F39D43C561102902D290
S11340C010F10C0502E010F11005103C1300DBB2F6
S11340D0012B07D03DD3032B1ED00CD3052B33D09B
S11340E029D336E02E6803272300DBB25B009F4010
S11340F0BE432E602DE02F685FF0030C2300DBB27B
S11341005B001CFA03FC37EA0C072300DBB25B00FC
S11341109E403E432E601CE02E6803272300DBB242
S11341205B009F40BE4302272300DBB25B009F403D
S11341303E432E600DE02E6803272300DBB25B00B4
S11341409F403E432E6004E0C3698E401E43C66117
S1134150FFE7F0BC7047FEE7BFF34F8FBFF36F8FED
S113416000203E490860BFF34F8FBFF36F8F3C4878
S1134170016851F400310160BFF34F8FBFF36F8FBB
S1134180704710B4002037490860BFF34F8F36489A
S11341900168C1F34E32C1F3C900030043F6E07075
S11341A010EA421050EA8370304C20601800431E1D
S11341B00028F3D11000421E0028ECD1BFF34F8F2A
S11341C02748046854F480340460BFF34F8FBFF36E
S11341D06F8F10BC704710B525490A884FF6FE70E2
S11341E002400A8023490A884FF6FE7002400A8082
S11341F021490888400704D50A884FF6FB7002401D
S11342000A801E490888400704D50A884FF6FB70C7
S113421002400A801A481B4908604FF6FF701A4989
S113422008601A48016831F0800151F020010160F2
S113423017480168C90703D50168490849000160A6
S1134240074C2068800301D4FFF786FF2068C00371
S113425001D4FFF796FF00F01DF810BD50EF00E009
S113426014ED00E084ED00E080ED00E060EF00E09C
S113427008800B4008000D4000800B4000000D40FA
S113428020C528D904C00B4008C00B4000C00B4017
S113429010E000E07047FEE710B4020052B2002ABA
S11342A005D40A01334B040064B21A5508E00A012C
S11342B0314B040064B214F00F04234403F8042CBB
S11342C010BC704710B50400601EB0F1807F01D3AC
S11342D001200EE0601E294908600F215FF0FF30C5
S11342E0FFF7DAFF00202649086007202549086007
S11342F0002010BD24490868002802D00868401E28
S113430008607047204A106011680029FCD170478A
S113431038B51E480068009000F07FF8FEF761F998
S113432000F0F6F81A4C6A4600212000FFF757FE09
S1134330184800684FF47A71B0FBF1F0FFF7C2FF40
S1134340002800D0FEE7C820FFF7DCFF124D2878D4
S1134350002807D0002200212000FFF77AFE002069
S11343602870F0E7012200212000FFF772FE0120EF
S11343702870E8E700E400E018ED00E014E000E055
S113438018E000E010E000E044000020904E00003F
S113439000801B400000002048000020F8B5040005
S11343A00F0025002DB22D0A260036B216F01F0686
S11343B0072D07D340F2133227492848FEF71CFB88
S11343C0AFF30080264800EB850001680322B24069
S11343D091433A00D2B2B24011430160F1BD10B52D
S11343E004000321200000B2FFF7D8FF10BD70B411
S11343F0049C11F00705260116F0100635430560EC
S1134400002A00D0136070BC704730B4029C039D36
S1134410002C00D0256030BC70473EB540F202400D
S1134420FFF7DDFF0F4C104D002001900095002395
S1134430002205212000FFF7DAFF0C480168002163
S113444001604FF48550019000950023002205215E
S11344502000FFF7DAFF37BD40480000084D000098
S113446068C00F40BC801F406C811F4068C00A4078
S1134470010001F0FF0000F1804010F57C2000688D
S1134480C1F34C320B001B1213F01F039A4010406F
S1134490091211F01F01C8407047010001F0FF002C
S11344A000F1804010F57C200068C1F34C320B0011
S11344B01B1213F01F039A401040091211F01F0140
S11344C0C840704718480068C00601D5174801E085
S11344D017480068704710B51648FFF7C9FF002851
S11344E00CD11548FEF782FB0621B0FBF1F413480A
S11344F0FFF7D3FF401CB4FBF0F008E0FFF7E2FF46
S113450004000E48FFF7C9FF401CB4FBF0F010BDD7
S113451010B5FFF7E0FF0400230001225FF4E1314E
S11345200120FEF7A4FC10BD70820D4000366E0120
S113453004000020246600800D00100024E00780A1
S1134540443A5C7265735F636869705F692E6D7865
S113455072745F636D375C53444B5F4272696E677C
S113456075705F45564B2D4D494D5852543130317D
S1134570305C646576696365735C4D494D5852548B
S1134580313031315C7574696C69746965735C646C
S1134590656275675F636F6E736F6C655C66736C81
S11345A05F64656275675F636F6E736F6C652E63BE
S11345B000000000443A5C7265735F636869705F71
S11345C0692E6D7872745F636D375C53444B5F4240
S11345D072696E6775705F45564B2D4D494D585243
S11345E054313031305C636F6D706F6E656E74730F
S11345F05C73657269616C5F6D616E616765725C45
S113460073657269616C5F6D616E616765722E635B
S113461000000000443A5C7265735F636869705F10
S1134620692E6D7872745F636D375C53444B5F42DF
S113463072696E6775705F45564B2D4D494D5852E2
S113464054313031305C636F6D706F6E656E7473AE
S11346505C73657269616C5F6D616E616765725CE4
S113466073657269616C5F706F72745F7561727487
S11346702E630000443A5C7265735F636869705F1F
S1134680692E6D7872745F636D375C53444B5F427F
S113469072696E6775705F45564B2D4D494D585282
S11346A054313031305C646576696365735C4D49BF
S11346B04D585254313031315C647269766572738D
S11346C05C66736C5F636C6F636B2E680000000044
S11346D0443A5C7265735F636869705F692E6D78D4
S11346E072745F636D375C53444B5F4272696E67EB
S11346F075705F45564B2D4D494D585254313031EC
S1134700305C646576696365735C4D494D585254F9
S1134710313031315C647269766572735C66736CD6
S11347205F636C6F636B2E6300000000443A5C723D
S113473065735F636869705F692E6D7872745F6317
S11347406D375C53444B5F4272696E6775705F45A9
S1134750564B2D4D494D585254313031305C6465BF
S113476076696365735C4D494D585254313031312B
S11347705C647269766572735C66736C5F636C6F9C
S1134780636B2E6800000000443A5C7265735F63DB
S11347906869705F692E6D7872745F636D375C53FE
S11347A0444B5F4272696E6775705F45564B2D4D81
S11347B0494D585254313031305C646576696365D3
S11347C0735C4D494D585254313031315C647269D7
S11347D0766572735C66736C5F636C6F636B2E6873
S11347E000000000443A5C7265735F636869705F3F
S11347F0692E6D7872745F636D375C53444B5F420E
S113480072696E6775705F45564B2D4D494D585210
S113481054313031305C646576696365735C4D494D
S11348204D585254313031315C647269766572731B
S11348305C66736C5F6C70756172742E630000004B
S1134840443A5C7265735F636869705F692E6D7862
S113485072745F636D375C53444B5F4272696E6779
S113486075705F45564B2D4D494D5852543130317A
S1134870305C646576696365735C4D494D58525488
S1134880313031315C647269766572735C66736C65
S11348905F636C6F636B2E6800000000443A5C72C7
S11348A065735F636869705F692E6D7872745F63A6
S11348B06D375C53444B5F4272696E6775705F4538
S11348C0564B2D4D494D585254313031305C64654E
S11348D076696365735C4D494D58525431303131BA
S11348E05C647269766572735C66736C5F67706929
S11348F06F2E6300443A5C7265735F636869705F2E
S1134900692E6D7872745F636D375C53444B5F42FC
S113491072696E6775705F45564B2D4D494D5852FF
S113492054313031305C636F6D706F6E656E7473CB
S11349305C756172745C6C70756172745F616461E2
S1134940707465722E630000636F6E6669672D3E36
S1134950696E7374616E6365203C202873697A659F
S11349606F6628735F4C7075617274416461707412
S113497065724261736529202F2073697A656F66B9
S1134980284C50554152545F54797065202A292986
S113499000000000696E7374616E6365203C20281A
S11349A073697A656F6628735F6C7075617274429F
S11349B06173657329202F2073697A656F662828CF
S11349C0735F6C70756172744261736573295B30D7
S11349D05D292900696E7374616E6365203C20282B
S11349E073697A656F6628735F6770696F42617374
S11349F0657329202F2073697A656F662828735F91
S1134A006770696F4261736573295B305D292900A2
S1134A10415353455254204552524F52202220258F
S1134A207320223A2066696C652022257322204C6B
S1134A30696E652022256422200A000030B450F8F3
S1134A40041B79B10268436802440830DC0744BFA0
S1134A50A9F10104E31852F8045B43F8045B091F4D
S1134A60F9D1ECE730BC70476B5374617475735FB4
S1134A7053657269616C4D616E616765725F5375F0
S1134A806363657373203D3D2073746174757300B3
S1134A902875696E74385F7429283429203E3D20B6
S1134AA0636F6E6669672D3E74784669666F5761F9
S1134AB07465726D61726B002875696E74385F7409
S1134AC029283429203E3D20636F6E6669672D3E98
S1134AD072784669666F57617465726D61726B00B6
S1134AE0735F4C7075617274416461707465724275
S1134AF06173655B636F6E6669672D3E696E73747F
S1134B00616E63655D00000072B605480549016089
S1134B100A6882F308880448804762B6034800475D
S1134B2008ED00E000200000D74100002D4D0000FA
S1134B3010B5074979441831064C7C44163404E016
S1134B400A68081D114488470146A142F8D110BDE6
S1134B5008000000280000005FE9FFFF4800000093
S1134B600400002000000000D5FEFFFF0400000048
S1134B7028030000000000200000000000F00DF8F1
S1134B80002801D0FFF7D4FFAFF300800020AFF37B
S1134B900080FFF7BDFB00F002F80120704700F031
S1134BA001B8FEE70746384600F002F8FBE7FEE7E7
S1134BB080B5AFF30080024A11001820ABBEFBE7BA
S1134BC0260002003055203C20636F6E6669672D15
S1134BD03E62617564526174655F427073000000E7
S1134BE0627573795368696674203C3D2028307877
S1134BF032305529000000000000000000801B40F6
S1134C0000000042000000000000000000000C4012
S1134C10010000000000000001000000000000008E
S1134C200000000000000000004018400080184010
S1134C3000C0184000001940000000000040184067
S1134C400080184000C018400000194021627970AB
S1134C506173735874616C4F73630000000000004B
S1134C60000000000000000101000000736572698B
S1134C70616C48616E646C65000000007365726964
S1134C80616C436F6E66696700000000736572694A
S1134C90616C48616E646C6500000000696E646557
S1134CA078203C3D203600003020213D2073697A75
S1134CB065000000696E646578203C3D2036000084
S1134CC070696E203C20333200000000FFFF1A019F
S1134CD01E00FFFFFFFF1E01696E646578203C3DE6
S1134CE0203600003020213D206461746100000002
S1134CF03020213D20636F6E66696700FFFF180551
S1134D001C000C0018010000696E646578203C3DAD
S1134D1020360000777269746548616E646C6500C2
S1134D207265616448616E646C650000AFF3008075
S1134D30AFF30080FFF722FF000100000000000035
S1134D403020213D2063680068616E646C6500005A
S1134D50636F6E666967000064617461000000003F
S1134D606C656E6774680000627566666572000043
S1134D706C656E677468000068616E646C65000041
S1134D80636F6E666967000062756666657200002F
S1134D906C656E677468000000480047954E00001B
S1134DA000480047954E000000480047954E00001B
S1134DB000480047954E000000480047954E00000B
S1134DC000480047954E000000480047954E0000FB
S1134DD000480047954E000000480047954E0000EB
S1134DE000480047954E000000480047954E0000DB
S1134DF000480047954E000000480047954E0000CB
S1134E0000480047954E000000480047954E0000BA
S1134E1000480047954E000000480047954E0000AA
S1134E2000480047E53E000000480047F53E00000A
S1134E30004800470D3F0000004800471D3F0000A8
S1134E4000480047954E000000480047954E00007A
S1134E5000480047954E000000480047954E00006A
S1134E6000480047954E000000480047954E00005A
S1134E7000480047954E000000480047954E00004A
S1134E8000480047954E000000480047954E00003A
S10F4E9001000000FFF7FEBF40DCB3117E
S9034D2D82
