S0130000666C6173686C6F616465722E737265638C
S31520205A00E8410020EDC420207B5E20202DAA2020E6
S31520205A107B5E20207B5E20207B5E202000000000F5
S31520205A200000000000000000000000007B5E202017
S31520205A307B5E2020000000007B5E20207B5E2020D5
S31520205A4015C520201DC5202025C520202DC5202078
S31520205A5035C520203DC5202045C520204DC52020E8
S31520205A6055C520205DC5202065C520206DC5202058
S31520205A7075C520207DC5202085C520208DC52020C8
S31520205A8095C52020E7D42020E7D42020E7D4202045
S31520205A90B3BE20209DC52020A5C52020ADC5202011
S31520205AA0E7D42020E9D32020B5C52020E7D4202004
S31520205AB0BDC52020C5C52020E7D42020E7D420201E
S31520205AC0CDC52020D5C52020E7D42020E7D42020EE
S31520205AD0E7D42020E7D42020E7D42020E7D4202094
S31520205AE0E7D42020E7D42020E7D42020E7D4202084
S31520205AF0E7D42020E7D42020E7D42020E7D4202074
S31520205B00E7D42020E7D42020E7D42020E7D4202063
S31520205B10E7D42020E7D42020E7D42020E7D4202053
S31520205B20DDC52020E7D42020E5C52020EDC5202076
S31520205B30F5C52020E7D42020E7D42020E7D4202034
S31520205B40E7D42020E7D42020E7D42020E7D4202023
S31520205B50FDC52020E7D42020CF622020E7D4202096
S31520205B60E7D42020E7D42020E7D42020E7D4202003
S31520205B70E7D42020E7D42020E7D42020E7D42020F3
S31520205B80E7D42020E7D42020E7D42020E7D42020E3
S31520205B90E7D42020E7D42020E7D42020E7D42020D3
S31520205DF0E7D42020E7D42020E7D42020FFFFFFFF70
S31520205E00002A01D101207047F0B41F4603460324FF
S31520205E102340002B09D00424E31A017001300824E2
S31520205E20E141521E26D05B1EF7D1042A1ADB13D05D
S31520205E30002F11D00C460D460E46102A02DB72C0CA
S31520205E40103AFAE70C2A02DB32C00C3AFAE7082A83
S31520205E5002DB12C0083AFAE7042A03DB0160043089
S31520205E60121FF9E7002A05D0017001300824E141EC
S31520205E70521EF7D1F0BC00207047FEE7476720204E
S31520205E80000000005B672020000000003B682020E7
S31520205E90C16920201F682020C76820209F6A2020D3
S31520205EA00000000000000000000000009567202070
S31520205EB0000000006B672020C7682020BF6A2020B2
S31520205EC0000000001D6B202000000000FB66202023
S31520205ED000000000C5672020000000000000000010
S31520205EE000000000496B2020000000006B6B202062
S31520205EF000000000976B2020C1692020DB6720202E
S31520205F00000000000000000000000000000000004B
S31520205F10C1D42020CBD42020D5D42020000000009E
S31520205F20000000000900000001722020000000006F
S31520205F3000000000C76E2020D96F2020EF6F202080
S31520205F406F702020B77020205B712020D5BD2020A7
S31520205F5051BE20206DBE2020000000000000000041
S31520205F60A1BE2020C57920201D77202075772020CE
S31520205F705B78202097782020A7782020F57720206E
S31520205F80519B2020559B2020619B2020719B2020E7
S31520205F9000000000000000000100000001000000B9
S31520205FA0656220204C5F20205C5F2020F45F20202B
S31520205FB010000000010000000000000010602020DA
S31520205FC000000000206020200000000000000000CB
S31520205FD0000000000000000000000000000000007B
S31520205FE0EDBE202009BF2020B9BF202077C0202049
S31520205FF0DC24002069C120206FC12020DBC1202085
S3152020600073C220206DC120207FC2202049C120209C
S315202060103DD0202049D1202027D2202081D22020C7
S315202060208FD22020B3D2202037D32020CFD3202098
S31520206030DFD32020E3D320200000000038B50446FB
S315202060403E4D00202862C5E90000C5E90200C5E9C9
S31520206050040068623A4800F0ADF8C5E906012046FA
S315202060600FF25D01BDE8344000F03FB900F052B98F
S3152020607070B50C46314E316A072904BF756AA8428D
S315202060801BD100F04FFA0546C5EB0515D6E90023AE
S31520206090D6E9020182184FF49666B5FBF2F00A255E
S315202060A00A2368434FF49662B0FBF6F6761D00204D
S315202060B0B6FBF3F35343236070BD012070BD00006F
S315202060C02DE9F8431D4F064600F06AF83A6A044641
S315202060D0D7E904598846521C651BD7E9060168EB87
S315202060E00909494502D82CBFA8420122012A3A6231
S315202060F006D0042A08D0052A0ED0072A0FD018E069
S31520206100C7E900487E6214E0D7E90023A21A68EB8B
S315202061100303C7E900230CE0C7E9024809E0D7E9D1
S315202061200201201A68EB0101C7E90201304600F07E
S31520206130F1F8C7E90448BDE8F183000000180020E3
S315202061408038010010B52048204A0168002341F4F8
S3152020615040510160002010601D484FF0FF31012280
S3152020616001618361C261846944F004048461826987
S3152020617042F00102826101600121C160816000F04C
S31520206180D1F9C0001349B0FBF1F000B90120124A21
S31520206190906010BD0D48016841F0020101607047F2
S315202061A081B00E48016842680092009801B0C94328
S315202061B0C043704708498A68A2FB0001C00840EA0C
S315202061C04170C908704700006CC00F40004008404D
S315202061D00041084040420F0028180020E040084097
S315202061E00901020002D4564881547047554A00F0CE
S315202061F00F00131803F8041C704710B5039C01F0F8
S315202062000701240104F010042143016002B1136028
S3152020621010BD0021016002B11160009808B10199DA
S3152020622001607047FEB5089E0027099C0A9D0197AC
S315202062300096FFF7E2FF3068012101FA05F520F4E8
S3152020624080503060606820EA05056560F7BD7CB522
S31520206250069C0025019547F2B0060094FFF7CDFF56
S31520206260266073BD7FB5384C384D3948394A19B127
S3152020627002291ED012D37FBD41F2B0060095019689
S31520206280002300222046FFF7C4FF01960023009515
S31520206290002200212046FFF7BCFF7FBD09212E4B7F
S315202062A0029105210193002300920022FFF7BAFFD5
S315202062B07FBD0092002300220021FFF7C8FF009512
S315202062C00023002200212046FFF7C1FF7FBD10B505
S315202062D0224C2068800507D52149496821B1012013
S315202062E088474FF40071216010BD10B51C4B1A4C05
S315202062F0596004220921204600F070F963690121A2
S31520206300462043F400736361FFF76AFF4020154956
S31520206310086010BD80B5402013490860BFF34F8F19
S31520206320BFF36F8F00214620FFF75AFF0022092155
S31520206330094800F053F900200949486001BD0000B2
S3152020634000E400E018ED00E094801F4044811F40C7
S3152020635098801F4048811F4000801B4018801B408A
S31520206360D424002008E100E088E100E0002808BFCE
S3152020637000F01EB870477948794A01684FF00043EB
S3152020638041F00301016040201060764883634FF07E
S3152020639080418163002202607348036843F4C0135E
S315202063A0036072480168490849000160012070474E
S315202063B0F0B56F496F4A11606F4C25680120002384
S315202063C0C5F3415121B10122481E12FA00F002D014
S315202063D06A49B1FBF0F36A4C226AD10346D54FF4C1
S315202063E08055A562216A0029FCD54FF48032654D5F
S315202063F062622E6964494FF4405726F03F360E4399
S315202064002E6127602668002EFCD562602F685F4AA1
S31520206410401E5F49800227F03F3717432F605D4A91
S31520206420156800F4E0505C4EF6180D4028435B4D6D
S31520206430B6FBF5F56D1E2D0205F440752843106038
S315202064401069000A000240F0030010615168544888
S3152020645021F4402141F4002151609060216A21F4E9
S3152020646080312162206820F4803020604D490B60E5
S31520206470F0BD67E0002A70B518BF012A38D14148FF
S31520206480494B04681D68A409002A0CBF0FF2241268
S315202064900FF234120E0025F0607529D00A29A8BFE4
S315202064A0012112F8116002EB41014A783F4906F09A
S315202064B03F0646EA84140E68521ED20502F0607208
S315202064C0154346F002060E605A6E22F440625A6642
S315202064D00668B44218BF04601868854218BF1D603C
S315202064E05A6E42F440625A66086820F0020008601C
S315202064F070BD0B0010B503D12A48016811600BE04E
S3152020650001290BD12748234B01681C68C4F301209D
S31520206510401CB1FBF0F01060002010BD244BBDE8DC
S31520206520104018471B481F4A016880681368C1F32A
S315202065300121491C00F03F00401CB3FBF1F1B1FBC7
S31520206540F0F070471348174900680A68C0F3012005
S31520206550401CB2FBF0F070470000000080C00F40C6
S3152020656014800D4000900D40B0810D4040410E40DA
S3152020657000366E017C24002070441F40007B9A1731
S3152020658010800D40F0800D401818131823231A0F61
S31520206590FFE0FFFD14C00F40FF43950800449508F7
S315202065A001008063B00000201CC00F4000000A407C
S315202065B025C2200000002208160818061E041206EE
S315202065C00E0611041A0216020000180616040C06DE
S315202065D01E021203160221011A011601F0B5C36903
S315202065E0012404FA01F5AB431029C36132BF00F11F
S315202065F00C0300F110031039490003268E40F7437F
S31520206600521E042A1DD8DFE802F003070D151900B3
S31520206610186807401F60F0BD1A688C4017403C431D
S315202066201C60F0BD1C68022505FA01F1274039437C
S315202066301960F0BD186806431E60F0BDC1690D4380
S31520206640C561F0BDDFF8481600200A69D3681860B6
S315202066507047F8B5DFF838660024306A8DF8004098
S315202066604569002D47D03169C9680F68012F31D07F
S315202066706C6801F108020023091DA04704001FBFF2
S3152020668042F21270844242F213718C4233D1306925
S31520206690C268916800292ED0546823781D0007D01F
S315202066A0142B05DA806800EBC305A5F1080000E06D
S315202066B00020002850621CBF0268002A03D02046F2
S315202066C00024904713E042F210741946204600F029
S315202066D07AFA10E0486A58B1416811B1684688476D
S315202066E004460CB1002003E09DF8000000B10120F3
S315202066F03169CA6810602046F2BD80B50178002035
S3152020670000F061FADFF88825106A41690A69904706
S31520206710022000F0EBFABFF34F8FDFF87815DFF871
S3152020672078050A6802F4E06202430A60BFF34F8FBD
S3152020673000BFFDE7DFF8580518210269D36803F169
S315202067400C0000F0FFBA10B504466068092802D173
S3152020675000F02EFD00E00420F2E1DFF8343570B59C
S3152020676000F0A7F9AE69B0479FE110B50446FFF7C0
S31520206770E1FFDFF81C0562680169C868082102610B
S3152020678080F820102178002000F01DFABDE8104066
S3152020679000F028BF7CB5DFF8F8440022E568019296
S315202067A00092816840686B46AE6801AAC0B2B047A5
S315202067B022690021D3681961009A0199920800F074
S315202067C008FA73BDDFF8C82438B5D3680446606854
S315202067D0A168DD68C0B2A847AEE138B504460420DA
S315202067E06268092A03D1A06800F06FFB13E0C2F388
S315202067F0032101290FD16946104601F0AFF850B97F
S31520206800009DDFF88C2414219368A0684D435919E4
S315202068100A6913699847217800F0D5F931BD10B55A
S315202068200446FFF787FFDFF86804E268016904233E
S3152020683000F013F82178002083E110B50446FFF7F5
S3152020684079FFDFF84C04E2680169032300F005F89C
S31520206850A1680020BDE81040D6E1C8688261A16801
S3152020686001616268426180F82030704738B504465D
S31520206870DFF81C5428690021C0684161016190F825
S315202068802000042804D129680A69904704B90446BF
S3152020689028684169884704B904462869C168204682
S315202068A091F8201000F08FF942F21270844201BF35
S315202068B02969CA6892F82000082803D1BDE831400A
S315202068C000F0D3BE31BD2DE9FE4300F0E2F811B928
S315202068D000F0DBF871E0012101233170D0F8189007
S315202068E00569D0F8148000206A460090386A01A9EC
S315202068F04469D4F804C0E04704000AD0386A4169C4
S31520206900CA6890472046FFF7B1FF0021002031704A
S3152020691054E0009830B942F21270FFF7A7FF00200A
S3152020692030704BE0A842396988BF28460090C86855
S3152020693090F82010082912D10199C160009AC261CD
S315202069400099019800F058FE044642F27D70844258
S315202069501CBF42F274718C4216D1002414E01329F4
S3152020696007D1009A0199404601F052F800988044B8
S315202069700AE03C68019A00994B464046D4F808C064
S31520206980E04700990446884400982D1A05D12046D0
S31520206990FFF76CFF002131700FE04CB1386A416956
S315202069A0CA6890472046FFF761FF0020307004E038
S315202069B03969C9680D61C1F814800020BDE8FE83BD
S315202069C02DE9F84F00F065F811B900F05EF859E08E
S315202069D00121DFF8C8A23170826900920569D0F8BA
S315202069E01480C46890F820B0386A41694A69904773
S315202069F08146A94588BFA946ACB14A46214650467C
S31520206A0001F006F8386AA5EB090401234A465146C7
S31520206A104569D5F808C0E04704B170B3FFF726FFD3
S31520206A20002030702EE0BBF1030F09EB080419D1AA
S31520206A30D7F800C04046009B52464946DCF80480E1
S31520206A40C0475FEA000BA046DCD0386A012300222B
S31520206A5051464469A568A8475846FFF707FF0020F6
S31520206A60307010E0BBF1130F01D0A046CAE74A468A
S31520206A704146504600F0CCFFF7E73869C0680461EC
S31520206A80C0F814800020BDE8F28F0022002032704A
S31520206A90ECE606467E4F3869C068016970477C4B14
S31520206AA070B500F006F8EE68B0472178BDE8704052
S31520206AB089E01D680446E268A168606870472DE970
S31520206AC0F0410546764F6E68D5F80880E8680024A0
S31520206AD0386018B101F01EF800B90424304601F0C0
S31520206AE002F800B904242978204600F06CF89CB9D5
S31520206AF07E60002000F0FAF8C7F80880386818B1C0
S31520206B0080F3088880F309887968404688470020E2
S31520206B10BDE8F04100F0EAB8BDE8F08138B504467A
S31520206B20606800F0E0FF08B9042005E065680120D0
S31520206B3000F0DCF8A068A8472178BDE8344042E080
S31520206B402178BDE810403EE038B5044601F08AF8A9
S31520206B50A368616804F10C02524801F0C9F8054681
S31520206B6001F086F821782846E7E73EB5002104463D
S31520206B70CDE9001101F076F8A36861686A46494894
S31520206B8001F00EF9054601F073F8A26869462846F9
S31520206B9000F055F837BD38B504461025FFF7CAFD55
S31520206BA03B48A2680169C9680A6163684B6181F81C
S31520206BB020500069E168C268002082F82110A1686F
S31520206BC0BDE8344070E03EB5002400F02CF8A02328
S31520206BD01EE070B5002588B0A7248DF801508DF8C9
S31520206BE000400026551C01908DF8026000208DF86B
S31520206BF003506C4605E004EB800551F82030401CFC
S31520206C00AB609042F7D336E03EB500F00BF8A323D5
S31520206C108DF800300023029144690C226946A5682C
S31520206C20A84737BD012401908DF8014002248DF814
S31520206C300340174C206A00258DF80250704770B506
S31520206C40002588B08DF80150AF24002602258DF826
S31520206C5000408DF802608DF80350019050B99DF8C0
S31520206C600300029200EB920403A88DF8034000F063
S31520206C70DFFE00E0029606489DF80320006A0023E6
S31520206C80694644699200121DA568A84708B070BDC0
S31520206C90100000200CED00E00400FA055C1800200E
S31520206CA0541C002000401F403EB5FFF7BBFFB023F9
S31520206CB0AEE730B4002513E050F8042BD30744BFA9
S31520206CC0A9F101039A18091F042942F8045BFAD274
S31520206CD013468C0744BF15809B1CC90748BF1D70CF
S31520206CE050F8041B0029E7D130BC7047012870B525
S31520206CF004461DD00025114E05E07018C16889680C
S31520206D0001B188476D1C1821694370580028F4D199
S31520206D1074B900F0A7FFFFF73DFA01F0B9F800207B
S31520206D20074908600120FFF721FB01F0FAF862B637
S31520206D30BFF36F8FBFF34F8F70BD00BF985F2020AA
S31520206D4008ED00E0002201F00DB9F0B402461068EB
S31520206D5095681318506803EB5004C0071DD54D4481
S31520206D601BE013F8017B05F8017B491EF9D1A0B160
S31520206D70B60813F8011B06F00306032E08BF13F8E6
S31520206D80016B01EB06214942801C294405D011F8CC
S31520206D90016B05F8016B401EF9D1A3420ED013F8E2
S31520206DA0016B16F0030104BF13F8011BC91C30091F
S31520206DB00F28DAD113F8010B0F30D6E7F0BC02F1F9
S31520206DC00C007047BFF34F8FDFF8C02402E010601D
S31520206DD0203020390129FADABFF34F8FBFF36F8F86
S31520206DE0704778B5040085B01EBFDFF8A414087854
S31520206DF000285BD02068010F0B2957D1C0F3032030
S31520206E00042853DC002004E08968491C0A054DD15A
S31520206E10401C2168C1F3032188424ADA04EBC001D1
S31520206E204A681305F0D041E003A9102000F0E8F9C4
S31520206E3000283BD101A9032000F0E2F9002835D112
S31520206E402568049E6A4602A92046AD0405F07F7572
S31520206E50AE1901F0A1F8002828D1009903986D18C1
S31520206E60A84223D30198401E06421FD120680199AB
S31520206E70C0F303200028304609D100F01AF908B1C2
S31520206E80002014E00099304600F067F90DE000F06C
S31520206E9010F910B942F2DB7009E0029A00993046C7
S31520206EA000F0A5F810B900F006F900B1042006B0CC
S31520206EB070BD002101200491039104A900F0A0F9BE
S31520206EC00028B1D0F2E701207047F8B5ADF5007D56
S31520206ED00746042400F007FEA0B307F2FF1000F0B7
S31520206EE002FE78B33868DFF8A863DFF8A853010FCD
S31520206EF00C2917D13A462946002002F047FB0400E8
S31520206F0020D100202946307001F0A0F8040019D1A4
S31520206F10002002F0ECFD6946102000F071F938B30C
S31520206F2004460FE0DFF8701388420FD1307848B13D
S31520206F30DFF868634FF40071304600F05DFD10BB2A
S31520206F4042F2DB7420460DF5017DF0BDDFF85013AB
S31520206F50884206D14FF400723946284600F058FD63
S31520206F60CFE7000F0B28EDD13846FFF73AFFD7E7BA
S31520206F700098DFF830130B6B01228A63C3185B1E3F
S31520206F804B633270DEE705F5E277B87968B10020E9
S31520206F9029180DEB000449780DF800102B5C801C75
S31520206FA0B0F5007F6370F3D36D462A464FF4007107
S31520206FB0304600F01CF8040005D04FF4007130460E
S31520206FC000F059F9BEE700F076F80400BAD0396807
S31520206FD0304600F0C2F8B5E710B5AD4C237813B98A
S31520206FE042F2DD7010BDBDE8104002F0B3BD2DE9A0
S31520206FF0F8430546A64F38780C46914690BB42F278
S31520207000DD7032E07878A34968B9D1F8C021521EC4
S31520207010154202D044F6896027E0012000227870AC
S31520207020BA607D6004E0B8687A681018A84216D144
S31520207030B868D1F8C08121184145494634BF264633
S31520207040A8EB0006384432461030751900F0E0FCD3
S31520207050B868A41BB14430184045B86002D100F06E
S315202070602AF810B9002CCDD10020BDE8F28376B5C0
S315202070700D4606468649087810B942F2DD7076BD5F
S31520207080AC08A40005F0030507E001AA0421304638
S31520207090FFF7ADFF60B9361D241F002CF5D12DB189
S315202070A001AA29463046FFF7A2FF08B900F003F8C7
S315202070B076BD00F0A1BC70B5754D002468780028F7
S315202070C049D06C70734ED6F8C041A868A04206D02D
S315202070D0211A05F11003FF22184402F053FD686897
S315202070E02146FFF7E6FF10B942F2DB7070BDD6F8D5
S315202070F0C011686802F05AFE40B1D6F8C0116868FF
S3152020710005F1100202F07AFE040024D16C6800F00A
S31520207110A9FD644905F11003086B3146221A002087
S3152020712001F095F8044600F0A3FD00206870A860C1
S315202071308CB95D480268D10304D5D6F8C011686899
S31520207140FFF740FED6F8C021686805F1100102F04D
S31520207150EDFE00B129E0204670BD70B504464C4AAC
S31520207160107810B942F2DD7070BD4A4AD2F8C45167
S31520207170684200EA04060C19644204406442A41BB7
S315202071802146304600F077F870B947480168CA038F
S3152020719003D529463046FFF715FE21463046FFF710
S315202071A088FF00B901E0002070BD44F68A6070BDDA
S315202071B0E0B53749087810B942F2DD700EBD354961
S315202071C0002001F0A1F8D0B901A9012000F018F87B
S315202071D0A8B96946102000F013F880B93248016812
S315202071E0CA0303D500990198FFF7ECFD0099019871
S315202071F000F002FC10B944F68A600EBD00200EBDB8
S31520207200002930B52DD0234C04F5E07260B1012839
S3152020721014D0022815D0032818D0042819D00528E0
S3152020722019D010281AD01CE0194A1078002814BF2B
S31520207230002042F2DD700860002030BD4FF0C040B3
S31520207240F9E700F010F8AD0A0D60F5E713680B603A
S31520207250F2E75068EFE7106918B1ECE700F003F881
S31520207260F2E7042030BD256D636DA26DE06D5D19BA
S315202072705519451970470B4602460A49086B054998
S31520207280121A002002F02CBA000000005CEF00E069
S315202072906C2000206C1E00200F0000F000040060EF
S315202072A0464346425000002014ED00E041688268A3
S315202072B08A4209D2891A826641600FF29D21016095
S315202072C0012282600020704742F2787070470FF2C8
S315202072D0090101600020704710B5416ADFF8144487
S315202072E04A898282CB689B1E43604A68A24202D189
S315202072F0097A022902DB42F2757010BD0FF20902CB
S315202073000260002010BD0000416A43684A688261FD
S315202073100A68D21E9A42826002D342F27670704761
S315202073200989002908BFFFF7C1BF42F2777070474D
S31520207330F8B50446DFF8C063B4F85A30376804F14C
S315202073405C05626A6968D7F808C01806000F1B0A10
S3152020735043EA00232868E047A0B9306801698847B6
S3152020736080B9616A102204F11C0002F019FE00F097
S3152020737044F80098A968884200D043E00FF2D9103B
S3152020738020600020F2BDF8B504461022616A04F17F
S315202073901C00DFF8646304F15C0502F001FEB4F8FA
S315202073A05A303768626A10211806000F1B0AD7F850
S315202073B008C043EA00232868E047E8B92868103047
S315202073C02860686810381028686088BFDFF82C038A
S315202073D010D810B1DFF828030CE0306801698847FF
S315202073E050B900F00AF80098A968884200D009E030
S315202073F00FF2651020600020F2BD694604F11C00C2
S3152020740002F0E4BD42F27A70F2BD10B5044604F1D2
S315202074101C0002F0BFFD216E11292CBFB748B848A9
S315202074202060002010BD38B5B34B426E1C68016E1B
S31520207430C06DE568A84732BDB0F85A2013061B0F49
S31520207440110AD20741EA03214CBF08230423042929
S3152020745001D00420704700F16002C16DA94800F0D8
S3152020746047BC70B5044642F27F76E56D284600F08B
S315202074703AFB80B1606E04F11801A8470646012E1A
S3152020748003D12046BDE8704010E7022E03D100F03C
S31520207490A9F8002070BD304670BD10B5436800F1B4
S315202074A05C02516881608B4202D242F2767010BD16
S315202074B0147AE30707D512688469A24203D111B151
S315202074C0C160002010BD90F85A10CA0702D542F29A
S315202074D07C7010BDBDE81040E8E638B5B0F85A10EB
S315202074E08A070CD40B061B0F0A0AC90742EA032275
S315202074F007D5092A03D1BDE83140FFF759BE04201C
S3152020750032BD7D4B5C301C6841680068A569A84760
S3152020751032BD00001CB50446B4F85A000106090FF6
S31520207520000A40EA0120092803D1E06DFFF7CDFCAF
S3152020753016BD01290ED1694600F010FA58B9E06D22
S31520207540009C6D4A142193684C4319190A691369C2
S31520207550984716BD042016BDF8B5044604F15806F2
S31520207560616A304610225A2500F062FA0120375CE3
S31520207570401CED191028FAD3307805F0FF05A842D3
S3152020758002D042F27970F2BD717842F212700A2945
S3152020759025D8DFE801F01A060A0E26121A16261C0E
S315202075A020002046BDE8F24077E72046BDE8F2409D
S315202075B02BE72046BDE8F24035E72046BDE8F240DD
S315202075C04FE72046BDE8F24087E70020F2BD20465F
S315202075D0BDE8F2409EE72046BDE8F2402CE742F285
S315202075E07B70F2BD10B5484C70212046FFF7AAFBD0
S315202075F0464A0020226010BDF8B506460C460020DB
S315202076000027434DA74218D02969E01BC1F110015C
S3152020761009E080B12B69F25D7F1C491E401EEA5489
S315202076202A69521C2A610029F3D10020286100F002
S3152020763005F810B9E6E742F27D70F2BD80B53248F2
S31520207640334A4262C26800212AB1036993420AD092
S315202076505B1C036101E0826E1AB9016888470146E6
S3152020766001E0521E8266084602BDF8B5224C2068EB
S315202076700169884700283CD1234F97F859000428D0
S3152020768023D107F15C052E68304600F02CFAC8B1CC
S315202076900020FFF72BFB97F85A00810710D5686842
S315202076A06861616860B10A68904222BF4968491CB6
S315202076B0814201D20420F2BD80F3088880F3098814
S315202076C0A868B04742F27E70F2BD08280FD102206A
S315202076D0FFF70CFBBFF34F8F0E490F480A6802F4C1
S315202076E0E06202430A60BFF34F8F00BFFDE742F2FC
S315202076F07B70F2BD53544D501000002087732020FC
S315202077003173202000401F40BC250020CF7220202E
S31520207710302600200CED00E00400FA057CB50C0094
S31520207720164605461A4601D1002076BD100A10F0CD
S315202077300F0002D001280AD019E06A46284600F018
S31520207740BAF8B0B900F0A1F86568A84776BD6B46AF
S31520207750284600F0D3F860B90098A54A0369284640
S31520207760996951605B6832462146984776BD42F238
S31520207770D87076BDF8B50C00174606461A4601D1B4
S315202077800020F2BD100A10F00F00994D02D00128DA
S3152020779016D02CE0304600F0F6F840BB6A4621464B
S315202077A0304600F088F820BB009B214630463A46DA
S315202077B0DC68A668B047B8B90099CA68136911E091
S315202077C06B46304600F09AF898B900983A460369F5
S315202077D03046996969609B682146984720B9009967
S315202077E00A6953692B60F2BD00212960F2BD42F25D
S315202077F0D870F2BD7CB5130A13F00F0305460C464C
S3152020780042F2D87602D0012B14D024E06A4600F02A
S3152020781052F8E8B90099CA68506998B12146284695
S3152020782000F0B1F8B8B9009A21462846D3685C6999
S31520207830A04776BD6B4600F061F848B900980169EB
S31520207840CA680AB9662076BD21462846904776BD65
S3152020785014B9002076BD304676BD7CB50C00054691
S31520207860164601D1002076BD00F08DF810B142F2E7
S31520207870D87076BD6A462146284600F01CF818B9ED
S3152020788000F003F8E568A84776BD009B21462846E8
S315202078903246DC68704710B5554C206810B18047B9
S315202078A00021216010BD10B5514C606810B1804771
S315202078B00021616010BDF0B516000D4642F2D87742
S315202078C01AD04C494A68326015B915E01033336016
S315202078D033688BB11A68002A04BF5C68002C01D15A
S315202078E0D96849B1904224BF59688142EED32818DD
S315202078F0401E814228BF00273846F0BDF0B50646F7
S31520207900174642F2D87C3BB33A4882681A6019B9A6
S3152020791022E005F114041C601D68EDB12A68002AB6
S3152020792004BF6C68002C07D1A868002804BFEC6827
S31520207930002C01D1286978B19742EAD1AA68E86853
S315202079400027A0FB0245701847EB07018D4203D381
S3152020795001D8844200D3BC466046F0BD70B50546AA
S315202079600420002671B1234A946801E0761C143441
S3152020797044B1236833B12269002A03D09D42F5D130
S315202079800E60002070BDF0B509181A4B491E002242
S315202079905F68DC68256905EBC20606F17C041601C2
S315202079A0BD5966682468AC4208BFAE4203D08642E1
S315202079B028BFA14204D2521C012AEAD90020F0BDB8
S315202079C00120F0BD70B50B4D6E6803E0006800B154
S315202079D080471036F0680028F8D1AD6803E00968A2
S315202079E001B18847143529690029F8D162BD0000E4
S315202079F0B8240020100000200246012000E0491E65
S31520207A0021B112F8013BFF2BF9D00020704700004E
S31520207A1062B38B0708D0521E11F8013B00F8013BB8
S31520207A2000F024808B07F6D1830740F0208000BF0A
S31520207A30103A07D330B4B1E83810103AA0E83810FD
S31520207A40F9D230BC530724BFB1E80810A0E80810AB
S31520207A5044BF51F8043B40F8043BD20724BF31F8F9
S31520207A60022B20F8022B44BF0B7803707047121F7D
S31520207A7017D35B0009D151F8043B20F8023B1B0C9D
S31520207A80121F20F8023BF6D20BE051F8043B00F8F7
S31520207A90013B1B0A20F8023B1B0C121F00F8013B5E
S31520207AA0F3D238BF121D521E24BF11F8013B00F815
S31520207AB0013BF8D87047000038B504460D46002013
S31520207AC0FFF714F9524800210560524A446011609C
S31520207AD0036883F3088883F3098840688047BDE8D4
S31520207AE0314000F09EB800281CB51EBF10F1010FB2
S31520207AF04949884201D1002016BD6A460221002428
S31520207B00FFF7D9FE20B90098017ACA0748BF012479
S31520207B10204616BD10B50246404900204B6800E09D
S31520207B201033D96861B11C7A04F01104112CF7D1D5
S31520207B3019689142F4D25C68641C9442F0D30120E7
S31520207B4010BD4FF47A7070B5344C0026E1680A696E
S31520207B5002F18C05FEF72EFB00F0C5F998B9FFF748
S31520207B60C2FF80B1E068016991F8AA20D00703D42A
S31520207B7000210020FFF7A0FF6E8A4FF6FF70864275
S31520207B8008BF41F28836304602F036FC206218B90A
S31520207B900021BDE870408FE770BD38B51F4C206AA4
S31520207BA0016900291EBF096800298847226A506971
S31520207BB000281FBF016800291046884720690168D0
S31520207BC08847256A206941688847EA68D16800295C
S31520207BD0F8D028468847F5E710B500F03DF800F0A4
S31520207BE09EF90E4CE068016888470020FEF7BEFB10
S31520207BF0FEF7A8FA206801688847E268506880471F
S31520207C00FFF79FFFFFF7C9FF00F00BF8002010BDFC
S31520207C10601D002008ED00E0EDC42020100000208B
S31520207C20FEE7012080F3138830BFFBE70A0018BF48
S31520207C3001220260704772B60268521C026062B648
S31520207C4001680029FCD10120704772B60168491EBF
S31520207C50FFE7016062B6704772B600200B490860C4
S31520207C6062B6704772B609480168491C01607047A0
S31520207C7006480168022903D20022026062B67047B4
S31520207C8003685B1E0360704700000000A4240020C8
S31520207C902DE9F041FEF7EDFB8046784C1127204652
S31520207CA000212246E7FB08010023754F002502F01C
S31520207CB001FC401E4600786042F210727148002175
S31520207CC0E2FB08012246002302F0F4FB252230188D
S31520207CD0E2FB0845401CB860684A00232046294616
S31520207CE002F0E8FB3618761CFE600020BDE8F08105
S31520207CF0002B2DE9F04104460E4690464DD0042B0C
S31520207D0002D1B009800101D0042047E05C4F3878A9
S31520207D1030B92046FFF7BCFF00283FD1012038701C
S31520207D206421204600F072F8002837D14FF40075E0
S31520207D3006F03F06A5602069000C00042061216919
S31520207D407868BA68000300F47040C2F30B0210432F
S31520207D5001434D4821614D49A16006436660D8F80C
S31520207D60002022626421204600F050F8B0B9206815
S31520207D70810548BF44F6E96010D46421204600F0EE
S31520207D8045F850B9A560204600F065F84FF480608C
S31520207D9064216060204600F039F80020BDE8F0819B
S31520207DA0F8B505460E46144673B3042B02D1B00906
S31520207DB0800101D00420F2BD314F387828B92846D9
S31520207DC0FFF766FF08BB012038706421284600F0A3
S31520207DD01DF8D0B94FF4007006F03F06A86028465B
S31520207DE000F039F83F210120A96064216E602863C4
S31520207DF0284600F00BF840B92868810502D544F6BC
S31520207E00E860F2BD286C20600020F2BD2DE9F04705
S31520207E1082460F464FF47A700026FEF7CBF9A0FB58
S31520207E20078901FB0799FEF7BBF904460D46DAF8C8
S31520207E300010C8050CD5002FF9D0FEF7B1F9001B8C
S31520207E40A9414945F3D301D84045F0D344F6EB6602
S31520207E503046BDE8F08701696FF315310161084985
S31520207E6002694B68C9681B0303F47043090401F4B3
S31520207E707C110B431A4302617047000000CA9A3BCB
S31520207E80942400200065CD1D0000773E3F00FFFF93
S31520207E900A484FF0FF31016041608160C160016175
S31520207EA041618161C1610648016041608160C16094
S31520207EB0016141618161C1617047000080E100E07C
S31520207EC080E200E000F01F02204B000A914003EBE5
S31520207ED0800030B5032595400468AC4321430160DA
S31520207EE030BD1B4870470020704700000146042003
S31520207EF0002900D1704710B5087B03280CD101F149
S31520207F00780291F840104B0602D50F24147003E016
S31520207F10507808B91E211170002010BD704703210A
S31520207F2000E000214FF4C060CCE70A490860002019
S31520207F30704708490A680260002070470648016891
S31520207F40006A10F0020018BF0120704768C00F4059
S31520207F50002D310128800F4040441F4062F30F221C
S31520207F6062F31F4200B500BF13009646944610398F
S31520207F7028BFA0E80C50FAD85FEA417C28BF0CC065
S31520207F8048BF40F8042BC90728BF20F8022B48BF3A
S31520207F9000F8012B00BD00002DE9F04F06000C460D
S31520207FA0934695B01CBF002CBBF1000F01D10420B5
S31520207FB044E0DFF890804FF4807949464046FEF72A
S31520207FC0C1FE684602F08EFB88BB8DF80300DFF8E1
S31520207FD078A06946504602F087FB40BB002515E075
S31520207FE008EB851710225046394602F07FFBF0B960
S31520207FF0082207F11001504602F078FBB8B906EBAB
S31520208000C5006D1C4168B9618068F8613168C1F38B
S3152020801003208542E4DBC9B2404601F0E7FD306803
S31520208020C0F3032028B1404601F032FE08B10120DA
S3152020803004E0C4F800800020CBF8009015B0BDE8FD
S31520208040F08F00BF601C002000C00C4070B5054694
S315202080500E4601F015FD04000BD1012306F1800206
S315202080600021284601F00EFD707C012804BF002146
S315202080703174204670BDF0B50F260F24054689B0F1
S31520208080029601EB041600208DF810208DF80000B2
S31520208090012701930123039706F180020121284617
S315202080A001F0F0FC0297694600F02BF909B0F0BDEB
S315202080B0F0B589B004460D4616461F4600F01BF83B
S315202080C0B8B98DF800000E2005EB00110E22029281
S315202080D001230393204601F180028DF81060019739
S315202080E0012101F0CFFC012069460290204601F0B3
S315202080F0F6FC09B0F0BD2DE9F843804684B00C4645
S3152020810016461F4604202CB304F5E675687818B168
S315202081104046FFF7B0FFE8B9287804F1B0090228D5
S315202081200AD1694699E80D1081E80D1004F1C000A6
S3152020813090E80E1089E80E103B46324621464046EE
S3152020814001F070FC2978022904D16A4692E83A0087
S3152020815089E83A0005B0BDE8F083F8B50C4684B02E
S315202081600421ECB194F8CC1104F1900502290AD10E
S315202081706E4695E8825086E8825004F1A00191E867
S31520208180C05085E8C050214601F0BBFC014694F83A
S31520208190CC01022804D16A4692E8590085E8590084
S315202081A0084605B0F0BD2DE9FE435FEA0108814669
S315202081B015464AD0012D48D808F5E476307800288F
S315202081C043D008F1400748463C6801F08AFC3178C4
S315202081D0A40904F0010465B939B122464846FEF7C0
S315202081E049F94146484601F012FCB07988B101216F
S315202081F00CE041B1B97922464846FEF73BF9414683
S31520208200484601F004FCB07918B10021484601F017
S315202082107CFC6A4602214846FEF76BF914B1009889
S315202082204008009001AA00214846FEF762F90199EC
S31520208230009A0A20B1FBF2F1491C4143890800E04B
S3152020824000BF0846411E0028FAD1BDE8F7832DE954
S31520208250F0430546894689B017461E46484601F012
S31520208260CFFB80460022494600F04CF900F041F829
S31520208270FFF741FF040031D1022109238DF8001098
S3152020828001220293039299F8471009F5C872002912
S315202082901CBF1078002803D05178029113780393BD
S315202082A001978DF810800596116B0691029809EB9F
S315202082B00011039B00F0C8F800F020F804000DD12F
S315202082C000F017F8FFF749FF040007D199F8CF01EE
S315202082D020B100F00EF8FFF7EBFE0446284601F009
S315202082E006FC0122494600F00DF9204609B0BDE8DA
S315202082F0F0833B4642464946284670470120694638
S315202083000290284601F0EBBB2DE9F84789B00024DE
S3152020831001220B2389468DF80040039200270293E1
S3152020832080468DF8104099F8471000291EBF09F580
S31520208330CA710878002803D04A7802920D780395CE
S3152020834000224946404609F1500AFFF72CFF042512
S315202083505AF8046BCEB13B46002249464046FFF7E9
S31520208360CAFE040014D10197029809EB0011039B41
S31520208370404601F18002012101F084FB012069465B
S31520208380029000F092FA040002D1F7196D1EDFD177
S315202083904646ECB94FF0000809F150070425002085
S315202083A057F8044B84B14346002249463046FFF70E
S315202083B0D4FE60B999F8CF1131B1434600224946FF
S315202083C03046FFF775FE10B96D1EA044E8D104464D
S315202083D0304601F08CFB012249463046FFF7E3FE6A
S315202083E020460AB0BDE8F0872DE9F84105460E461D
S315202083F089B01746304601F003FB00F080F800F0E4
S315202084006EF804001BD100220123052400F06CF80D
S315202084101EBF06F5C6710878002800F050F800F037
S315202084200FF8FFF76BFF040009D100F053F8040082
S3152020843005D196F8CF0110B100F047F8044634E074
S315202084400298039B06EB0011284601F180020121A8
S3152020845001F018BB2DE9F84105460E4689B017468E
S31520208460304601F0CDFA00F04AF800F038F8040042
S315202084701BD100220123082400F036F81EBF06F562
S31520208480CE710878002800F01AF8FFF7D9FFFFF7F9
S3152020849035FF040009D100F01DF8040005D196F817
S315202084A0CF0110B100F011F80446284601F01FFB39
S315202084B0012200F026F820460AB0BDE8F08103D03C
S315202084C04A7802920978039170473B4642463146C4
S315202084D02846EDE53B464246314628463DE63B4684
S315202084E042463146284606E601978DF8002003931A
S315202084F002948DF8108096F8471000297047804600
S315202085000022314628464EE6F0B5054689B00E466D
S3152020851014461F46042084B124216846FEF712FC07
S31520208520032201238DF800206946029328460393CF
S3152020853007940897019601F0D2FA09B0F0BD000001
S31520208540F8B50D461E468EB00746002101A8002309
S3152020855000248C4680E81A101168042902D8506815
S31520208560402817D301212974106C000D00F0070034
S31520208570401E05280CD8DFE800F003070903030571
S3152020858002240CE004240AE0012408E0032406E067
S315202085902B747BE03168C1F30324002C76D0009322
S315202085A00322069301218DF82430631E032B8DF898
S315202085B01420CDF830D00D91079108910ED8DFE800
S315202085C003F006020A02DFF8A42A019206E0DFF869
S315202085D0A01A019102E0DFF89C0A0190012301AA4A
S315202085E00121384601F04EFA05A9384601F077FADE
S315202085F000284CD13068C0F3036000281FBF706864
S31520208600C0F3072000280090641E0021032C297423
S315202086103CD8DFE804F00210271C009A510635D4F6
S31520208620DFF8540AC5F8E000009A02F0C30242F0AF
S315202086304002009221E00099880727D4DFF83C2ABF
S31520208640C5F8E0200099090241F4007114E0009950
S3152020865088071BD4DFF8282AC5F8E020009941F0A6
S31520208660020109E00099080610D4DFF8EC2CC5F8A1
S31520208670E020009941F0800100910120012106226D
S31520208680287429756A750098A861697400200FB02E
S31520208690F0BD0022F8B50C460023002605468EB0F4
S315202086A00AA90292002081E84D00032200908DF82D
S315202086B0143001218DF804200126DFF8A07CCDF886
S315202086C020D00991012303910AAA049628460A97C5
S315202086D001F0D8F901A9FFF714FEB8B900990422B0
S315202086E001F0F7010091267400992675090401F4FA
S315202086F07F0141F0042141F08101C4F860110E214F
S315202087006175009BA361627484F8CF610FB0F0BDC0
S315202087102DE9F847914600220C4691B08DF810207D
S315202087204FF400710292012280460191039254B3A4
S31520208730032109AA8DF800101026079204F180073C
S31520208740089601233A46012101F09CF90126694623
S31520208750029600F0AAF8B0B9DDF8240049A610F157
S31520208760010F02BF09A8416811F1010F07D18268C4
S3152020877012F1010F04BFC06810F1010F09D000F0DB
S315202087808FF800283CD044F68E6A504612B0BDE8B9
S31520208790F0870023002221464046FFF7ACFC002824
S315202087A0F1D109201023029002220693039B8DF8F3
S315202087B00020029807EB001205960121404601F081
S315202087C061F9012140460291694601F088F9002885
S315202087D0D9D1002300222146404601F092F90028D3
S315202087E0D1D100F057F869468DF8002040460793EE
S315202087F001F075F90028C6D100F052F80028C2D120
S3152020880004F1400701223868B9790225322440F044
S31520208810400038604046FDF72DFE00E06D1C641EAA
S31520208820B1D000210DA8002200238C4680E80E100E
S315202088303969DFF83C2D4046914205F0FF0227BFDB
S31520208840DFF81C3B0D93DFF81C1B0D91DFF8243D30
S3152020885000211A4301230E920DAA01F013F90020BC
S3152020886000F018F88DF800206946079300F01DF8CF
S315202088705FEA000A87D100F013F80028CED1C9F884
S31520208880005082E700112233445566778899AABB87
S31520208890CCDDEEFF10210290032209AB0891704710
S315202088A0102209A9304601F041BB404601F017B9F4
S315202088B02DE9F043CE68012504464FF48070002E22
S315202088C047BFF61E05FA06F6761CF60826654E687C
S315202088D0402E08D30E6BC6F3031605FA06F6B6F518
S315202088E0004F18BF304604F5E07C6FF07F4ECCF861
S315202088F000004FF00008002701EB470090F82400E5
S3152020890058B105FA00F070453CBF8646B9468045E9
S315202089103EBFB0F5801F80463E467F1C042FEBD3FA
S31520208920C645CCF804E0CCF81080DFF8445C0CBFB8
S31520208930012000208CF80900246DAC4225D391F823
S31520208940580040B101F16004603114F809501560D7
S31520208950885D186023E001F1250010F81940202CAD
S3152020896004D0D82C04BFDC25156001E0212010601E
S31520208970253111F81600202802D0D82803D00EE061
S3152020898021221A600BE0DC2108E001F1250010F8F5
S315202089901940146001F1250212F8161019600020E2
S315202089A0BDE8F0832DE9FC4F85B016461A6881462E
S315202089B000244FF00408C2F30350012802BFB068F8
S315202089C0C0F3C044002C00F0628100910098002161
S315202089D003AB18250173069A009811780022924637
S315202089E0934601F00F0180F846100098019204AAC0
S315202089F03146FFF75DFF0099DFF8742B01F1500710
S31520208A00386890420698016828BF2025C1F3033094
S31520208A10002809D1069B0099CDF808903246484671
S31520208A20FFF78EFD5FEA000840F03181B168C1F37F
S31520208A30405038B130694FF0020BC0F3421A00F093
S31520208A401F0008E0C1F3805030B13069410D01F09C
S31520208A50070AC0F3044001900098202D42F2040218
S31520208A6000F1D0011AD196F8580098B106F1580392
S31520208A70D3F804C042F20423CCF3002010B1DFF84F
S31520208A80F80A04E0CCF3C01020B1DFF8F00A08641D
S31520208A904B6407E0DFF8E83A0B6402E0DFF8E40AEB
S31520208AA008644A640098012240F206430273DFF8E4
S31520208AB0D82A3B663A64049800F0FF0040EA054035
S31520208AC040F0006040F480600860039A4FF48C6088
S31520208AD0086602F0FF0242EA054242F0006242F4B2
S31520208AE080620A6306990868C0F3036058B1496812
S31520208AF00A0608D001F0FF014FF0000A0191F4B1D7
S31520208B00480001901BE0D4B1002818DC202D05D187
S31520208B10DFF8B80BDFF8B81B386379630099029821
S31520208B20FFF794FA5FEA00085FD10099029801AA1C
S31520208B30FFF7EEFD5FEA000857D14FF0000A182D07
S31520208B401AD154B1ED20009940EA05400A6C42F032
S31520208B5040020A6440F00A403AE0B168C1F340502E
S31520208B6010B13069000A2CE0C1F3805010B1306971
S31520208B70000E26E0032021E00CB1EE20E3E706F1EB
S31520208B805801087870B14968C1F3401018B1EC201B
S31520208B904FF0020B15E0C1F3001070B16C204FF09E
S31520208BA0000B0EE0B168C1F3405008B1EC2008E07C
S31520208BB0C1F3805008B16C2003E0132000218A469F
S31520208BC00191C0B240EA054040EA0B6040F00060C7
S31520208BD040F48060002138630098069A00F2CD196F
S31520208BE01068C0F3031040B1012850D17068402886
S31520208BF003D3326CC2F3402018B901985044019017
S31520208C0032E0120C12F0050F18BFA5210BD19007C8
S31520208C1009D5069B009902983246FFF73AFD5FEA6E
S31520208C20000834D10121306C009A800A10F00A0FF6
S31520208C3002F5B87208D0202D6FF0F9201060506010
S31520208C400CD140F2FF6008E010F0110F1FD04FF03A
S31520208C50062010605060DFF87C0A90600122BAF16D
S31520208C60000F89F8002021D10198C8B100F0FF011A
S31520208C708CB1DFF8000901437963012189F80110BD
S31520208C800098026C42F0400202644FF000084046F1
S31520208C9007B0BDE8F08FDFF8400A01437963F4E797
S31520208CA0002C42F204417963E7D1EEE701980004D3
S31520208CB000F47F008CB1BAF1010F06BF26230909E3
S31520208CC0272341EA8321014341F0324141F40071B7
S31520208CD0DFF8080A7963B863CFE7BAF1010F06BF38
S31520208CE006230909072341EA8321014341F04851FC
S31520208CF041F40071DFF8A40B7963B863C5E72DE949
S31520208D00F84F0D0096B0144608BF4FF0040869D0DE
S31520208D10834608236A460021FFF7F6FB5FEA000810
S31520208D2060D10098DFF8781B884218BF44F68B68FC
S31520208D3058D19DF8040028609DF806707F1C0A2FC4
S31520208D4088BF0A2708210CB14FF40061FB0002AA34
S31520208D505846FFF7D9FB5FEA000843D1642128460D
S31520208D60FDF7F0FF4FF0000A4FF6847904E001204A
S31520208D7085F858000AF1010ABA4533D202A901EB37
S31520208D80CA000278C37902EB0322B2F57F4F18BFBF
S31520208D904A45EFD100210223C6185B1E367946EAC2
S31520208DA00121F9D5C678B60004B10902B2F57F4F64
S31520208DB00DD1502E05F10802584688BF502633463D
S31520208DC0FFF7A2FB5FEA00080CD16E60D2E74A4586
S31520208DD0D0D1334605F15C025846FFF795FB5FEA72
S31520208DE00008C4D0404617B0BDE8F08FF0B5490042
S31520208DF089B003250191002601278DF80050694668
S31520208E00029603978DF810600792089300F067FE6C
S31520208E100AB0E0BD490060B589B002250191002144
S31520208E2001268DF810108DF800506946029603967B
S31520208E300592069300F053FE09B060BD2DE9F84750
S31520208E4005460C4687B00320E07304F1450008212F
S31520208E50582301700326236426731AB1216C41F00E
S31520208E6001012164012204F1500682700F20012184
S31520208E70B085F18504F5C2774FF400724FF4802037
S31520208E80FA6304F2C9183864C4F8D001284688F851
S31520208E9000102146FFF7DAF8002862D100F0F2F818
S31520208EA00DF10C0A80E80E10DFF8F819DFF8F82902
S31520208EB003910123CAF8042003AA0121284600F0A1
S31520208EC0E1FD00F0DFF8DFF8E49980E80E10DFF806
S31520208ED0E019CDF80C90CAF80410012303AA00212A
S31520208EE0284600F0CFFD4FF418400223029002AA14
S31520208EF040F255512846FFF78DFF002831D108230F
S31520208F006A4610212846FFF771FF002829D10098AC
S31520208F10DFF8A0290199904289B2019108BFB1F5C5
S31520208F20B24F40F09F8008236A4627212846FFF724
S31520208F305DFF002815D10098C0F30720A0F1170166
S31520208F400A29009080F08E800122824032604FF4E0
S31520208F5070410291022302AA00212846FFF75AFFD8
S31520208F6000287CD1DFF850194AF20475DFF84CC965
S31520208F707163B5634FF08721C6F84CC0DFF84029CE
S31520208F80B565DFF84039DFF840E9DFF84059DFF8EA
S31520208F9040C9C6F854E0DFF83CE9C6F83090316481
S31520208FA048F2307A7264B364C6F85090DFF8289974
S31520208FB031667266B366F26631677567C6F878C021
S31520208FC0F56704F1D006C6F84CE0DFF810E9C6F8BC
S31520208FD050E004F5A874C6F85490DFF80499C6F832
S31520208FE030E0DFF800E931647264B3643160726086
S31520208FF0B360C6F80C9031617261B361F26131625F
S315202090007562C6F828C0F562C6F834E0C6F838A0DE
S3152020901031667266B366C6F86C9031677267B3673D
S31520209020F26721602161DFF8C01862610222656043
S31520209030C4F808C0E560A3610323E16104213A71E5
S3152020904001247B7109233A703A73052239723974C7
S315202090500B217C707B737A72797488F8034008B070
S31520209060BDE8F08744F68D60F9E700003504012439
S31520209070050401243F0401240104012001040220C7
S3152020908031040120002103A8002200238C467047AA
S315202090902DE9F04F8DB09046D8F80020C2F3035327
S315202090A0052B0CBF01260026C2F30335002DC2F363
S315202090B0034418BF032D07D18A460AF13007834679
S315202090C02CB1032C00D1E5B94FF0040940E16846C4
S315202090D0FEF72FFF81460020FEF727FFB9F1000F6C
S315202090E007D16A465146584600F036FB5FEA00090A
S315202090F0ECD1002010218AF80C00032239610C9231
S315202091000EE0032010218AF80C003961D8F80000DF
S31520209110C0F30350042804BF5021396106200C9047
S3152020912054EA0500514608BF0126032D0CBF08200E
S31520209130012078755846FEF789FF5FEA0009C5D1D8
S315202091400CB9002003E0002E14BF102020200FF69B
S31520209150600101230A180121584600F093FC0020C3
S315202091600323059002AA8DF8200001208DF81030C7
S3152020917004A90690079058460B9200F0B0FC5FEAAF
S31520209180000904BF9DF80800C2289FD102A9002CFF
S315202091904FF480300AF5E07B86F0010607BF8978F8
S315202091A030394A79A2F1300100FA01F14FF4807268
S315202091B039624FF48051CBF810000320CBF80410ED
S315202091C01021002CCBF800208AF80C00396108BF2A
S315202091D0032D01960AF1B0064AD101200221062349
S315202091E08AF811108AF810000022AAF81200DFF857
S315202091F0FC168AF8153007238AF8140001988DF872
S3152020920000204FF004228DF80330DFF8E436A8B191
S31520209210822402208DF80140CAF818003363726335
S31520209220B163D8F80000C0F30310032819BF00202B
S315202092308BF80A0001218BF80A1016E081240220DF
S315202092408DF80140DFF8AC46CAF8180001203363B8
S3152020925074630724B1638AF81C008AF821408AF8AF
S315202092602000386033647264B1640098FEF75DFE96
S3152020927040F20640C44930603966C5B90122DFF87C
S3152020928078068AF80C20DFF874163865BC4A79658A
S3152020929042F204003266DFF868167066DFF864262C
S315202092A031624FF48C633265CAF8303150E0019830
S315202092B038B9012402210C2009220823DFF8485638
S315202092C006E0212422212C2029222823DFF83C569F
S315202092D03D65890241EA8065DFF83406920242F430
S315202092E0417241EA836341F448712843A50645EA41
S315202092F084257865DFF81C06BA65DFF81C462843E6
S315202093002C43306145F003203C67DFF81046786710
S315202093102C43B867DFF80806FA67DFF808262A43C1
S3152020932003433266DFF8000673662843346271628F
S3152020933030657165DFF8F4150D43CAF83051019870
S3152020934018B1396941F04001396102208BF80C00AF
S3152020935048460DB0BDE8F08F3E0402208504012446
S31520209360EE04208AED04188A2DE9F84F9CB0044695
S3152020937016460D463068C0F30352072AC0F3034031
S315202093800CBF01270027B0B96846FEF7D2FD8046DC
S315202093900020FEF7CAFDB8F1000F07D16A462946FC
S315202093A0204600F0D9F95FEA00082CD100201021B0
S315202093B02873296403E0032250202A732864082175
S315202093C0204685F845102946FEF740FE5FEA00082C
S315202093D019D130680FF20862C0F3034008B901237F
S315202093E003E003280FD1012310320121204600F06B
S315202093F049FB0820002285F8450003A92046FFF7CF
S315202094007EFC5FEA000872D101AB02AA03A9284696
S31520209410FFF74EFA380005F1D00442F20109DFF8B1
S3152020942010A504D15021032229642A730DE0C4F803
S3152020943010A0DFF8000560610C21C4F818900122E5
S315202094400620A9612A7468752A7505F1500140F213
S3152020945006404D4A08660A64306805F5E67BDFF843
S31520209460D824C0F30343032B1CBFC0F303300328A7
S3152020947041D1DFF8C8044A630865DFF8C43440F2D6
S3152020948006720B630A67DFF8BC042060DFF8B81485
S3152020949021634FF4EC632366DFF8B02422644AF27A
S315202094A0043060643168C1F30340E8B90022062104
S315202094B082238DF800208DF803108DF80130009836
S315202094C0FEF733FD012002212874E7226974062045
S315202094D00121AA6168754FF0042029756982C4F894
S315202094E010A06061C4F8189002218BF80010404625
S315202094F01DB0BDE8F08F0028F9D10868029EDFF85C
S315202095005054B0F1807F06F0FF0627BF20208E23FF
S315202095101820C22346EA004643EA00432E4326600B
S31520209520019E06F0FF0646EA004635432563DFF80E
S3152020953024542B4323644FF40E5363643FB9DFF83E
S3152020954018044A63086301218BF802100CE00B688B
S31520209550CB22B3F1807F28BFCC2242EA0040284389
S315202095600863DFF8F80348634FF48C612166BEE771
S315202095700100000100B204A63E04200A340420087B
S315202095801204200802041808050404242DE9F841B1
S315202095900D4604241646002D99B0804618BF002E6D
S315202095A000F090804FF400712846FDF7CBFB05F1A3
S315202095B0440701224FF08073BA70FB60DFF8A003C6
S315202095C02860DFF8A0130322012069606A73AA733A
S315202095D085F8C8013168C1F30360002808DD70686A
S315202095E0C0F30340012803D1296C41F480712964FA
S315202095F03068020D02F00F02072A59D8DFE802F060
S31520209600040444464C4C5252C0F3034000284FD108
S31520209610DFF854132E4AF96329467C7040463A6473
S31520209620FEF714FD040043D13068C0F3031001284F
S3152020963010D105F5B8706FF0F92101600023416043
S3152020964040F2FF618160002229464046FEF713FD45
S3152020965004002DD131680FF218300123C1F30341C4
S3152020966000EB01120121404600F00CFA0022694647
S315202096704046FFF744FB04001AD133466A46294662
S315202096804046FFF78FF912E0012200E0002229460A
S315202096904046FFF7D3FB0AE0324629464046FFF7ED
S315202096A0F7FC04E0324629464046FFF75DFE044695
S315202096B034B92846FEF71AFC307800F00F00B8702F
S315202096C00121397020461AB0BDE8F0811304200804
S315202096D004240100001E10320032042604A6017C38
S315202096E02DE9F04180460C46042074B304F5E2753A
S315202096F09F1829687F42494201EA02066A790F406B
S315202097007F420AB9E96889B9BE421ED200F01FF805
S31520209710002804BF29688E19F6D016E03246214645
S315202097204046FEF797FE80B9E9688E19BE420CD2D4
S31520209730E96836EA010002D1B81B8842EED200F051
S3152020974006F8002808BF2968EFD0BDE8F081324608
S3152020975021464046FEF748BE2DE9F8430E461446DC
S315202097600421002C92B0804604D06078217888424B
S3152020977008BF002100F08D8006F1450708203870AB
S31520209780607803254FF00109422818BF412802D1CD
S315202097900420022538706078822814BF42284FF092
S315202097A02109002020210A908DF834008DF82400EC
S315202097B001200B9001A8FDF7C5FAE4782A0201AB17
S315202097C0062C0ED031D3082C01D014D32DE040F214
S315202097D00640104340F2FF4101900A431A610222BB
S315202097E024E040F2994140F2664414430A431A6128
S315202097F0022201941AE042EA8922B9F1210F42EA93
S31520209800056242EA896242F4190042F4CC0240F011
S31520209810660042F0990201901A6103D1306C40F023
S315202098204000306402210C9101E001220C9201209B
S315202098304FF08071787006F150000160484A3260FE
S315202098400324484B012273600A2374733146B47370
S3152020985086F8C82143624046FEF7F8FB010018D15E
S315202098600C9B01AA012140464FF47A7400F00AF994
S3152020987009A9FFF71AF83D4A01461368B3FBF4F409
S31520209880009403E000BF009A521E00920098002800
S31520209890F8D1084613B0BDE8F08300000426017CE9
S315202098A0534644502087188B108F02A3A087188BED
S315202098B0108F04A700510052108F06B3008770879F
S315202098C00087AA8700870587108F0BB700875587C3
S315202098D0008702870087A087108F80A30087188B98
S315202098E000878087108F008700871087000401203B
S315202098F072040004000402040C0420080830042406
S3152020990021042008DC042008EC071307EE871187A2
S31520209910200306030603F9030503FA032103DE03C6
S31520209920200304031203ED03DC03230360039F03B8
S31520209930810400040004010406B304A7050704A734
S31520209940FD07208B2107208BDC07208B1207208BFD
S31520209950000400080004000BFD04208B0C33042790
S31520209960464346420004015603041808B00000204E
S315202099705A0418080830FF240000000000000000C8
S315202099805A0518090831FF250000000000000000B4
S315202099905A06180A0832FF260000000000000000A0
S315202099A00000000000000000000000000000000071
S315202099B09F04032400000000000000000000000097
S315202099C09F076007200B04270000000000000000EE
S315202099D09F876087208B04A70000000000000000DE
S315202099E05A0418080830FF24000000000000000058
S315202099F05A07208BFFA7000000000000000000006F
S31520209A0090F8400010F0040018BF01207047494A02
S31520209A101047D0F8E010CA07FBD5D0F8E0309907D8
S31520209A20FBD57047F0B5044689B0042031B3002019
S31520209A30012603278DF80000039602978DF8102023
S31520209A40019391F84720002A1EBF01F5C472107891
S31520209A50002803D05378029312780392029D039B09
S31520209A6001EB05160121204606F1800200F00AF8B6
S31520209A700123694602932046304A904709B0F0BD1B
S31520209A802F4A10472DE9F0420F4614461E46042140
S31520209A9010BB0CB34FF00009BA1949EB0903002B70
S31520209AA01AD8112A18D200F040F826480221A86197
S31520209AB0E961B90005EB8102F71902F5007204E08D
S31520209AC054F8043B491C42F8043BB1EB870FF7D3EB
S31520209AD0A8610120E86100210846BDE8F082174AE6
S31520209AE0104718B9184801688A07FBD5704738B936
S31520209AF01148016841F0010101600268D307FCD4B6
S31520209B00704710B5114CA04710BD38B50C4658B932
S31520209B1000F00BF824B1296841F40061296031BD99
S31520209B20286820F40060286031BD034D284670E760
S31520209B300000000025BE200000000A4075BB200042
S31520209B4039C32000F05AF05AE0000A4025C02000F0
S31520209B5000F0D6BD13460A460146184680B503E0D6
S31520209B6013460A4680B51946FDF752FF002002BD4E
S31520209B7010B514460A4621460123BDE81040FCF7BD
S31520209B803FB9000062F30F2262F31F42401810F003
S31520209B90030308D0C91A1FD3DB0748BF00F8012DBD
S31520209BA028BF20F8022D130030B41446154610394C
S31520209BB028BF20E93C00FAD8490728BF20E90C0015
S31520209BC048BF40F8042D890028BF20F8022D48BF21
S31520209BD000F8012D30BC7047C91818BF00F8012D98
S31520209BE0CB0728BF00F8012D704700002DE9F84348
S31520209BF0040024D05FEA010923D10027DFF80C8353
S31520209C0000F03DF804F11003334408F1100CAC4465
S31520209C10186808F11802CCF800005868CCF804001F
S31520209C2004F11800815904F11C035151042F9E5927
S31520209C3008F11C004651E3DBB548C0F80090BDE88A
S31520209C40F1830027DFF8CC8200F019F804F1100008
S31520209C50304408F1100129440268042F0A60426822
S31520209C604A6004F11802935908F11800435104F16F
S31520209C701C00815908F11C067151E5DBDCE77D01CA
S31520209C80BE011022A11908EB05007F1CFDF7C0BEDE
S31520209C902DE9F94E9AB008B9042082E0002403AFBA
S31520209CA00DF1140A0DF11C0B9BA0D0E90023CDE960
S31520209CB0012301A800F06EF91A98202200EB8411C6
S31520209CC001A8009100F06CF9009800F1240101A868
S31520209CD000F07CF909A800F021FD002864D100BFFE
S31520209CE08FA11A9D03A8D1E90023C0E9002305EB03
S31520209CF0841108200DAD0A1812F8083C2B54401C5C
S31520209D003028F8D100264FF001090020395C00EBDD
S31520209D10C9020AF80010AB5C0BF80030401C08285A
S31520209D20F4DB00BF80A08022016809A800F00AFD8C
S31520209D30002839D1102105AB009105AA012109A8B7
S31520209D4000F01EFE80BB1AF8001000EBC903395420
S31520209D501BF80020401C0828EA54F4DBF87906EB8F
S31520209D608601494409F101094840B9F1060FF871E5
S31520209D70CBDB761C062EC6DB00201A9901EB84123B
S31520209D803B5C1354401C0828F8DB1A910820295CD8
S31520209D901154401C3028FAD1641C042CFFF684AFC1
S31520209DA000201CB0BDE8F08E0120FAE760B5002225
S31520209DB0564B03EB42139D69A84221BFDB690E183F
S31520209DC0761EB34218D2521C042AF1DB504A12685E
S31520209DD082B1A0EB824000224E4B03EB42139D69B9
S31520209DE0A84221BFDB690E18761EB34204D2521C2C
S31520209DF0042AF1DB002060BD012060BDF0B50C00F7
S31520209E0015468DB018BF002D05D010F00F0F08BFB6
S31520209E1014F00F0F01D0042074E0002600223B49C5
S31520209E2001EB42118F69B84224BFCB6983421AD2F3
S31520209E30521C032AF3DD364A116891B1344B002295
S31520209E401F68A0EB8740334901EB42118F69B84246
S31520209E5024BFCB69834208D2521C032AF3DD00900B
S31520209E6036B903204EE00E46E8E700900E46F7E787
S31520209E7005A800F053FC002846D18022314605A8AB
S31520209E8001AF00F05FFC01A81021FCF75BFF06F173
S31520209E90100001A902680A6042684A603269706926
S31520209EA09DF8031000268DF810109DF801104240D1
S31520209EB09DF80000BA609DF802208DF812108DF8CA
S31520209EC01120F873102109AB009101AA012105A8C0
S31520209ED000F056FDC0B909AB811913F800C06A5CA1
S31520209EE0401C10288CEA02026A54F5DB0F20395CCC
S31520209EF010313954C9B209B9401EF8D51036B442AA
S31520209F00E0D200200DB0F0BD0120FBE7681D002027
S31520209F10681E0020E81D0020000000000000000030
S31520209F20A6A6A6A6A6A6A6A6EFCDDCFE0300002002
S31520209F3013F0030F09D0521E22BF13F8010B11F87C
S31520209F4001CBB0EB0C00F3D0704711F0030F14D1E6
S31520209F50121F22BF53F8040B51F804CB6045F7D0CB
S31520209F60121D0AD200BA9CFA8CFCB0EB0C0038BF2A
S31520209F706FF0000088BF01207047521E22BF13F8C1
S31520209F80010B11F801CBB0EB0C00F6D0521C08BF08
S31520209F90104670474FF0FF31002201604260704723
S31520209FA030B54368D0F8004013A5D318436007E0A6
S31520209FB011F8013B83EA146355F8233083EA0424FD
S31520209FC013465A1E002BF3D1046030BD70B542686B
S31520209FD0036812F0030F0BD002F00302C2F1040231
S31520209FE005A41D0E521E54F8256086EA0323F8D1B7
S31520209FF003600B6070BD000000000000B71DC10487
S3152020A0006E3B8209D926430DDC7604136B6BC5176C
S3152020A010B24D861A0550471EB8ED08260FF0C922E4
S3152020A020D6D68A2F61CB4B2B649B0C35D386CD314C
S3152020A0300AA08E3CBDBD4F3870DB114CC7C6D04818
S3152020A0401EE09345A9FD5241ACAD155F1BB0D45BF4
S3152020A050C2969756758B5652C836196A7F2BD86E5C
S3152020A060A60D9B6311105A6714401D79A35DDC7DD4
S3152020A0707A7B9F70CD665E74E0B6239857ABE29CC0
S3152020A0808E8DA191399060953CC0278B8BDDE68FF4
S3152020A09052FBA582E5E66486585B2BBEEF46EABADC
S3152020A0A03660A9B7817D68B3842D2FAD3330EEA9D4
S3152020A0B0EA16ADA45D0B6CA0906D32D42770F3D038
S3152020A0C0FE56B0DD494B71D94C1B36C7FB06F7C36C
S3152020A0D02220B4CE953D75CA28803AF29F9DFBF664
S3152020A0E046BBB8FBF1A679FFF4F63EE143EBFFE54C
S3152020A0F09ACDBCE82DD07DEC77708634C06D473064
S3152020A100194B043DAE56C539AB0682271C1B43236B
S3152020A110C53D002E7220C12ACF9D8E1278804F16E3
S3152020A120A1A60C1B16BBCD1F13EB8A01A4F64B054B
S3152020A1307DD00808CACDC90C07AB9778B0B6567C17
S3152020A14069901571DE8DD475DBDD936B6CC0526FF3
S3152020A150B5E6116202FBD066BF469F5E085B5E5A5B
S3152020A160D17D1D576660DC5363309B4DD42D5A49D3
S3152020A1700D0B1944BA16D84097C6A5AC20DB64A887
S3152020A180F9FD27A54EE0E6A14BB0A1BFFCAD60BBF3
S3152020A190258B23B69296E2B22F2BAD8A98366C8EDB
S3152020A1A041102F83F60DEE87F35DA9994440689DD3
S3152020A1B09D662B902A7BEA94E71DB4E0500075E437
S3152020A1C0892636E93E3BF7ED3B6BB0F38C7671F76B
S3152020A1D0555032FAE24DF3FE5FF0BCC6E8ED7DC263
S3152020A1E031CB3ECF86D6FFCB8386B8D5349B79D14B
S3152020A1F0EDBD3ADC5AA0FBD8EEE00C6959FDCD6DB9
S3152020A20080DB8E6037C64F643296087A858BC97E6E
S3152020A2105CAD8A73EBB04B77560D044FE110C54BDE
S3152020A220383686468F2B47428A7B005C3D66C1584E
S3152020A230E4408255535D43519E3B1D252926DC2132
S3152020A240F0009F2C471D5E28424D1936F550D832F6
S3152020A2502C769B3F9B6B5A3B26D6150391CBD40756
S3152020A26048ED970AFFF0560EFAA011104DBDD014D6
S3152020A270949B93192386521D0E562FF1B94BEEF53A
S3152020A280606DADF8D7706CFCD2202BE2653DEAE6F6
S3152020A290BC1BA9EB0B0668EFB6BB27D701A6E6D3D6
S3152020A2A0D880A5DE6F9D64DA6ACD23C4DDD0E2C0D6
S3152020A2B004F6A1CDB3EB60C97E8D3EBDC990FFB912
S3152020A2C010B6BCB4A7AB7DB0A2FB3AAE15E6FBAA6E
S3152020A2D0CCC0B8A77BDD79A3C660369B717DF79F5E
S3152020A2E0A85BB4921F4675961A163288AD0BF38C4E
S3152020A2F0742DB081C330718599908A5D2E8D4B59EE
S3152020A300F7AB085440B6C95045E68E4EF2FB4F4A6D
S3152020A3102BDD0C479CC0CD43217D827B9660437FDD
S3152020A3204F460072F85BC176FD0B86684A16476C4D
S3152020A33093300461242DC565E94B9B115E565A1531
S3152020A34087701918306DD81C353D9F0282205E06F5
S3152020A3505B061D0BEC1BDC0F51A69337E6BB523355
S3152020A3603F9D113E8880D03A8DD097243ACD5620D5
S3152020A370E3EB152D54F6D4297926A9C5CE3B68C101
S3152020A380171D2BCCA000EAC8A550ADD6124D6CD2F5
S3152020A390CB6B2FDF7C76EEDBC1CBA1E376D660E7D5
S3152020A3A0AFF023EA18EDE2EE1DBDA5F0AAA064F4D5
S3152020A3B0738627F9C49BE6FD09FDB889BEE0798D11
S3152020A3C067C63A80D0DBFB84D58BBC9A62967D9E6D
S3152020A3D0BBB03E930CADFF97B110B0AF060D71AB5D
S3152020A3E0DF2B32A66836F3A26D66B4BCDA7B75B84D
S3152020A3F0035D36B5B440F7B12DE9F84F04462B4816
S3152020A400C1682B4F4FF000083D460A6902F18C06A1
S3152020A41009E0317C014205D06B69EA6828469969B2
S3152020A42053689847183528680028F2D14FF47A7057
S3152020A430FBF7C0FEA0FB049501FB0455FBF7B0FEFD
S3152020A44082468B460020854208BF81450AD0FBF7ED
S3152020A450A7FEB0EB0A0061EB0B01A94222D828BF48
S3152020A46048451FD23C4600E0183421680029E9D00F
S3152020A470327C0A42F8D0E16820460B6898470028AB
S3152020A480F2D05FEA0408DDD009E0317C014218BF12
S3152020A490B84503D0FB683846996888471837386806
S3152020A4A00028F2D14046BDE8F28F00BF10000020E0
S3152020A4B0985F2020BBBBE1B1B2F5803F80F07E8043
S3152020A4C0022A1ED98C46B1FBF2F102FB11C31B04D2
S3152020A4D043EA1043B3FBF2FC02FB1C3380B240EA72
S3152020A4E00343B3FBF2F002FB103240EA0C40002378
S3152020A4F07047022A05D98446B0FBF2F002FB10C22F
S3152020A50070474AB105D100F0010249085FEA3000C0
S3152020A510704700220023704700F086BA0B00020005
S3152020A520002100207047904271EB030CF6D3B3F53F
S3152020A530803F2FD2F0B5B3FA83F7B1FA81F4A7F191
S3152020A5400F0E3D1B5340CEF1200602FA0EF2F341A8
S3152020A5505340B5F10F0746D80F3C2C444140C4F157
S3152020A5602006A040F1414140B1FBF3F603FB161132
S3152020A570A2FB0645001BA94102D2761E801859410E
S3152020A58080EA010221FA0EF362FA0EF200215A40E5
S3152020A5903046F0BD30B4B1FBF3FC03FB1C11A2FB0B
S3152020A5A00C45001BA94103D2ACF1010C801859415E
S3152020A5B030BC02460B46604600217047B2F1807FB0
S3152020A5C065D3F0B5B2FA82F7B1FA81F4C7F10F0656
S3152020A5D03D1B22FA06F307F1110EF24120355A408F
S3152020A5E0B5F10F07B8D94140C4F12006A040F1416A
S3152020A5F04140B1FBF3FC03FB1C11A2FB0C45001BC5
S3152020A600A94103D2BCF1010C801859410F2F12D336
S3152020A6100F3FC90341EA5041B1FBF3F603FB161164
S3152020A620A2FB0645D4EBC030A94102D2761E801863
S3152020A630594146EACC3C07B34140C7F12006B840F1
S3152020A640F1414140B1FBF3F603FB1611A2FB06456F
S3152020A650001BA94102D2761E8018594180EA0102A8
S3152020A66021FA0EF3C7F1200462FA0EF20CFA07F053
S3152020A6705A402CFA04F13043F0BD80EA010221FA37
S3152020A6800EF3002162FA0EF260465A40F0BD8C4647
S3152020A690B1FBF2F102FB11C31B0243EA1063B3FBA9
S3152020A6A0F2FC02FB1C331B024CEA002043EA106317
S3152020A6B0B3FBF2FC02FB1C331B024CEA002043EACC
S3152020A6C01063B3FBF2FC02FB1C331B024CEA002076
S3152020A6D043EA1063B3FBF2FC02FB1C324CEA002057
S3152020A6E00023704703490847034A1047034B18475E
S3152020A6F000000000D9922000DF9320005D932000E7
S3152020A70000207047DFF8F0020168002944BF4FF08F
S3152020A71040438360082141604162704710B508B9E3
S3152020A720012010BDDFF8D4120A6812F4406F03D13D
S3152020A7300B6843F440630B6000F051F9FFF7E2FF0A
S3152020A740002010BD7FB5040018BF002901D0802A23
S3152020A75001D001254DE0DFF8A86200258B1B022BB6
S3152020A7602160DFF8A0021CD941F234269B1B3AD067
S3152020A77042F2DE169B1B36D045F299569B1B2CD0D7
S3152020A78042F2DE169B1B28D042F266269B1B1FD048
S3152020A79042F2ED169B1B1BD04FF470669B1B28D0D4
S3152020A7A003E001F00301216023E010226846FDF733
S3152020A7B02FF9DFF8540230230360DFF85062266039
S3152020A7C000215DF82130491C03290361F9D910E0C5
S3152020A7D000F012F822F0100203E000F00DF842F00B
S3152020A7E01002026003E0C16941F01001C16100F04E
S3152020A7F0FDF8284604B070BDC16921F01001C16161
S3152020A8000268704738B5006815460C46DFF8F021F7
S3152020A810811A022922D9C91E1CD041F23122891A35
S3152020A82023D042F2DE12891A22D045F29952891A71
S3152020A8301BD042F2DE12891A1AD042F26622891AD7
S3152020A84013D042F2ED12891A12D04FF47062891A6F
S3152020A85018D01FE0A06840F4407004E0A1680002F0
S3152020A86000F440700843A06014E06068A16803E00B
S3152020A8706068A16840F4402040F48060606041F424
S3152020A8807F4106E06068A16840F48060606041F402
S3152020A8907E41A1602BB1102219462846FDF7B8F833
S3152020A8A000E000250023A561E36131BDF0B5034614
S3152020A8B04FF070420021BFF34F8FDFF85461DFF84D
S3152020A8C05441306843F6E075C7031AD53167BFF384
S3152020A8D04F8FF76EC7F34E3CC7F3C90E05EA4C10CF
S3152020A8E040EA8E70E0605FEA0E00AEF1010EF5D1EF
S3152020A8F05FEA0C00ACF1010CEED1BFF34F8FBFF312
S3152020A9006F8FBFF36F8FDFF8107101203B60DFF868
S3152020A9100C3138611868000703D41046421E0028DF
S3152020A920F8D1386A000602D0FF21B9620421082016
S3152020A930986012B9042918BF0321BFF34F8F3068BE
S3152020A940C20319D500233367BFF34F8FF26EC2F3AC
S3152020A9504E33C2F3C90605EA431040EA86702060CA
S3152020A9603046461E0028F6D11846431E0028F0D130
S3152020A970BFF34F8FBFF36F8FBFF36F8F0846F0BDA6
S3152020A980F8B590B048B1012907DC002A18BF002B62
S3152020A99003D0169E16F00F0F01D001201DE00024B3
S3152020A9A0DFF87C7000940568039208AA0493BD42C0
S3152020A9B040F22325059608BF0124090201F480715F
S3152020A9C041EAC44100270297002329430191694681
S3152020A9D0FFF718FF6846FFF769FF11B0F0BD002189
S3152020A9E000220023002480E81E0070474FF00040FC
S3152020A9F00C49086086E6000000000F4068C00F4022
S3152020AA000000DCFE0CC00A4060000F400300DCFE84
S3152020AA1014ED00E060EF00E0C0010F4010000F4071
S3152020AA20EFCDDCFE04000F4070470000BFF34F8FB0
S3152020AA30054906480A6802F4E06202430A60BFF329
S3152020AA404F8F00BFFDE700BF0CED00E00400FA05A4
S3152020AA5001294FF4801002D1044908607047044A26
S3152020AA601060BFF34F8FBFF36F8F704700E100E078
S3152020AA7080E100E000F01F02DFF8BC33000A91409D
S3152020AA8003EB800030B5032595400468AC43214371
S3152020AA90016030BD014600200FF2B83252F8203036
S3152020AAA08B4202D0401C0528F8D37047088C4A8C4C
S3152020AAB0904205D2088CCB691B18488C181A7047EF
S3152020AAC00A8C488C101A704710B50C46FFF7EEFFFB
S3152020AAD0E169491E884201D1012010BD002010BD08
S3152020AAE02DE9F04104460D4628680026B046042369
S3152020AAF0014603FB00FCB2FBFCFC1FFA8CF70FB9C6
S3152020AB004FF0010C1FFA8CF707FB03FE7F1C5F43D7
S3152020AB10B2FBFEFEAEEB000EB2FBF7F7C71B774566
S3152020AB203CBFBE460CF1010C714502D371461E4630
S3152020AB30E0465B1C212BDCD36422B0FBF2F000EB39
S3152020AB404000884238BF40F2215050D32046FFF79C
S3152020AB50A1FF0FF21432032132F91000FFF78AFFEA
S3152020AB60A069321F042A20F44020A0612169DFF841
S3152020AB70CC0238BF41F40031761E3606014006F05D
S3152020AB80F8560E43C8F30C0006432661206920F0B0
S3152020AB9000502061A16921F01001A161A0698008DF
S3152020ABA08000A061A16928790143A1612269687981
S3152020ABB0400300F4005022F4005202432261A87977
S3152020ABC0E97940EA0140E062A16A41F08801A16268
S3152020ABD0A06A40F44040A062A169287A08B141F4D5
S3152020ABE00021687A08B141F48021A1610020BDE8C6
S3152020ABF0F08180B5C16A11F4E06FFBD14269510220
S3152020AC00FCD500238361FFF745FF0FF25C2200214C
S3152020AC1032F91000BDE804402CE7DFF8241208475B
S3152020AC2030B500F018F814430461856A2B438362FB
S3152020AC30826942EA0121816130BD30B500F00BF8EE
S3152020AC4094430461856A25EA03038362826922EAA2
S3152020AC500121816130BD04690B0203F4404203F4D3
S3152020AC604073090A704701464869896A090C01F030
S3152020AC70C3010843704730B505E043691C02FCD563
S3152020AC8011F8015BC56113465A1E002BF5D130BD44
S3152020AC902DE9FC4104460E46606901030FD5E26981
S3152020ACA08DF800209DF80010491C8DF80010756A3B
S3152020ACB02DB1B36A40F21D5231462046A847656918
S3152020ACC006F12C08A80237D5A1698A0234D5E76A6D
S3152020ACD03F0E07F0070718E0E3694354491C9142C9
S3152020ACE0FAD3F068BF1A1044F0603169891A3161AD
S3152020ACF0306950B9022188F80110756A2DB1B36ADE
S3152020AD0040F2175231462046A847F8B250B1306952
S3152020AD1040B13169FAB291423CBF3269D2B2F06871
S3152020AD200021DCE7B069002871D1316921B94FF0C3
S3152020AD3002612046FFF781FF6069010265D5A2697D
S3152020AD40100262D5E76A3F0A07F00707C7F1040712
S3152020AD504EE030843846471EC0B2002859D03146AE
S3152020AD602846FFF7B1FE00281CBF746A002C05D0A8
S3152020AD70B36A40F21C5231462846A047314628461F
S3152020AD80FFF7A2FE50B1708CF169401C884202D197
S3152020AD900022728402E0708C401C7084308CE96919
S3152020ADA0B2691154308CF169401C88421ABF308C0C
S3152020ADB0401C0020CDE78B5C521CE3618242FAD3F3
S3152020ADC031683F1A014431607268121A72607068C5
S3152020ADD070B9002188F80010A26922F40002A2612D
S3152020ADE0756A2DB1B36A40F2165231462046A847DD
S3152020ADF0F8B250B1706840B17168F8B281423CBF58
S3152020AE007068C0B231680022D8E7BDE8F3812546B4
S3152020AE10A0E72C4690E7FFE70A4881680A4837E7EB
S3152020AE20FFE70848C168094832E7FFE70548016976
S3152020AE3007482DE70000000068C00F4000E0FFE033
S3152020AE400B8E2000802400200080184000C018404F
S3152020AE5000001940000000000040184000801840E3
S3152020AE6000C0184000001940FFFF18051C000C00E8
S3152020AE7018010000491EF8B501250829434F16461A
S3152020AE803C6852D8DFE801F005152547472C475165
S3152020AE904500706810F1010F18BF00280FD0A06957
S3152020AEA0002814DD94F82214012910D104F1180069
S3152020AEB00BE0706810F1010F18BF002801D1002087
S3152020AEC0F2BDE06104F114002573FCF7BEFE0025D7
S3152020AED02BE040F2FD3104F12000FBF733FF24E084
S3152020AEE0B178002904BFF078002804D131780129CF
S3152020AEF008BF657319D07268314604F12000FCF72B
S3152020AF0087FD70682573E06104F11400FCF79DFE2F
S3152020AF100BE0052509E0002104F11400FCF786FE4C
S3152020AF20386800211830FCF781FE2846F2BD002023
S3152020AF30012900D0704738B5144C0125206840F2ED
S3152020AF40FD3380F82254022100F12002806800F08F
S3152020AF503FF9216881F8235432BD002059B90B4886
S3152020AF6040F2FD330068022180F8242400F12002DB
S3152020AF70806800F02DB9704704490860002070478A
S3152020AF80024908600968002088607047A8240020AC
S3152020AF908C49084738B504460120A16871B100259F
S3152020AFA006E0886810F8251020686D1C00F003FA4A
S3152020AFB0A1680A799542F4DB0021A16032BD000008
S3152020AFC07FB5054614460120002C14BF002D0320F2
S3152020AFD00CD0491E052909D8DFE801F05B030919A1
S3152020AFE02F45002129736974A974A960AEE0696888
S3152020AFF000291EBF297B22788A42F7D011B1284604
S3152020B000FFF7C8FF20780022AA73287311E0696809
S3152020B0100029EBD021886A7B0C460904B2EB116FFC
S3152020B0200AD1AB7BE1B2994206D02846FFF7B2FF80
S3152020B030AC732846FFF7ACFF88E06A68002A1CBF5D
S3152020B040A9680029F8D00026AA6811798E427DDACF
S3152020B0509268217812F82630994204BF286800F099
S3152020B060C5F9761CF0E76A68002A1CBFA968002962
S3152020B0706CD00026AA6811798E4267DA92682178E8
S3152020B08012F82630994204BF286800F0B9F9761CB8
S3152020B090F0E721680A7802F01F02012A02BF0B7905
S3152020B0A06A7B934252D14B782846012B0AD0022B19
S3152020B0B00DD0032B14D0092B1CD00A2B35D00B2BCB
S3152020B0C03AD042E04A88032100F042F81AE06B6821
S3152020B0D005F10F0204211E68B04705F10F0107E094
S3152020B0E06B6805F1100204211E68B04705F1100196
S3152020B0F061602BE04A8800F02BF8217B59B1A268A9
S3152020B100092101926A466B681D68A84700996160EB
S3152020B110019AA2601AE0636806210093A268019230
S3152020B1206B686A461C68A04710E0498805F10F0223
S3152020B130090AE973072104E0498805F110022974D8
S3152020B14008216B681C68A04700E0052004B070BD6C
