S0130000666C6173686C6F616465722E737265638C
S113200000460200314E01007B240000B53101007E
S11320107B2400007B2400007B24000000000000DF
S11320200000000000000000000000007B2400000D
S11320307B240000000000007B2400007B240000BF
S1132040AF5F0100AF5F0100AF5F0100AF5F010050
S1132050AF5F0100AF5F0100AF5F0100AF5F010040
S1132060AF5F0100AF5F0100AF5F0100AF5F010030
S1132070AF5F0100AF5F0100AF5F0100AF5F010020
S1132080AF5F0100AF5F0100AF5F0100AF5F010010
S11320904B480100594E0100614E0100694E010098
S11320A0714E0100794E0100814E0100894E0100FC
S11320B0914E0100994E0100A14E0100A94E01006C
S11320C0B14E0100B94E0100C14E0100C94E0100DC
S11320D0D14E0100D94E0100AF5F0100AF5F010096
S11320E0AF5F0100AF5F0100AF5F0100AF5F0100B0
S11320F0AF5F0100AF5F0100AF5F0100AF5F0100A0
S1132100AF5F0100AF5F0100AF5F0100AF5F01008F
S1132110AF5F0100AF5F0100AF5F0100AF5F01007F
S1132120AF5F0100AF5F0100AF5F0100AF5F01006F
S1132130E14E0100AF5F0100AF5F0100AF5F01003E
S1132140AF5F0100AF5F0100AF5F0100AF5F01004F
S1132150AF5F0100AF5F0100AF5F0100AF5F01003F
S1132160AF5F0100AF5F0100AF5F0100AF5F01002F
S1132170AF5F0100AF5F0100AF5F0100AF5F01001F
S11321809F320000AF5F0100AF5F0100AF5F01004D
S1132190AF5F0100AF5F0100AF5F0100AF5F0100FF
S11321A0AF5F0100AF5F0100E94E0100F14E010095
S11321B0AF5F0100AF5F0100AF5F0100AF5F0100DF
S11321C0AF5F0100AF5F0100AF5F0100AF5F0100CF
S11321D0AF5F0100AF5F0100AF5F0100AF5F0100BF
S11321E0AF5F0100AF5F0100AF5F0100AF5F0100AF
S11321F0F94E0100AF5F0100014F0100094F0100DA
S1132200AF5F0100B75E0100114F0100194F0100DB
S1132210AF5F0100AF5F0100AF5F0100AF5F01007E
S1132220AF5F0100AF5F0100AF5F0100AF5F01006E
S1132230AF5F0100AF5F0100AF5F0100AF5F01005E
S1132240AF5F0100AF5F0100AF5F0100AF5F01004E
S1132250AF5F0100AF5F0100AF5F0100AF5F01003E
S1132260AF5F0100AF5F0100AF5F0100AF5F01002E
S1132270AF5F0100AF5F0100AF5F0100AF5F01001E
S1132280AF5F0100AF5F0100AF5F0100AF5F01000E
S1132290AF5F0100AF5F0100AF5F0100AF5F0100FE
S11322A0AF5F0100AF5F0100AF5F0100AF5F0100EE
S11322B0AF5F0100AF5F0100AF5F0100AF5F0100DE
S11322C0AF5F0100AF5F0100AF5F0100AF5F0100CE
S11322D0AF5F0100AF5F0100AF5F0100AF5F0100BE
S11322E0AF5F0100AF5F0100AF5F0100AF5F0100AE
S11322F0AF5F0100AF5F0100AF5F0100AF5F01009E
S1132300AF5F0100AF5F0100AF5F0100AF5F01008D
S1132310AF5F0100AF5F0100AF5F0100AF5F01007D
S1132320AF5F0100AF5F0100AF5F0100AF5F01006D
S1132330AF5F0100AF5F0100AF5F0100AF5F01005D
S1132340AF5F0100AF5F0100AF5F0100AF5F01004D
S1132350AF5F0100AF5F0100AF5F0100AF5F01003D
S1132360AF5F0100AF5F0100AF5F0100AF5F01002D
S1132370AF5F0100AF5F0100AF5F0100AF5F01001D
S1132380AF5F0100AF5F0100AF5F0100AF5F01000D
S1132390AF5F0100AF5F0100AF5F0100AF5F0100FD
S11323A0AF5F0100AF5F0100AF5F0100AF5F0100ED
S11323B0AF5F0100AF5F0100AF5F0100AF5F0100DD
S11323C0AF5F0100AF5F0100AF5F0100AF5F0100CD
S11323D0AF5F0100AF5F0100AF5F0100AF5F0100BD
S11323E0AF5F0100AF5F0100AF5F0100AF5F0100AD
S11323F0AF5F0100AF5F0100AF5F0100FFFFFFFFB0
S1132400002A01D101207047F0B41F46034603247B
S11324102340002B09D00424E31A0170013008245E
S1132420E141521E26D05B1EF7D1042A1ADB13D0D9
S1132430002F11D00C460D460E46102A02DB72C046
S1132440103AFAE70C2A02DB32C00C3AFAE7082AFF
S113245002DB12C0083AFAE7042A03DB0160043005
S1132460121FF9E7002A05D0017001300824E14168
S1132470521EF7D1F0BC00207047FEE7733900000C
S113248000000000C539000000000000073B000008
S1132490A13C0000933A0000A73B00007F3D0000F0
S11324A0000000000000000000000000FD390000F2
S11324B000000000D5390000A73B00009F3D00004C
S11324C000000000FD3D000000000000273900006E
S11324D0000000002D3A0000000000000000000091
S11324E000000000293E0000000000004B3E0000F8
S11324F000000000773E0000A13C0000433A0000C9
S1132500000000000000000000000000AD3A0000E0
S1132510913B000000000000B71DC1046E3B82091E
S1132520D926430DDC7604136B6BC517B24D861A9E
S11325300550471EB8ED08260FF0C922D6D68A2FBB
S113254061CB4B2B649B0C35D386CD310AA08E3CDA
S1132550BDBD4F3870DB114CC7C6D0481EE0934553
S1132560A9FD5241ACAD155F1BB0D45BC296975622
S1132570758B5652C836196A7F2BD86EA60D9B638D
S113258011105A6714401D79A35DDC7D7A7B9F701E
S1132590CD665E74E0B6239857ABE29C8E8DA19114
S11325A0399060953CC0278B8BDDE68F52FBA5826A
S11325B0E5E66486585B2BBEEF46EABA3660A9B7F7
S11325C0817D68B3842D2FAD3330EEA9EA16ADA416
S11325D05D0B6CA0906D32D42770F3D0FE56B0DD45
S11325E0494B71D94C1B36C7FB06F7C32220B4CE26
S11325F0953D75CA28803AF29F9DFBF646BBB8FB11
S1132600F1A679FFF4F63EE143EBFFE59ACDBCE891
S11326102DD07DEC77708634C06D4730194B043D66
S1132620AE56C539AB0682271C1B4323C53D002E7D
S11326307220C12ACF9D8E1278804F16A1A60C1B42
S113264016BBCD1F13EB8A01A4F64B057DD00808F9
S1132650CACDC90C07AB9778B0B6567C6990157192
S1132660DE8DD475DBDD936B6CC0526FB5E6116201
S113267002FBD066BF469F5E085B5E5AD17D1D5744
S11326806660DC5363309B4DD42D5A490D0B1944BD
S1132690BA16D84097C6A5AC20DB64A8F9FD27A5D7
S11326A04EE0E6A14BB0A1BFFCAD60BB258B23B6C9
S11326B09296E2B22F2BAD8A98366C8E41102F83FE
S11326C0F60DEE87F35DA9994440689D9D662B90B5
S11326D02A7BEA94E71DB4E0500075E4892636E9C4
S11326E03E3BF7ED3B6BB0F38C7671F7555032FA05
S11326F0E24DF3FE5FF0BCC6E8ED7DC231CB3ECFC8
S113270086D6FFCB8386B8D5349B79D1EDBD3ADC30
S11327105AA0FBD8EEE00C6959FDCD6D80DB8E60CC
S113272037C64F643296087A858BC97E5CAD8A734E
S1132730EBB04B77560D044FE110C54B3836864647
S11327408F2B47428A7B005C3D66C158E44082552A
S1132750535D43519E3B1D252926DC21F0009F2C0F
S1132760471D5E28424D1936F550D8322C769B3FD2
S11327709B6B5A3B26D6150391CBD40748ED970A99
S1132780FFF0560EFAA011104DBDD014949B93196E
S11327902386521D0E562FF1B94BEEF5606DADF840
S11327A0D7706CFCD2202BE2653DEAE6BC1BA9EB9A
S11327B00B0668EFB6BB27D701A6E6D3D880A5DE03
S11327C06F9D64DA6ACD23C4DDD0E2C004F6A1CDE6
S11327D0B3EB60C97E8D3EBDC990FFB910B6BCB4E1
S11327E0A7AB7DB0A2FB3AAE15E6FBAACCC0B8A756
S11327F07BDD79A3C660369B717DF79FA85BB4929D
S11328001F4675961A163288AD0BF38C742DB08161
S1132810C330718599908A5D2E8D4B59F7AB08545E
S113282040B6C95045E68E4EF2FB4F4A2BDD0C47AD
S11328309CC0CD43217D827B9660437F4F460072CE
S1132840F85BC176FD0B86684A16476C93300461C9
S1132850242DC565E94B9B115E565A1587701918CE
S1132860306DD81C353D9F0282205E065B061D0B31
S1132870EC1BDC0F51A69337E6BB52333F9D113E50
S11328808880D03A8DD097243ACD5620E3EB152D8D
S113289054F6D4297926A9C5CE3B68C1171D2BCC83
S11328A0A000EAC8A550ADD6124D6CD2CB6B2FDF79
S11328B07C76EEDBC1CBA1E376D660E7AFF023EA0A
S11328C018EDE2EE1DBDA5F0AAA064F4738627F905
S11328D0C49BE6FD09FDB889BEE0798D67C63A80E0
S11328E0D0DBFB84D58BBC9A62967D9EBBB03E93B5
S11328F00CADFF97B110B0AF060D71ABDF2B32A654
S11329006836F3A26D66B4BCDA7B75B8035D36B580
S1132910B440F7B100000000895F0100935F01003B
S11329209D5F01000000000000000000090000009D
S11329302546000001010000254E000008000000AB
S11329402B57000000010000855D0000100100000D
S11329506D65000020010000737200002101000079
S1132960E76C000000000000000000005A04180892
S11329700830FF2400000000000000005A05180978
S11329800831FF2500000000000000005A06180A64
S11329900832FF26000000000000000000000000D4
S11329A00000000000000000000000009F04032459
S11329B00000000000000000000000009F07600706
S11329C0200B042700000000000000009F876087A0
S11329D0208B04A700000000000000005A0418081F
S11329E00830FF2400000000000000005A06180A06
S11329F0FF26000000000000000000005A07180B2A
S1132A00FF27000000000000000000005A06188A9A
S1132A10FFA6000000000000000000005A07208B01
S1132A20FFA7000000000000000000008F4100002C
S1132A302143000039430000B94300006D44000005
S1132A40714500000000000000401840008018405C
S1132A5000C018400000194000401940008019408F
S1132A6000C0194000001A400000000000000000EF
S1132A700000000000000000000000000000000052
S1132A800000000000000000000000000000000042
S1132A900000000000000000000000000000000032
S1132AA00000000000000000000000000000000022
S1132AB0000000000A0000000C0000000D000000EF
S1132AC00F000000140000001A0000001E000000A7
S1132AD023000000280000002D0000003400000046
S1132AE0370000003C0000004600000050000000D9
S1132AF000000000000000000000000000000000D2
S1132B0000000000000000000000000000000000C1
S1132B1000000000000000000000000000000000B1
S1132B2000000000000000000000000000000000A1
S1132B300000000000000000000000000000000091
S1132B400000000000000000000000000000000081
S1132B500000000000000000000000000000000071
S1132B600000000000000000000000000000000061
S1132B700000000000000000000000000000000051
S1132B800000000000000000000000000000000041
S1132B900000000071470100ED47010007480100F3
S1132BA0000000000000000039480100137B000011
S1132BB065780000BD780000A3790000DF7900008B
S1132BC0EF7900003D7900002B690000016B0000E3
S1132BD09B6B0000636C00008B690000456C000077
S1132BE0576C0000AF6C000000555603590C0F5A87
S1132BF05A0F0C5903565500653033663C696A3FD9
S1132C003F6A693C66333065663330653F6A693CC8
S1132C103C696A3F65303366035655005A0F0C59B8
S1132C20590C0F5A00555603693C3F6A30656633A8
S1132C30336665306A3F3C690C595A0F5500035698
S1132C40560300550F5A590C0F5A590C5603005588
S1132C50550003560C595A0F6A3F3C693366653078
S1132C6030656633693C3F6A6A3F3C693366653068
S1132C7030656633693C3F6A0F5A590C5603005558
S1132C80550003560C595A0F0C595A0F5500035648
S1132C90560300550F5A590C693C3F6A3065663338
S1132CA0336665306A3F3C69035655005A0F0C5928
S1132CB0590C0F5A00555603663330653F6A693C18
S1132CC03C696A3F65303366653033663C696A3F08
S1132CD03F6A693C6633306500555603590C0F5AF8
S1132CE05A0F0C590356550011B2000015B20000DA
S1132CF021B2000031B2000000000000000000001A
S1132D00010000000100000039320000942B000093
S1132D10A42B0000242F000010000000010000007C
S1132D2000000000B42F000000000000C42F0000C9
S1132D30000000000000000000000000000000008F
S1132D4000000000000000007548010091480100E7
S1132D5041490100FF490100C89B0100696F00005F
S1132D609B70000035710000FD710000936F00003E
S1132D70DF710000F17100003972000000000000F2
S1132D80000000000000000000000000000000003F
S1132D9000000000000000004600140000003200A3
S1132DA01E0032001E0000007800C800C800280081
S1132DB0C800000023000A00000019000F001900D9
S1132DC00F00000050006400640014006400000060
S1132DD019000A00000011000F0011000F0000008C
S1132DE05000640064001400640000001900050031
S1132DF000000F000A000F000A0000003C006400FD
S1132E0064001400640000001400050000000C00BD
S1132E100A000C000A0000003C0064004600140094
S1132E20640000000F00050000000A0007000A000B
S1132E30070000003C006400460014006400000029
S1132E40000000000000000000000000000000007E
S1132E500000000000000000000000004D49435243
S1132E604F4E2020202020205350414E53494F4E96
S1132E702020202053414D53554E47202020202010
S1132E8057494E424F4E44202020202048594E4955
S1132E905820202020202020544F534849424120CC
S1132EA0202020204D4143524F4E495820202020BD
S1132EB0000000000000000000000000BD570000FA
S1132EC0635A0000555B0000615C0000415800003B
S1132ED04F5D0000615D0000000000000000000084
S1132EE00E000A0000000000420021000A009C00BD
S1132EF00A000000000000000700050000000000B8
S1132F00280014000500600007000000DF530000E3
S1132F105D550000735500000756000085560000FB
S1132F20A9560000F14A0100F74A0100634B010071
S1132F30FB4B0100F54A0100074C0100D14A010096
S1132F40F9620000036300001D630000EB630000EE
S1132F509764000099630000000000000000000076
S1132F60E54600002D4A00005D4B0000354D000091
S1132F7027490000F74C0000094D00000000000044
S1132F80D54101005D420100000000005D420100E6
S1132F9000000000F54201003D4301000000000074
S1132FA0E54301001B4401006F440100AF440100EC
S1132FB0E3440100395B0100455C0100F15C010060
S1132FC04F5D01005D5D0100815D0100055E010052
S1132FD09D5E0100AD5E0100B15E010000000000D5
S1132FE038B504463E4D00202862C5E90000C5E915
S1132FF00200C5E9040068623A4800F0ADF8C5E98A
S1133000060120460FF25D01BDE8344000F055B9D9
S113301000F069B970B50C46314E316A072904BF16
S1133020756AA8421BD100F018FB0546C5EB0515CF
S1133030D6E90023D6E9020182184FF49666B5FB5F
S1133040F2F00A250A2368434FF49662B0FBF6F6C1
S1133050761D0020B6FBF3F35343236070BD0120BB
S113306070BD00002DE9F8431D4F064600F06AF8D4
S11330703A6A0446D7E904598846521C651BD7E9C5
S1133080060168EB0909494502D82CBFA842012270
S1133090012A3A6206D0042A08D0052A0ED0072A4B
S11330A00FD018E0C7E900487E6214E0D7E9002396
S11330B0A21A68EB0303C7E900230CE0C7E902483E
S11330C009E0D7E90201201A68EB0101C7E902010E
S11330D0304600F008F9C7E90448BDE8F183000070
S11330E0008001008038010010B52C482C4A01688A
S11330F0002341F4405101600020106029484FF042
S1133100FF31012201618361C261846944F00404D6
S11331108461826942F00102826101600121C1601F
S1133120816000F09AFAC0001F49B0FBF1F000B9C9
S113313001201E4A906010BD1948016841F0020147
S11331400160704781B01A48016842680092009893
S113315001B0C943C043704714498A68A2FB000107
S1133160C00840EA4170C908704738B50446FFF703
S1133170E9FF00F00BF8241841EBD505FFF7E2FF57
S1133180A942FBD301D8A042F8D331BD074A9368C2
S1133190A3FB0445E40844EA457470476CC00F403F
S11331A0004008400041084040420F0028800100D0
S11331B0E04008400901020002D456488154704797
S11331C0554A00F00F00131803F8041C704710B59B
S11331D0039C01F00701240104F010042143016061
S11331E002B1136010BD0021016002B111600098AA
S11331F008B1019901607047FEB5089E0027099C3B
S11332000A9D01970096FFF7E2FF3068012101FA59
S113321005F540F410403060606820EA05056560FB
S1133220F7BD7CB5069C0025019547F2B0060094D5
S1133230FFF7CDFF266073BD7FB5384C384D394854
S1133240394A19B1022919D00DD37FBD41F2B00614
S113325000950196002300F01EF8019600230095C6
S113326000F019F87FBD0D21304B02910521019327
S1133270002300920022FFF7BFFF7FBD00920023CE
S11332800022FFF7CEFF00950023002202212046F2
S1133290FFF7C7FF7FBD002202212046A3E710B538
S11332A0234C2068800407D52249496821B10120B4
S11332B088474FF40051216010BD10B51D4B1B4CC5
S11332C0596004220D21204600F08CFA6369012123
S11332D0502043F400536361FFF76CFF4FF48030D8
S11332E01549086010BD80B54FF48030134908605B
S11332F0BFF34F8FBFF36F8F00215020FFF75AFFAA
S113330000220D21094800F06DFA002009494860A7
S113331001BD000000E400E018ED00E0EC801F4077
S1133320DC821F40F0801F40E0821F4000801B4071
S113333018801B40C09B010008E100E088E100E028
S1133340002808BF00F023B87047DFF84803DFF80F
S1133350482301684FF0004341F00301016040201D
S11333601060DFF8380383634FF0804181630022EB
S11333700260DFF82C03036843F4C0130360DFF832
S11333802403016849084900016001207047F0B531
S1133390DFF81403DFF814130860DFF8140303697B
S11333A001220068DFF80C43DFF80C53DFF80C63EC
S11333B05B0D03F0030302FA03F3DFF8042311683F
S11333C0C0F38000CF0379D5002814BFDFF8F412CE
S11333D0DFF8F412116011680029FCD5116B21F497
S11333E080511163116B0029FCD5B84F396921F064
S11333F03F3CB74941EA0C0139614FF44051116136
S113340011690029FCD511694FF0010E21F48031B6
S11334101161396821F03F3CAE4941EA0C01396041
S1133420AD4FC7F800E000F04CF80121AB4D00E0CF
S1133430491CB0FBF1F4AC42FAD27C68491EA8489E
S11334400D045B1E05F4E02504409B022C4303F4A9
S1133450E0530902234301F440710B437B60786914
S1133460A049C009C00140F003007861BB6843F47F
S11334704023BB60B868084040F0A050B860FB68C7
S11334809948034043F0C74343F00103FB60F968E4
S113349041F44031F960786920F4E72040F4843045
S11334A07861116821F480311160106B20F4803050
S11334B01063116921F480311161F0BD00F001F84D
S11334C0F0BD00B93546B5FBF3F020607047D5E098
S11334D0002A70B518BF012A38D17C48834B046890
S11334E01D68A409002A0CBF0FF240220FF25022DB
S11334F00E0025F0607529D00A29A8BF012112F811
S1133500116002EB41014A78794906F03F0646EA28
S113351084140E68521ED20502F06072154346F000
S113352002060E605A6E22F440625A660668B4427D
S113353018BF04601868854218BF1D605A6E42F4B3
S113354040625A66086820F00200086070BD514865
S1133550016841F44061016070474E48016821F4FC
S113356040610160704730B5524C0023002024684C
S1133570604D19B102290AD002D319E0234618E09C
S11335802968C1F30121491CB4FBF1F311E0A968D6
S11335904E4B1968AB68584C01F03F01B4FBF1F590
S11335A012214D43C3F3C251491CB5FBF1F300E0B2
S11335B00420136030BD024604201AB911B14F48EB
S11335C0086000207047000030B54A4906280A68A0
S11335D042F040020A600B68494A23F080030B6002
S11335E013680C6823F47C1324F4E02414D8DFE873
S11335F000F0040608130B0D100023200DE0222018
S113360000E01B20072509E01D2003E0122004250B
S113361004E01320032501E01220082543EA0043B7
S11336206D1E2D0405F4E02510682C43834218BF59
S113363013600A68944203D00C604B6BD807FCD427
S113364030BD3048016841F03001016070472D48B9
S1133650016821F03001016070472648154A01686D
S113366080681368C1F30121491C00F03F00401C2D
S1133670B3FBF1F1B1FBF0F0704700001D480D49B8
S113368000680A68C0F30120401CB2FBF0F07047E8
S11336900000000080C00F4014800D4000900D40D9
S11336A0B0810D4040012E4000366E011893010098
S11336B060441F40F069010000A4781F007B9A1742
S11336C000800D405820010042200100F0800D4090
S11336D01818131823231A0F10C00F40014495081B
S11336E0FFE0F8FFCFFFFFE380FF7F9C1CC00F408B
S11336F000802A4014C00F4000389C1C80F5E40967
S113370000810D4074C00F4038B504460D4602E0F8
S11337100120FFF72AFD20462946441E61F10005D9
S1133720002908BF0028F3D131BD000000002208A1
S1133730160818061E0412060E0611041A021602B2
S11337400000180616040C061E02120316022101BC
S11337501A011601F8B506460C4615465FF000003E
S11337603AA151F82020B24202D0401C0628F8D3D6
S11337703CA1144A31F91000032300F01F01000A90
S113378002EB800003FA01F107688F4339430127F4
S113379001607269A740F9430A407261287818B938
S11337A073681940716007E06A782146304600F07A
S11337B00BF873681F437760AA7821463046BDE84A
S11337C0F8400FE068C00F400123002A10B503FA47
S11337D001F107BF026822EA010104682143016084
S11337E010BD0000F0B5C369012404FA01F5AB4330
S11337F01029C36132BF00F10C0300F1100310392A
S1133800490003268E40F743521E042A1DD8DFE8E0
S113381002F003070D151900186807401F60F0BD7A
S11338201A688C4017403C431C60F0BD1C6802259C
S113383005FA01F1274039431960F0BD18680643C1
S11338401E60F0BDC1690D43C561F0BD00000000FC
S113385000801B4000C01B4000001C4000401C4076
S113386000000C40FFFF1A011E001A020C031E0187
S1133870DFF8081700200A69D36818607047F8B5A4
S1133880DFF8F8660024306A8DF800404569002DA1
S113389047D03169C9680F68012F31D06C6801F1D4
S11338A008020023091DA04704001FBF42F2127042
S11338B0844242F213718C4233D13069C2689168F8
S11338C000292ED0546823781D0007D0142B05DA64
S11338D0806800EBC305A5F1080000E00020002883
S11338E050621CBF0268002A03D02046002490477F
S11338F013E042F210741946204600F0D4FA10E0A6
S1133900486A58B1416811B16846884704460CB109
S1133910002003E09DF8000000B101203169CA686D
S113392010602046F2BD80B50178002000F0BBFA9B
S1133930DFF84826106A41690A699047022000F0BE
S11339404DFBBFF34F8FDFF83816DFF838060A68EF
S113395002F4E06202430A60BFF34F8F00BFFDE749
S1133960DFF8180618210269D36803F10C0000F08F
S113397061BB10B504466068083812D0401E0AD0F6
S1133980F73811D0401E09D00F3810D0103814D099
S1133990401E0FD014E000F018FE12E001F01AFAF5
S11339A00FE001F0B6FE0CE002F0A6F909E002F027
S11339B035FD06E003F07BF903E003F03DFC00E095
S11339C004202DE2DFF8B43570B500F0E2F9AE69F9
S11339D0B047DAE110B500F094F8DFF8A0056268AA
S11339E00169C8680821026180F82010217800204C
S11339F000F059FABDE8104003F098BE7CB5DFF83A
S1133A007C450022E56801920092816840686B461B
S1133A10AE6801AAC0B2B04722690021D368196117
S1133A20009A0199920800F044FA73BDDFF84C251E
S1133A3038B5D36804466068A168DD68C0B2A84799
S1133A40EAE138B5044604206268092A03D1A06873
S1133A5000F09FFB19E0082A03D1A06801F0D8FC0C
S1133A6013E0C2F3032101290FD16946104604F083
S1133A701CF850B9009DDFF8042514219368A06850
S1133A804D4359190A6913699847217800F00BFAD4
S1133A9031BD10B500F035F8DFF8E004E2680169E3
S1133AA0042300F03FF821780020BAE170B5DFF874
S1133AB0CC5400F026F829691320DFF8CC64CA68D6
S1133AC082F820002969E068CA6882F82100E06869
S1133AD038B929691022C86802614661217800203A
S1133AE054E106F11001304604F038F82869482101
S1133AF006F11002C068016142610020BDE8704017
S1133B00F2E104462CE710B5FFF7FBFFDFF86C0485
S1133B10E2680169032300F005F8A1680020BDE80C
S1133B201040EFE1C8688261A16801616268426186
S1133B3080F82030704738B50446DFF840542869CF
S1133B400021C0684161016190F82000042804D17B
S1133B5029680A69904704B9044628684169884776
S1133B6004B904462869C168204691F8201000F081
S1133B709AF942F21270844201BF2969CA6892F824
S1133B802000082803D1BDE8314003F012BE31BD46
S1133B90DFF8E8130A69D36893F82110002908BFF5
S1133BA000F001B87CE02DE9FE4300F0DEF811B925
S1133BB000F0E1F871E0012101233170D0F8189090
S1133BC00569D0F8148000206A460090386A01A97B
S1133BD04469D4F804C0E04704000AD0386A416953
S1133BE0CA6890472046FFF7A6FF002100203170E5
S1133BF054E0009830B942F21270FFF79CFF0020A5
S1133C0030704BE0A842396988BF28460090C868E4
S1133C1090F82010082912D10199C160009AC2615C
S1133C200099019803F08CFD044642F27D708442B1
S1133C301CBF42F274718C4216D1002414E0132983
S1133C4007D1009A0199404603F0F0FF00988044A0
S1133C500AE03C68019A00994B464046D4F808C0F3
S1133C60E04700990446884400982D1A05D120465F
S1133C70FFF761FF002131700FE04CB1386A4169F0
S1133C80CA6890472046FFF756FF0020307004E0D2
S1133C903969C9680D61C1F814800020BDE8FE834C
S1133CA02DE9F84F00F061F811B900F064F859E01B
S1133CB00121DFF8D8A23170826900920569D0F839
S1133CC01480C46890F820B0386A41694A69904702
S1133CD08146A94588BFA946ACB14A46214650460B
S1133CE003F0A4FF386AA5EB090401234A465146B0
S1133CF04569D5F808C0E04704B170B3FFF71BFF6E
S1133D00002030702EE0BBF1030F09EB080419D139
S1133D10D7F800C04046009B52464946DCF8048070
S1133D20C0475FEA000BA046DCD0386A01230022BA
S1133D3051464469A568A8475846FFF7FCFE002091
S1133D40307010E0BBF1130F01D0A046CAE74A4619
S1133D504146504603F06AFFF7E73869C0680461DA
S1133D60C0F814800020BDE8F28F0646834F3869FE
S1133D70C06801697047002200203270DBE67F4B87
S1133D8070B500F006F8EE68B0472178BDE87040E1
S1133D9089E01D680446E268A168606870472DE9FF
S1133DA0F04105467A4F6E68D5F80880E86800242B
S1133DB0386018B103F074FF00B90424304603F0EE
S1133DC058FF00B904242978204600F06CF89CB907
S1133DD07E60002000F002F9C7F80880386818B146
S1133DE080F3088880F30988796840468847002072
S1133DF0BDE8F04100F0F2B8BDE8F08138B5044602
S1133E00606803F036FF08B9042005E06568012006
S1133E1000F0E4F8A068A8472178BDE8344042E007
S1133E202178BDE810403EE038B5044603F0E0FFD9
S1133E30A368616804F10C02564804F01FF80546B3
S1133E4003F0DCFF21782846E7E73EB5002104466D
S1133E50CDE9001103F0CCFFA36861686A464D48C0
S1133E6004F064F8054603F0C9FFA26869462846D1
S1133E7000F05AF837BD38B504461025FFF770FD39
S1133E803E48A2680169C9680A6163684B6181F8A8
S1133E9020500069E168C268002082F82110A168FE
S1133EA0BDE8344078E03EB5002400F031F8A023AA
S1133EB01EE070B5002588B0A7248DF801508DF858
S1133EC000400026551C01908DF8026000208DF8FA
S1133ED003506C4605E004EB800551F82030401C8B
S1133EE0AB609042F7D33BE03EB500F010F8B3234B
S1133EF08DF800300023029144690C226946A568BC
S1133F00A84737BD3EB500F002F8A323F0E701242B
S1133F1001908DF8014002248DF80340174C206A6B
S1133F2000258DF80250704770B5002588B08DF8D3
S1133F300150AF24002602258DF800408DF8026060
S1133F408DF80350019050B99DF80300029200EBE4
S1133F50920403A88DF8034003F068FE00E0029683
S1133F6006489DF80320006A0023694644699200CC
S1133F70121DA568A84708B070BD000010640100B8
S1133F800CED00E00400FA05548401005C8001009B
S1133F90AC84010000401F403EB5FFF7B8FFB023DA
S1133FA0A6E730B4002513E050F8042BD30744BF30
S1133FB0A9F101039A18091F042942F8045BFAD2F3
S1133FC013468C0744BF15809B1CC90748BF1D704E
S1133FD050F8041B0029E7D130BC7047012870B5A4
S1133FE004461DD00025114E05E07018C16889688B
S1133FF001B188476D1C1821694370580028F4D119
S113400074B903F0F5FEFFF797F804F007F8002001
S1134010074908600120FFF793F904F062FA62B6D9
S1134020BFF36F8FBFF34F8F70BD00BF002D000033
S113403008ED00E0002204F0A1BAF0B402461068D2
S113404095681318506803EB5004C0071DD54D4400
S11340501BE013F8017B05F8017B491EF9D1A0B1DF
S1134060B60813F8011B06F00306032E08BF13F865
S1134070016B01EB06214942801C294405D011F84B
S1134080016B05F8016B401EF9D1A3420ED013F861
S1134090016B16F0030104BF13F8011BC91C30099E
S11340A00F28DAD113F8010B0F30D6E7F0BC02F178
S11340B00C007047BFF34F8FDFF8082602E0106052
S11340C0203020390129FADABFF34F8FBFF36F8F05
S11340D0704730B504460420002C85B01EBFDFF8BD
S11340E0E8251178002950D023681D0F0B2D4CD1E1
S11340F0C3F30361012902F582650DD0002944D17F
S1134100204604F055FA10B1002129703DE0A26860
S113411001236A602B7038E02978002935D013F028
S11341200F0F32D1002101200491039104A900F062
S113413079FA50BB03A9102000F074FA28BB01A936
S1134140032000F06FFA00BB6C68049D694602A866
S113415004F065FA6519C0B9009A0399A418A1423C
S113416013D3019B5B1E1D420FD10199284600F019
S113417046F910B942F2DB7007E0029A009928462A
S113418000F0DAF808B900F071F905B030BD01208B
S11341907047F8B5ADF5007D0746042403F069FDCA
S11341A000286CD007F2FF1003F063FD002866D0EE
S11341B03868DFF8145505F58366010F0C2918D10A
S11341C03A463146002005F02DFE040057D1002068
S11341D03146287004F042FA040050D1002006F061
S11341E090FC6946102000F01DFA00285FD00446B8
S11341F045E0DFF8D81488420BD12878002849D04C
S113420000F089F803F09EFC00285BD142F2DB74D5
S113421035E0DFF8BC14884206D14FF40072394609
S1134220304603F003FDD2E7000F0E282BD1287887
S113423028B3384606F0F6FD08B3384606F0FBFD11
S113424004001CD10120687000256A4601A9284693
S113425006F0F8FE80B9DFF87C644FF4007106EBD9
S11342608526304600F0CBF830B1019A00993046EB
S113427000F062F800F0FAF86D1C012DE5D9204633
S11342800DF5017DF0BD0B280ED13846FFF721FF57
S11342900400F4D168780028D6D106F0BBFD0028CC
S11342A0EDD001206870EAE700216970E7E7009823
S11342B0DFF824140B6B01228A63C3185B1E4B6363
S11342C02A70E7E705F2DC57B87970B100200DF1E8
S11342D00104291891F819140DF80010335C2354C3
S11342E0801CB0F5007FF4D36E46324600F013F81C
S11342F000F022F8040004D000F00DF800F0CEF92C
S1134300BDE700F0B3F80400C4D039684FF0C040F2
S113431000F02EF9B3E74FF400714FF0C04070473E
S113432010B5DFF8A443237813B942F2DD7010BD51
S1134330BDE8104006F06EBF2DE9F8430546DFF8EE
S1134340887338780C46914688BB42F2DD7031E0C0
S1134350B87868B9D7F8D815491E0D4202D044F68A
S1134360896027E001200021B870B9607D6004E015
S1134370B86879680818A84216D1B868D7F8D885FB
S113438049462218424534BF2646A8EB0006384465
S113439032461030751903F049FCB868A41BB144C7
S11343A030184045B86002D100F060F810B9002C14
S11343B0CED10020BDE8F28376B50D460646DFF87F
S11343C00813087810B942F2DD7076BDAC08A40079
S11343D005F0030507E001AA04213046FFF7ACFF0E
S11343E060B9361D241F002CF5D12DB101AA294630
S11343F03046FFF7A1FF08B900F038F876BDF8B5EC
S11344000C460546B049ADF5806D4878012620B1CB
S11344102146284606F0F0FDB0B92146284603F0AF
S113442091FB064630460DF5806D01B0F0BD491C88
S1134430B1EB970F06D250F8042B12F1010FF6D00E
S11344400020F0E7E41B7D19002CEBD04FF48067CB
S1134450B4F5806FA048016B684698BF27463A467A
S1134460691A00F024F968460021E1E72DE9F843D0
S1134470954E0024B078ADF5806D002872D0B470EC
S1134480D6F8D845B068A04206D0211A06F1100328
S1134490FF22184406F0D6FE70682146FFF7AFFFEE
S11344A010B942F2DB705EE0D6F8D815706806F0F9
S11344B0A3FD40B1D6F8D815706806F1100206F0D5
S11344C008FE04004ED1844F746803F091FC386BED
S11344D006F1100306F58361221A002004F0BFF9E7
S11344E0044603F08BFC0020002CB070B06039D17E
S11344F07A480268D10304D5D6F8D8157068FFF756
S1134500D9FD7078D6F8D85506F11008D6F804907D
S1134510F0B12946484606F06FFDC8B115B34FF413
S11345208066B5F5806F396B684698BF2E46324673
S1134530A9EB010100F0BBF832464146684606F09B
S11345408BFE002802BFAD1BB144B044E6D006E0A8
S11345502A4606F11001484606F07EFE10B144F6E4
S11345608A6000E020460DF5806D01B0BDE8F0835F
S113457070B50446544A107810B942F2DD7070BD2B
S1134580D2F8DC55684200EA04060C19644204407F
S11345906442A41B2146304600F080F8A0B92946A5
S11345A0304606F0F5FD4D480168CA0303D5294697
S11345B03046FFF77FFD21463046FFF720FF10B954
S11345C044F68A6070BD002070BDE0B53E490878AD
S11345D010B942F2DD700EBD01F58361002004F0D4
S11345E09BF9F0B901A9012000F01CF8C8B969468B
S11345F0102000F017F8A0B90099019806F0C8FD42
S113460036480168CA0303D500990198FFF752FDA3
S11346100099019803F096FA10B944F68A600EBD29
S113462000200EBD002930B52ED0274A02F5BB6309
S113463002F58D6460B1012813D0022814D0032838
S113464017D0042818D0052818D0102819D01BE03A
S11346501078002814BF002042F2DD7008600020AA
S113466030BD4FF0C040F9E700F010F8AD0A0D601E
S1134670F5E71B680B60F2E75868EFE7186918B1B3
S1134680ECE700F003F8F2E7042030BD2568636826
S1134690A268E0685D195519451970470B46024632
S11346A00D49086B0E49121A002005F07BBC80B539
S11346B000920B4602460A49002005F0AFFC02BDF9
S11346C0000000005CEF00E0008D01000F0000F02E
S11346D046434642000400605064010014ED00E0CB
S11346E0189101003EB503F0C3FE022801D0012059
S11346F03EBDDFF8144C42F22C102518284606F073
S1134700CFFD48BB284600F09DFD28BB01A902A8A7
S113471006F0B2FD0199029800F05AFCE0B928466F
S113472000F090FDC0B942F22C00204400F0D0FC0F
S113473090B9012140F201102170694603F0B5F9E6
S113474050B900F06BF9E01804681144CC60C269F8
S1134750806842438A6000203EBDFEB504460420C2
S1134760002C1EBFDFF8A02B117800294DD0236840
S11347701D0F0B2D49D1C3F3036142F22405012916
S113478015440DD0002940D1204603F011FF10B18B
S113479000212970FEBDA26801236A602B70FEBD52
S11347A0297891B303F00F03082B1AD202EBC3004C
S11347B042F26C0142F2EC236D68D6580844694613
S11347C00768446801A803F02AFF06FB0757E0B90D
S11347D000982D18B5FBF6F0844202D3711E0F42E7
S11347E001D00420FEBDB7FBF6F40121204600F001
S11347F0CBFB10B942F2DB70FEBD019A0099204652
S113480000F0EDFC08B900F076FAFEBD2DE9F041A8
S1134810064604240D46002E18BF002D0ED028781D
S113482000F00F00C01E08283FD24FF480613046CC
S1134830FFF700FC686803F01CFA002870D0686871
S1134840083003F016FA00286AD06A6806F5807109
S1134850002007F021F8040062D12868DFF8A81AC4
S1134860C0F3032000281CBF0128002048602868EA
S113487000F00F039B1E082B52D8C0F30357032FDD
S1134880C0F303610CD8DFE807F0020406094027EF
S113489008E0802706E04FF4807703E0202701E05A
S11348A0202F3DD300293BD0052939D2DFF85C0AFB
S11348B00122706017FB01FC378200207182B26014
S11348C0C6F80CC0736116E0B2F806C0B2F804E092
S11348D0E644B2F80AC0F4451CD31289D6F8C8E2FB
S11348E006EBC008401C0EFB0CFC0EFB02F2C8F8E1
S11348F04420C8F840C098420CD2002805EB80023E
S1134900E2D1D6F8C8C2B7FBFCFE01FB0EFE4FEAAB
S11349104E0EDEE74FF47F71301D00F0B2FC3060C4
S11349202046BDE8F081F8B50424074603F0A1F958
S113493000283D4654D005F2FF35284603F099F986
S113494000284DD03868DFF8C05942F22C016E18A7
S1134950000F0C2846D139463046FFF757FF0400B4
S11349603ED10020287042F22C11681800F06AFC35
S1134970040035D1304600F0ABFBC8B1DFF89049F4
S1134980FF224FF48461204603F0F4FDDFF884092C
S1134990012160600022A16040F21C412261201DBF
S11349A000F06FFC2060304600F0BFFB040017D11C
S11349B0304600F042FB040012D101206946287001
S11349C040F2011003F071F8040009D100F026F858
S11349D0E81805681144CD60C269806842438A6062
S11349E02046F2BD7968DFF8242991420FD14FF4B3
S11349F08061384600F038FC0028F1D000204FF4E4
S1134A00806228703946304603F010F9ABE70B2872
S1134A10E6D13846FFF7A1FE0446E1E7009A1420E8
S1134A2042F2EC23DFF8F018424370472DE9FE4FC1
S1134A3092460425BAF1000F034688464CD0DFF8AD
S1134A40C868307810B942F2DD7545E0726842F208
S1134A50EC2177183968012A019118D1307B48B9C3
S1134A60F9698B4238D2B868B36032730024434387
S1134A70009312E0B068BA68424301FB02331B1A88
S1134A800198B3FBF1F1009100FB113304E0B3FB97
S1134A90F1F001FB103300901C46684641F20D0909
S1134AA000F023FC12E006F10D0001192A465046DD
S1134AB003F0BCF801992C19A8EB0508AA448C4210
S1134AC003D3009A641A521C00920025B8F1000F17
S1134AD011D10DB1002030732846BDE8FE8F084681
S1134AE000F0E0FBF8B142F220003158491C31508B
S1134AF000985844009041F210050099725916F834
S1134B0009008A4200D108BBD7F808B0B1FBFBF119
S1134B1018B1B2FBFBF0814205D0F8698142DED3C3
S1134B2042F2D875D6E7DDF800B00020396806F8FF
S1134B30090006F10D02584600F037FB20B90121A7
S1134B4046F805B006F809100500C2D1019808EB33
S1134B50040290422CBF4546051BA4E72DE9F84FFB
S1134B6093460424BBF1000F05D0DFF89C773A7814
S1134B7012B942F2DD7494E08946796842F2EC237A
S1134B8042F21406FA58BD1901290646904640D14E
S1134B90387BA0B9DFF88407C1698E42EBD20022CA
S1134BA001232A7092463B73DFF87427BE60806845
S1134BB046430096314608FB019111602FE03B44C7
S1134BC0B8689968414302FB0162DFF85417121A6E
S1134BD0B2FBF8F008FB102A00900868824213D058
S1134BE0287818B100F05AF9040058D1012042F293
S1134BF0EC2238733A44BE60906831464FF0000AA4
S1134C004143009108FB01F24A44DFF814170A609B
S1134C1005E0B6FBF8F008FB10660090B246009879
S1134C20A96D88423DD3684600F05FFB1EE009EBA6
S1134C300A00804507EB0A0041F214035946184460
S1134C4034BFA8EB0A044C462246A24402F0EEFF0D
S1134C506868A9EB0409A3442018C245686004D31A
S1134C600099AAEB080A491C00910024B9F1000F2D
S1134C7006D113E0E868401CE860009976180096B5
S1134C80A96800982C7881420ED16CB169685145AD
S1134C90CDD000F003F90028F2D004460CB1002076
S1134CA038732046BDE8F28F42F2EC223A4496680B
S1134CB0B0FBF6F01CB1B1FBF6F188420AD0D16921
S1134CC0884202D342F2D874E9E700F0EBFA0028F4
S1134CD0D0D11CB100F0E2F80400DFD1BAF1000F2A
S1134CE006D10020012268600099A9602A709EE71D
S1134CF044F62A64D3E7DFF82C2600201178002933
S1134D0018BF00F0CBB8704738B5DFF8FC45002079
S1134D10617821B142F22C00204400F006FA42F2FC
S1134D2014012144002241F20D050A706255CA6043
S1134D30227332BD2DE9F8430D46DFF8CC7539787E
S1134D40042411B942F2DD7441E00DB900243EE0BF
S1134D507B6842F2EC213944CE698A68012B08BF92
S1134D6081460DD00968B0FBF1F82818401EB0FB4D
S1134D70F1F0B8FBF2F9B0FBF2F5A5EB09056D1CF7
S1134D8042F26C017B58B3FBF2F2914507D21EE06C
S1134D90484600F056FA040003D16D1EC14625B9F9
S1134DA00DE0484600F08FFAC146B14507D24846A7
S1134DB009F1010800F076FA0028E9D0F4E77878E0
S1134DC028B142F22C01781800F0AFF904462046CD
S1134DD0BDE8F28370B5DFF83045207810B942F2AF
S1134DE0DD7070BD42F208300025265800E06D1CCD
S1134DF0B5420CD2284600F055FA0028F7D12846CF
S1134E0000F01FFA0028F2D070BD002070BD607859
S1134E100028FAD042F22C01601800F086F900282C
S1134E20F3D070BD002930B52ED0DFF8DC2442F277
S1134E30EC2342F27C141344144450B1012811D0E1
S1134E40022811D0032814D0052815D0102818D012
S1134E501AE01078002814BF002042F2DD700860C8
S1134E60002030BD0020FAE700F010F8ED0A0D60D4
S1134E70F6E71B680B60F3E71A68986842430A6018
S1134E80EEE700F003F8F2E7042030BD256863681C
S1134E90A268E0685D195519451970472DE9FE4F60
S1134EA0DFF8645442F2140042F2EC212E186F1819
S1134EB072683B6842F2DB789A421CBF0020287378
S1134EC0D6F808A0002232700121504600F05CF8A8
S1134ED0002848D0716841F214022A44504600F078
S1134EE07EF9002843D0B868BAFBF0F42046641C6D
S1134EF000F0E9F9F168F8690190491CF16006E0F5
S1134F00204600F0E0F9F068641C401CF060019950
S1134F108C422AD2204600F0C5F90028F3D1B868A3
S1134F20BAFBF0FB00FB0BFB60430090AAEB0B0108
S1134F30491C00F029F8B0B1DDF80090D345396878
S1134F4017D205F10D02584600F02FF9B8B93968A7
S1134F5005F10D02484600F042F980B90BF1010B4E
S1134F6009F10109EAE7404601E042F2D870BDE8E0
S1134F70FE8F41F214002A18484600F030F9002848
S1134F80F5D04045BCD1F2E7F8B50546DFF87863C3
S1134F9042F2EC200C4637580CE0001DB84208D20F
S1134FA051F8042B12F1010FF7D00020F2BD0120BB
S1134FB0F2BD641E002CFAD006F10D0239462846D3
S1134FC06D1C00F0F2F80028EFD106F10D01E5E7C1
S1134FD02DE9F041002705460E46B846CA4C01E0CB
S1134FE07F1CB044B8B2A84224D204F10D024FF49D
S1134FF08061404600F0D9F8002802BFD4F81100BF
S1135000C249884204BFD4F81520012AE8D14FF4DC
S1135010806104F10D0000F027F90028E0D042F28D
S11350202C004FF4806204F10D01204402F0FEFDD7
S1135030002000E00120BDE8F0812DE9F84F05468D
S113504044F62968B5F81290B5F810A0D5F8C8123E
S113505000260027DFF8B0B209FB0AF0B0FBF1F438
S11350604E452FD20BF10D024FF48061384600F00B
S11350709CF858BB4FF4806229460BF10D0006F0F2
S1135080EBF818BB761C5744EAE73046761C00F070
S1135090E6F8A642F9D30024002647464C4512D22E
S11350A02A464FF48061304600F099F800280FBF7B
S11350B00027D5F8C802B6FBF0F000F0D0F8641C65
S11350C05644EBE700273846BDE8F28F0026E0E7B8
S11350D02DE9F0418E4C00216160458A068A002743
S11350E0D0F80C8001E07F1CB044B8B2A84219D2B9
S11350F0082817DA22464FF48461404600F055F838
S1135100002802BF60688349884204BFA268012A5C
S1135110E9D14FF48461204600F0A6F80028E2D0DB
S1135120002000E00120BDE8F0812DE9F84F814620
S113513044F62966B9F81280B9F810A0D9F8C80263
S1135140D9F80C20002508FB0AF1B2FBF0F4B1FBFE
S1135150F0F703E000196D1C00F081F8A8B2B84222
S1135160F8D36B4F40F21C41381D002500F089F83C
S11351703860D9F80CB0644CA8B2404512D23A4613
S11351804FF48461584600F02AF810B96070002684
S113519005E0D9F8C812BBFBF1F000F060F86D1C13
S11351A0D344E9E73046BDE8F28F2DE9F0410546E6
S11351B00C469046544F08E042463146284600F0DB
S11351C045F850B9B044A41B6D1C34B142F2EC2034
S11351D03E58A64228BF2646EEE7BDE8F0812DE9F9
S11351E0F84307460C469046474E12E006F10D027E
S11351F02946384600F02AF85FEA00091ED12A46FB
S113520006F10D01404606F027F8A8B9A844641B2E
S11352107F1C9CB142F2EC2042F22C1135584346DB
S11352203A463144A54228BF25460095002006F0A1
S113523093FA0028DAD002E0012000E04846BDE8F5
S1135240F2830CE00146002006F070B980B51346E5
S1135250009102463449002006F07AF902BD024664
S11352603149002006F01ABA10B50446091F201D62
S113527000F007F82268904201D1012010BD0020FF
S113528010BD3EB504460D4601A806F06BFC2A4647
S1135290214601A806F06CFC694601A806F07DFCD5
S11352A000983EBD30B51A4A0021136900E0491C3C
S11352B0994206D202EB8104256A8542F7D1012086
S11352C030BD002030BD12490A69B2F5807F0AD290
S11352D001EB8202106208690B4A401C086101213B
S11352E051700020704701207047074942F22003A3
S11352F030B5CC5842F2F4250268495901FB042226
S11353000260002030BD000038F601004243464EE2
S1135310641A020054424244C06401002419020089
S1135320841E02004C1602006417020030B50446C5
S11353300420002C85B01EBFDFF8742411780029E6
S11353404BD023681D0F0B2D47D1C3F303610129F3
S113535002F543750DD000293FD1204603F028F90A
S113536010B10021297038E0A26801236A602B7013
S113537033E0297889B313F00F0F2ED100210120D7
S11353800491039104A900F0D0F930BB03A900F003
S1135390BEF910BB01A9032000F0C7F9E8B96C6895
S11353A0049D694602A803F03AF96519A8B9009A60
S11353B00399A418A14210D3019B5B1E1D420CD17A
S11353C00199284606F029FE10B142F2DB7004E090
S11353D0029A0099284600F0CCF805B030BD38B5E3
S11353E003F046F8102801D0012032BDDFF8C05385
S11353F0281D06F0C1FF040008D1281D06F028FE70
S1135400040003D100F0BFF901202870204632BD0A
S1135410FEB5054602F02DFC20B105F1FF0002F0B7
S113542028FC08B90420FEBD2968DFF88803DFF8EA
S1135430804381420DD14FF480722946201D02F031
S1135440F5FB0021201D217006F002FE00286BD020
S1135450FEBD080F0D285ED1C1F3012000B9012063
S113546021F4407141EA0021201D296006F084FFE7
S113547000286ED1052004F125061821207431700E
S11354802A7804F1450702F003027A742868000AB6
S1135490C10001F0180171702A68920A02F0010239
S11354A072722868000B00F00700F0712868C0F3DE
S11354B0810002283874C4D1AA8800F04BF8F07532
S11354C0EA8800F047F830762A8900F043F87076CD
S11354D06A8900F03FF8B076AA8900F03BF8F076CC
S11354E0EA8A00F037F8B0772A8B0121201D06F0F4
S11354F06BFBF077EA8900F02DF838702A8A00F007
S113550029F830776A8A00F025F87077AA8A00F0C3
S113551021F8787095E70B2803D12846FFF706FF9A
S1135520FEBD45F27C20FEBD00F02DF901A901204D
S113553000F0FBF86946102000F0F7F800989E4947
S1135540019A0A6483185B1E01224B648A6400205A
S11355502270FEBD0021201D06F036BB10B5944C10
S1135560237813B942F2DD7010BDBDE8104005F098
S113557051BE2DE9F84306468D4D28780C469046D9
S113558010B942F2DD703CE0304606F046FDA8B3A7
S113559042F2DB7035E005F58277786839680028D7
S11355A008BF00290CD195F82610C908B6FBF1F202
S11355B001FB126111B142F2DE7022E03E6002E0B2
S11355C04118B14217D12118B1F5007F414694BF6B
S11355D0A146C0F5007928444A4600F58670C844BF
S11355E002F024FB78684E44A4EB09044844B0F567
S11355F0007F786002D100F045F810B9002CCAD1C0
S11356000020BDE8F2832DE9FC41694E054630785F
S11356100C46174604EB050810B942F2DD702CE085
S113562000F02DF801A900F072F800998D4223BF13
S113563001984218424545F26D201ED306F586783E
S113564041468020401E41F8047BFBD19CB14FF4BD
S113565000770020B4F5007FC6F8080142462846CA
S113566098BF27463946FFF784FF002804BF7D19F9
S1135670E41BEBD001E000F005F8BDE8F6816946D3
S1135680012052E010B54A4C002004F582725368A0
S11356904BB111681060506004F58672201DBDE89E
S11356A0104006F026BD10BD2DE9FF41404C0646D2
S11356B020780D46AF1910B942F2DD7024E0FFF7EF
S11356C0DEFF01A9052000F030F802A900F01FF860
S11356D000998E4223BF02984218BA4245F26D20C7
S11356E012D375B900200FE000980199301AB0FB6D
S11356F0F1F1201D06F037FD5FEA000803D101989F
S11357008619BE42F0D3404604B0BDE8F0811020B3
S11357100BE0E0B501A9FFF7B3FF6946FFF7F7FF18
S113572000990198FFF7C0FF0EBD10B549B3204A98
S113573002F1A40350B1012811D0022812D0032889
S113574016D0052816D0102817D01AE01078002893
S113575014BF002042F2DD700860002010BD5269C1
S11357600A60FAE75C6898684443A40A0C60F4E7AA
S11357701A68F5E7586820B1EEE75A68986842431A
S1135780EEE7042010BDE0B501A90520FFF7CDFF29
S113579069461020FFF7C9FF0548009A81699142C4
S11357A004D2019BB1FBF3F1C0F8AC1007BD0000BB
S11357B0B0EE010053454D43506401003EB502F084
S11357C057FE202801D001203EBD00F0DDFCDFF8AB
S11357D03C4A44F218102518284606F0CAFE70BB4D
S11357E0284607F011FC50BB694601A806F0FCFDF1
S11357F0009B019A0021002000F0E3FBF8B944F279
S113580018004FF48062A11C204402F00FFA2846CD
S113581007F0FAFB98B9009B019A44F2240021583E
S1135820012000F0CEFB50B94FF48462A11CDFF8D4
S1135830E00902F0FBF90120207000F0BEFC3EBD3F
S11358402DE9F84F07463C4602F013FA28B104F25A
S1135850FF34204602F00DFA08B90420F6E0DFF820
S1135860AC4944F2240044F21811251804EB010950
S11358703946002000F08AFB90B3002044F218035C
S113588020704FF480623946E01802F0CFF94846A0
S113589007F0BAFB0028E1D1AB88EA882968012027
S11358A0DFF86C694FF4846700F08BFB002800F08C
S11358B0BF80FF223946304602F05CFEDFF854090F
S11358C0012170600022B16040F21C413261301D40
S11358D000F049FC306000F038FA0028BED1ACE09A
S11358E03968080F0D2840F0A080786810F00F0F79
S11358F014BF00F00F060126C0F30348B8F1000FEF
S1135900C1F3012008BF4FF0010800B9012021F4C0
S1135910407141EA002139607968C1F30720002809
S113592021F47F4108BF012041EA002179603878E1
S113593010F00700D8BF45F2E4208FDDB8F1090F5D
S113594028BF45F2E5206FD20020207000F01CFC37
S1135950484606F00EFE002878D144F26A1020442E
S1135960002144F221128172A11805230022CB7078
S1135970C2720A703A7802F0070202703B68C3F3FD
S1135980C002CA753A68C2F30212521C42703B68E4
S11359901B0ADA0002F018020A76396844F2481247
S11359A0090B01F00701A1543B681B0C03F0010330
S11359B0C3703968490C01F001010171484607F0D0
S11359C023FB002842D1796844F2C01E54F80E002B
S11359D0BC46C1F3072A16FB0AFAC1F3072200FBEF
S11359E002F900224FEA4A0A10E004EBC20144F231
S11359F0580754F80EB0521C394407890BFB07F7BB
S1135A004F60408954F80E707843086042451FD2B5
S1135A100CEB82001AB1C188878807EB010A478919
S1135A205745E2D245F2E62010E045F2E0200DE0D1
S1135A303A46A11C304602F0F9F8002000F0EFFAD3
S1135A4020B901202070BDE8F14FB6E3BDE8F28F24
S1135A50EE8009FB06F6A5F804902E60C5F80880D0
S1135A601AE72DE9F84F5FEA0208DFF8A06744F26D
S1135A70B812054606EB02073C68009408BF0420F0
S1135A80B5FBF4F904FB195521D0327812B942F26E
S1135A90DD701CE044F21403BA68F45802FB049964
S1135AA00C4610E0B01C41195246404602F0BEF8C4
S1135AB0009A5544A4EB0A04D044954224BFAD1A7D
S1135AC009F101090020002C42F2040A0BD1BDE8BF
S1135AD0F28F484600F032FBF0B144F21400D9448E
S1135AE03158491C315056F80A1042F20200305C19
S1135AF0494500D130BBD7F808B0B9FBFBF218B167
S1135B00B1FBFBF0824207D0F8683969484382420E
S1135B10DFD342F2D870DAE742F2020B00203B688E
S1135B2006F80B0044F2181CB21C494606EB0C00A4
S1135B3007F0FCFA20B9012146F80A9006F80B1088
S1135B400028C4D10098621990422CBFA246A0EB51
S1135B50050AA7E72DE9F84F5FEA02080746DFF8D0
S1135B60AC5644F2B812AC58009408BF0420A146C5
S1135B70B7FBF9F904FB197747D02A7812B942F236
S1135B80DD7042E044F20803EE18326D914538BFEF
S1135B9045F2E32039D344F2B8142C19F368A2680F
S1135BA08A4602FB03991CE000980AEB070142F2C3
S1135BB008038842414634BFC41B5446E8192246B0
S1135BC01844E71902F032F87268AAEB040AA044F8
S1135BD0A218726000998F4224BF7F1A09F101094B
S1135BE00020BAF1000F04D10FE0F068D944401C42
S1135BF0F060B0683478484509D144B17068B8425F
S1135C00D2D000F00CF90028F3D0BDE8F28F44F2B2
S1135C10B8116A18D2F808B0B9FBFBF11CB1B0FB9B
S1135C20FBF081420DD0D06812695043814202D307
S1135C3042F2D870E9E7484600F080FA0028D4D14F
S1135C401CB100F0ECF80028DFD137B900200121A5
S1135C507060C6F808903170A6E745F2D120D4E709
S1135C602DE9F047DFF8A47544F2B8157C193A78A9
S1135C702569E3685D4312B942F2DD703AE009B97F
S1135C80002037E02368A268B0FBF3F60818401E32
S1135C9044F25801B6FBF2F9B0FBF3F07B58B0FBC9
S1135CA0F2F6A6EB0906761CB3FBF2F2914509D293
S1135CB045F2E3201EE0504600F05EF95FEA00087A
S1135CC002D1761E86B102E0504600F08DFACA4633
S1135CD0AA4509D2A0680AF1010900FB0AF000F004
S1135CE02DFA0028E7D0F2E7787810B100F02DF80B
S1135CF080464046BDE8F08744F2C0122DE9F041E9
S1135D00DFF808650025B7183078BC6879684C431B
S1135D1088B942F2DD7016E03868684300F00EFA84
S1135D2040B9284600F028F95FEA00081CBF28465D
S1135D3000F05AFA6D1CA542EED3707810B100F051
S1135D4004F880464046BDE8F081012067E1DFF8B1
S1135D50C82400201178002918BF00F060B87047EB
S1135D6038B5DFF8A8440020617809B1FFF7EDFFEA
S1135D7044F208012144002242F202050A706255ED
S1135D80CA6032BD002930B52BD0DFF8802444F23C
S1135D90B813D41850B1012811D0022811D0032807
S1135DA014D0052815D0102818D01AE0107800282F
S1135DB014BF002042F2DD700860002030BD0020D6
S1135DC0FAE700F010F8AD0A0D60F6E723680B60FF
S1135DD0F3E7A268206842430A60EEE700F003F8A4
S1135DE0F2E7042030BD2569E368A26820685D43BA
S1135DF0554345437047DFF8141444F2F8120A443B
S1135E001078002800D0704710B5002342F2020435
S1135E1042F204000B550B50891C516010BD2DE952
S1135E20FE4FDFF8E84344F2080044F2B8112518A5
S1135E306618D5F808A03369F068B2684343019343
S1135E400020287068683168BAFBF2F8884207D0ED
S1135E5042F20803091A2344FF22184405F0F2F918
S1135E6044F2181301225146E01807F0C1FA002841
S1135E7042F2DB7B48D1306842F2080162180146E5
S1135E8000FB0AF000F052F8002841D0404608F127
S1135E90010800F0A9F9E86805E0404600F0A4F91B
S1135EA0E86808F10108401CE860019988452DD292
S1135EB0B76807FB08F9484600F040F90028EFD11D
S1135EC0BAFBF7F0474344F21810204449460090C7
S1135ED0AAEB0702521C07F08BFAA8B957453168A0
S1135EE018D200980B46A21C394607F01FF9C0B916
S1135EF03068A21C014600FB09F000F017F880B9D5
S1135F007F1C09F10109E9E7584601E042F2D87023
S1135F10BDE8FE8F42F20800221801FB0AF000F0EF
S1135F2005F80028F4D05845B7D1F1E72DE9F0473A
S1135F30904644F2B815B54E08EB010972590C4667
S1135F40B0FBF2FAFFF757FF38460CE044F21810A2
S1135F503B4642465146304407F054F950B9B844E0
S1135F60E41B0AF1010AC84504D27759BC4238BF80
S1135F702746EBE7BDE8F08710B50446FFF73BFF83
S1135F802146A648BDE8104007F0D4B910B50C4628
S1135F9020B9A34A201D4FF47F7103E09D4A201DC0
S1135FA040F21C416368934204BFA268012A06D1EF
S1135FB000F0D9F82168884201D1012010BD0020E9
S1135FC010BD2DE9F04782460F46904D9146984604
S1135FD04FF40051A81C07F04BFA5FEA0A000CBF0B
S1135FE04FF480644FF48464002601E04744761C37
S1135FF04E4511D244F2B810AA1C285821467843C1
S1136000FFF72FFD0028F1D1A91C5046FFF7BEFF72
S11360100028EBD0002000E00120BDE8F0872DE946
S1136020F84F804D84B06A8A2B8A0192019A0293B8
S1136030012A06D953437C4AD2F808A0B3FBFAFAE2
S113604001E04FF0010A8DF80000774CF8B9002602
S1136050B146B346DDF80480029FC14558D220689A
S1136060724A4FF4806100FB0BF0FFF7FAFC002842
S113607051D166484FF480622946801C05F0ECF843
S1136080002804BF09F10109BB44E6D043E0D5F878
S11360900C90A0685E4D45F2E22703954FF48468A6
S11360A0B9FBF0F440F21C41281D00F05CF82860B4
S11360B0002503E028196D1CFFF75EFF5545F9D351
S11360C00024DDF804A0029D039EDFF85CB1544572
S11360D032D2DBF800003246414600FB09F0FFF7FC
S11360E025FF40B99DF80000012802D10021474A4C
S11360F05170002705E0DBF80800B9FBF0F0FFF76A
S11361003BFF641CA944E2E7002005B0BDE8F08F22
S1136110CDF8048002E0CDF8048001260297002423
S1136120002EA14645F2E12703954FF48068EBD099
S11361304FF47F713E48B8E73846E6E770B53D4B0B
S113614001461C68324B00220020B1FBF4F11C69AB
S113615000E0521CA24205D203EB82052E6AB14232
S1136160F7D1012070BD3EB504460D4601A805F0E7
S1136170F9FC2A46214601A805F0FAFC694601A863
S113618005F00BFD00983EBD70B5204C44F2180399
S1136190E518FF224FF48061284602F0EBF9204E07
S11361A0012344F21C006E60AB604FF47F71204405
S11361B0FFF7D9FF2860002070BD1CB569464FF475
S11361C0807001F072FC70B9009A14201A4942439D
S11361D0154803680A44D3600469C16880684C4365
S11361E044439460002016BD09490A69B2F5807FD2
S11361F00AD201EB820210620869044A401C086159
S1136200012151700020704701207047BCA5010096
S1136210D4E9010054424244C4E50100D4E601003B
S11362204243464ED4E5010074E70100BEA50100D7
S1136230D8E501007CE70100C064010030B50446E4
S11362400420002C85B01EBFDFF8982511780029A2
S113625050D023681D0F0B2D4CD1C3F303610129CA
S113626002F23C450DD0002944D1204602F0A0F9A9
S113627010B1002129703DE0A26801236A602B70EF
S113628038E02978002935D013F00F0F32D10021DE
S113629001200491039104A900F068F950BB03A9FB
S11362A0102000F063F928BB01A9032000F05EF977
S11362B000BB6C68049D694602A802F0B0F9651938
S11362C0C0B9009A0399A418A14213D3019B5B1E81
S11362D01D420FD10199284600F0B6F810B942F2D8
S11362E0DB7007E0029A0099284600F017F808B915
S11362F000F052F805B030BD0020DFF8E8148860E3
S1136300704710B51346DFF8DC44227802B998E0F0
S11363100A461946BDE8104007F0DBB82DE9F843FA
S11363208046DFF8C05428780C469146D5F8287486
S113633010B942F2DD702DE0B7F5806F88BF4FF4DD
S1136340806734B3A8686968002804BF0029C5F8C9
S1136350048002D04118414516D121188F422CBF28
S113636026463E1A284400F10C01894504D03246E1
S113637049460C3001F05AFCA868A41BB144B0444F
S11363803018B842A860DCD100F006F80028D8D054
S113639000E00020BDE8F283F8B5DFF84864ADF50D
S11363A0806DB5680024DDB177687460B4602A46F6
S11363B006F10C01384607F00CF9040010D12A4606
S11363C06946384607F085F8040009D12A4669462B
S11363D006F10C0004F040FF10B142F2DF7000E05F
S11363E020460DF5806D01B0F0BD38B50D4604466C
S11363F0DFF8F013087810B942F2DD7032BD294697
S1136400204607F07EF840B92946204600F01CF8E3
S113641010B942F2DF7032BD002032BD10B5DFF892
S1136420C443207800B90CE007F0ACF840B9D4F8C4
S1136430241400F009F810B942F2DF7010BD0020F6
S113644010BD42F2DD7010BD70B5ADF5806D05462E
S11364500C4610E0491CB1EB960F0AD250F8042BFD
S113646012F1010FF6D0002000E001200DF5806D3F
S113647070BDA41B7519002CF7D04FF48066B4F5D9
S1136480806F6946284698BF2646324607F021F8B1
S113649068460021DFE72DE9F8430646042401F0AD
S11364A0E8FB00285FD006F12B0001F0E2FB002896
S11364B059D03068DFF82C5305F5826805F20C4793
S11364C0DFF82493000F0C281AD12C214046FDF745
S11364D0B1FD4FF480300121B86005F586600222D9
S11364E0017042700323052106228370C470017178
S11364F0314642714046C7F8049000F0D5F813E0E5
S11365003068010F0B2904D13046FFF797FE04468B
S113651029E0484527D12C214046FDF78BFD2C224C
S11365203146404601F082FB00203C7B2870D7F8BE
S1136530108005F58360AD4E01F02CFF204601F07C
S1136540E3FE3146204601F017FF4246314620461D
S113655000F034F8396805F5846006F08DFF040016
S113656004BF012028702046BDE8F28321B39D4A70
S113657002F2244350B1012811D0022814D0032878
S11365800FD0042814D0102814D015E01078002857
S113659014BF002042F2DD70086000207047002024
S11365A0FAE75A680A60F8E71B689B0A0B60F4E78D
S11365B09868F1E71A68F5E70420704770B58CB065
S11365C004460D46164607A891A1142201F02EFB9D
S11365D01C216846FDF72EFD00960821009B0191C1
S11365E083490022ADF80820B1FBF3F38DF80A20AB
S11365F00A46039313460099B2FBF1F1009A049101
S113660002218DF818106946B3FBF2F205920022BC
S113661007AB8DF81920ADF81A2053F824002A4648
S113662007F03AF90CB070BD2DE9F0430746714804
S113663089B0884616460478457804A879A11422BE
S113664001F0F4FAE946002000210022002389E841
S11366500F004FF4801003900EB9012201E0032EC5
S113666005D12946204601F069FE002019E0012EDB
S113667008BF019702D0022E08BF0097CDF808800A
S113668004A8694650F8240007F06AFAB0F5C87FF8
S1136690F6D030B100222946204601F04FFE42F6E2
S11366A0CD1009B0BDE8F08370B50B78524A03F001
S11366B00F0302EB8304E56D85610B68C3F30313D9
S11366C002EB8304256CC5610B68C3F3032352F802
S11366D023204A4B42610C68240B04F00F04012C64
S11366E002D0022C10D012E0012202744269B2F5E9
S11366F0803F98BF102205D99A4202D218234374CE
S113670036E02022427433E00223037430E0002296
S11367106024027400F12102D47145699D4213D2B0
S11367201823422443745471C369B3F5803F28BFCE
S1136730D82316D2B3F5805F08BF202417D0B3F551
S1136740004F15D152230CE0202412254474132346
S11367500026157053705671C369B3F5803F02D398
S1136760DC23937104E0B3F5805F01D1212494719B
S11367700A68120D02F00F02521E032A0BD8DFE83A
S113678002F002040608012206E0022204E00322C9
S113679002E0042200E0002202720A68120C02F0F5
S11367A00F02012A06D004D3032A03D038BF0222E1
S11367B000D3002242720A68C2F303627AB10979F3
S11367C001F00F01012904D009D3032905D002D314
S11367D005E00B4904E00B4902E00B4900E00B49DA
S11367E0C16070BDAC6501006B736563005A6202E1
S11367F000CA9A3BC4690100386501000100000128
S113680080969800404B4C0080841E00002D31017E
S113681000000000004039400080394000C0394089
S113682000003A4000000000004039400080394038
S113683000C0394000003A40F0B504460420002C62
S113684085B01FBFDFF8D85505F5427631780029A9
S113685069D02268130F0B2B65D1C2F303610129A0
S11368600DD000295FD1204601F0A2FE10B1002115
S1136870317558E0A2680123B261337553E0317D6C
S1136880002950D012F00F0F4DD1002101200491A6
S1136890029104A900F027FA002844D102A9022099
S11368A000F021FA00283ED10298DFF878154FF065
S11368B0FF34884201A928BF0294052000F013FA8E
S11368C088BBB769049E694603A801F0A8FEBE19F7
S11368D048BB009A0299BF18B94224D3019B5B1E9E
S11368E01E4220D195F8B002019901280198019B1C
S11368F0B2FBF1F100FB112218BF00241000224664
S113690018BF01204118B6FBF3F000F061FA10B98A
S113691042F2DB7007E0039A0099304600F03DF93B
S113692008B900F08FF905B0F0BD3EB5DFF8F044CA
S113693040F2FF1104F538750222A98420466A84C6
S113694007F096FCE8B9204608F0E5FEB0B901A9C5
S113695040F2211001F0A9F898B900F013F880B9B9
S1136960019B1421DFF8C0242D684B43D118CD605E
S1136970009A8A60012184F808133EBD002384F83C
S113698008333EBD6946204658E27FB5054601F00E
S113699070F968B1E81D01F06CF948B12868000F7E
S11369A00B2803D12846FFF747FF02E00C2802D04A
S11369B0042004B070BDDFF868444FF449712046E8
S11369C004F53876FDF736FBDFF8600420600E200E
S11369D009F08AF8DFF858140968C1F30241491C28
S11369E0B0FBF1F06060DFF84C042168026891426A
S11369F004BF002380F8D43040F2FF100221B08499
S1136A007184286804F12C01020B000A02F00F02C1
S1136A1000F00F000A7048706868C20C02F00102AE
S1136A200A7341F28832C30D000E00F0030003F034
S1136A30010301284B7340F6C41306D002D3032884
S1136A4008D005D344F6206005E042F2107002E05D
S1136A50104600E0184648606868C0F3005000B172
S1136A601A468A606868800C00F00100887320462A
S1136A7008F051FE00289CD129682046090E01F037
S1136A80070108F060FE002893D103A9FFF77BFFFC
S1136A9000288ED102A940F2211001F006F8002846
S1136AA087D1029B1421DFF8802336684B43D11829
S1136AB0CE60039A8A602968CB071DD5C1F3011201
S1136AC0080C8DF8022000F003000A0D8B08C90899
S1136AD001F001018DF8030002F0070203F0010345
S1136AE08DF804108DF8012069468DF80030204699
S1136AF008F028FF002802D1012184F8081358E780
S1136B002DE9F84FDFF81893824609F542760C46D2
S1136B103078904610B942F2DD703CE04FEA5A25D5
S1136B2009F54970AAEB45254FEA5A2700900FE072
S1136B3000985A46A4EB0B044119404601F076F83C
S1136B405D44B5F5007FD84424BFA5F500757F1CCE
S1136B5004B3707878B1706887420CD3411C8F42BB
S1136B6009D2AAEB40256019B0F5007F94BFA34673
S1136B70C5F5007BDCE700200099707001233A46DC
S1136B80484608F0FFFD002802BF012070707760BE
S1136B90E9D000E00020BDE8F28F2DE9F84FDFF8DE
S1136BA0809209F542773B7813B942F2DD703EE0FA
S1136BB082464FEA5A26AAEB46264FEA5A240D4645
S1136BC0904613E009F2245041465A46801901F0D8
S1136BD02DF8F9685E44B6F5007FA5EB0B05D844A3
S1136BE05944F96024BFA6F50076641CF5B1387ADF
S1136BF018B3386984421CD3411C8C4219D2AAEBC5
S1136C004026F868B04209D000F09AF80028EED087
S1136C100DE000200121F8603C613972A819B0F53B
S1136C20007F94BFAB46C6F5007BCBE70020BDE8F0
S1136C30F28F00F085F80028F9D1002EE9D042F255
S1136C40DE70F4E7764A002092F81013002918BF8A
S1136C5000F076B8704778480021C17101700020B7
S1136C60704770B506466E4D95F808030C4610B98A
S1136C7042F2DD7070BD284608F05DFD10B142F2AD
S1136C80E07070BD94B105F53870A419C16900684D
S1136C90641EB4FBF0F2B2FBF1F2B6FBF0F0B0FB11
S1136CA0F1F12846BDE8704008F0B0BD70BD38B5BC
S1136CB05B4C04F53F75287B10B942F2DD7032BDA0
S1136CC0204608F038FD10B142F2E07032BDFFF703
S1136CD059FE38B900982968B0FBF1F2002120462A
S1136CE008F094FD32BD38B50C0027D04C4D30B1BE
S1136CF001280ED002280ED005281BD01EE095F8DE
S1136D000803002814BF002042F2DD702060002038
S1136D1032BD0020FAE76946284600F08FF80028C3
S1136D20F6D1009AD5F8E012A1FB0201800A40EAEC
S1136D308150EBE7D5F8E0222260E8E7042032BD79
S1136D40F8B5374C204608F0F6FC10B142F2E0707A
S1136D50F2BD04F5447504F2245668684FF0FF3719
S1136D60B0F5007F0AD094F8B0120129C0F5007183
S1136D7030440CBF3A46002204F064FA94F8B0128E
S1136D8000202870A868012918BF00273A4601216D
S1136D9000F01EF810B942F2DB70F2BDAA680123BC
S1136DA03146204608F007FD88B9AA6804F54977FA
S1136DB001233946204608F0E5FC40B94FF400723F
S1136DC03946304604F048FA08B142F2DF70F2BDA9
S1136DD02DE9F84305460C461646DFF8448017E0D3
S1136DE008F549793B462A464946404608F0CAFC1C
S1136DF040B900E0001DB0EB472F08D259F8041B3E
S1136E00B142F7D0002000E00120BDE8F283E41B8A
S1136E10002CF9D0012C8CBF01272746E0E70000A5
S1136E209C94010001004000C064010000402C401B
S1136E3024C00F40309D0100A597010000F5397072
S1136E40027F072A14D8DFE802F0040808130B0DA8
S1136E500F11006808600020704742680A60FAE772
S1136E608068F7E7C268F9E70069F3E74269F5E784
S1136E7004207047F0B504460420002C85B01FBFE1
S1136E80DFF8182502F1BE05A97D00296AD0236820
S1136E901E0F0B2E66D1C3F30361012902F1E8062C
S1136EA00DD000295ED1204601F082FB10B10021F3
S1136EB0317057E0A26801237260337052E0317878
S1136EC000294FD013F00F0F4CD100210120049161
S1136ED0029104A900F0CDF9002843D102A90220AF
S1136EE000F0C7F900283DD10298DFF8B4144FF040
S1136EF0FF34884201A928BF0294052000F0B9F9A3
S1136F0080BB7768049E694603A801F088FBBE191C
S1136F1040BB009A0299BF18B94223D3019B5B1E60
S1136F201E421FD12878019BC10701990198B2FB29
S1136F30F1F158BF002400FB11221000224618BFB3
S1136F4001204118B6FBF3F000F000FA10B942F248
S1136F50DB7007E0039A0099304600F0EBF808B9BB
S1136F6000F03DF905B0F0BD38B5DFF830442046F7
S1136F7007F06EFB60B92046C83409F077FE28B9E3
S1136F8000F079F820B900F07BF832BD00232373B8
S1136F9032BD7CB5044600F06CFE68B1E01C00F024
S1136FA068FE48B12068000F0B2803D12046FFF784
S1136FB061FF76BD0D2801D0042076BDDFF8DC53D7
S1136FC0F0212846FDF736F8DFF8D80328600E20B4
S1136FD008F08AFDDFF8D0130968C1F3C221491C07
S1136FE0B0FBF1F06860DFF8C403296802689142DD
S1136FF005F12C0104BF002380F808332068020B3C
S113700002F007020A70C20D030AC60C000E00F05B
S1137010030003F0010302F0010201284B7006F0A3
S113702001064A730E7341F2883240F6C41306D047
S113703002D3032808D005D344F6206005E042F2C9
S1137040107002E0104600E0184648602068C0F363
S1137050005000B11A468A60284609F007FE05F17F
S1137060C80428B900F007F820B900F009F876BD83
S11370700023237376BD69464FF4907000F015BD6C
S1137080009B1421DFF8282365684B43D118CD6099
S113709022688A600121217370472DE9F84FDFF8D7
S11370A0FC92824609F1D4060C463078904610B919
S11370B042F2DD703CE04FEA5A2509F1F000AAEBF8
S11370C045254FEA5A2700900FE000985A46A4EB52
S11370D00B044119404600F0A9FD5D44B5F5007F5D
S11370E0D84424BFA5F500757F1C04B3707878B12B
S11370F0706887420CD3411C8F4209D2AAEB402509
S11371006019B0F5007F94BFA346C5F5007BDCE7AA
S113711000200099707001233A46484609F079FB33
S1137120002802BF012070707760E9D000E00020E1
S1137130BDE8F28F2DE9F84FDFF8609209F1D4072A
S11371403B7813B942F2DD703EE082464FEA5A269C
S1137150AAEB46264FEA5A240D46904613E009F559
S11371603C7041465A46801900F060FDF9685E445F
S1137170B6F5007FA5EB0B05D8445944F96024BF4C
S1137180A6F50076641CF5B1387A18B33869A042C4
S11371901CD1411C8C4219D2AAEB4026F868B0429B
S11371A009D000F089F80028EED00DE0002001217C
S11371B0F8603C613972A819B0F5007F94BFAB4602
S11371C0C6F5007BCBE70020BDE8F28F00F074F831
S11371D00028F9D1002EE9D042F2DE70F4E76F4ABC
S11371E0002092F8DC10002918BF00F065B8704741
S11371F070480021C17101700020704770B50546C8
S1137200664E96F8D4000C4610B942F2DD7070BD9B
S1137210304609F0F6FA10B142F2E07070BD54B194
S1137220690A65196D1E3046C1EB5522BDE87040F0
S1137230521C09F037BB70BD38B5584C04F1C80571
S1137240287B10B942F2DD7032BD204609F0D9FA2C
S113725010B142F2E07032BD28686968A1FB0023D6
S113726020460021520A42EAC352BDE8384009F0E0
S113727019BB10B5F1B1504A30B101280DD0022824
S11372800DD0052814D015E0107B002814BF002071
S113729042F2DD700860002010BD0020FAE7146897
S11372A05368A3FB0423920A42EA83520A60F2E77A
S11372B05068EFE7042010BD2DE9F041374C20461B
S11372C009F09FFA10B142F2E0703DE004F1E005EC
S11372D004F53C76286804F1BE074FF0FF38B0F59A
S11372E0007F09D03978CA07C0F5007130444CBF1B
S11372F04246002203F0A6FF39780020B877CA0777
S113730058BF804668684246012100F01FF810B952
S113731042F2DB7018E06A6801233146204609F026
S113732095FA88B96A6804F1F007012339462046C2
S113733009F06FFA40B94FF400723946304603F051
S11373408BFF08B142F2DF70BDE8F0812DE9F8430C
S113735005460C461646DFF8448017E008F1F009AC
S11373603B462A464946404609F053FA40B900E0F4
S1137370001DB0EB472F08D259F8041BB142F7D0D7
S1137380002000E00120BDE8F283E41B002CF9D0CA
S1137390012C8CBF01272746E0E70000309D010047
S11373A00100400000002C4024C00F409C940100C8
S11373B0C0640100059E0100F89D010041688268D7
S11373C08A4209D2891A826641600FF2D52101608E
S11373D0012282600020704742F2787070470FF2F9
S11373E0090101600020704710B5416ADFF84C4480
S11373F04A898282CB689B1E43604A68A24202D1BA
S1137400097A022902DB42F2757010BD0FF20902FB
S11374100260002010BD0000416A43684A6882612E
S11374200A68D21E9A42826002D342F27670704792
S11374300989002908BFFFF7C1BF42F2777070477E
S1137440F8B50446DFF8F863B4F85A30376804F145
S11374505C05626A6968D7F808C01806000F1B0A41
S113746043EA00232868E047A0B9306801698847E7
S113747080B9616A102204F11C0004F079FB00F069
S113748044F80098A968884200D043E00FF2112024
S113749020600020F2BDF8B504461022616A04F1B0
S11374A01C00DFF89C6304F15C0504F061FBB4F894
S11374B05A303768626A10211806000F1B0AD7F881
S11374C008C043EA00232868E047E8B92868103078
S11374D02860686810381028686088BFDFF8640383
S11374E010D810B1DFF860030CE0306801698847F8
S11374F050B900F00AF80098A968884200D009E061
S11375000FF29D1020600020F2BD694604F11C00BA
S113751004F043BB42F27A70F2BD10B5044604F1A4
S11375201C0004F01FFB216E11292CBFDFF814038B
S1137530DFF814032060002010BD38B5C04B426E44
S11375401C68016EC06DE568A84732BDB0F85A20CA
S113755013061B0F110AD20741EA03214CBF08236B
S11375600423042901D00420704700F16002C16D96
S1137570B64800F083BC70B5044642F27F76E56DF0
S1137580284600F076FB80B1606E04F11801A8472C
S11375900646012E03D12046BDE870400EE7022EB8
S11375A003D100F0C3F8002070BD304670BD10B5A3
S11375B0436800F15C02516881608B4202D242F25E
S11375C0767010BD147AE30707D512688469A24265
S11375D003D111B1C160002010BD90F85A10CA0740
S11375E002D542F27C7010BDBDE81040E6E638B525
S11375F0B0F85A108A071FD40B061B0F0A0AC907D2
S11376001CD542EA0322083A0ED0521E04D0F73A9F
S11376100ED0521E04D00FE0BDE83140FCF7D5BFB8
S1137620BDE83140FDF7D6BBBDE83140FEF771B887
S1137630BDE83140FEF760BB042032BD42EA0322BC
S11376407F4B1C685C3041680068A569A84732BD5F
S11376501CB50446B4F85A000106090F000A40EAB2
S11376600120092803D1E06DFCF793FD16BD08281D
S113767003D1E06DFDF7CCFE16BD01290ED169469C
S113768000F013FA58B9E06D009C6D4A1421936818
S11376904C4319190A691369984716BD042016BD8D
S11376A0F8B5044604F15806616A304610225A259A
S11376B000F0BCFA0120375C401CED191028FAD305
S11376C0307805F0FF05A84202D042F27970F2BD8D
S11376D0717842F212700A2925D8DFE801F01A06FF
S11376E00A0E26121A16261C20002046BDE8F24077
S11376F05DE72046BDE8F2400FE72046BDE8F240D2
S11377001BE72046BDE8F24035E72046BDE8F240DD
S11377106DE70020F2BD2046BDE8F24098E7204620
S1137720BDE8F24012E742F27B70F2BD10B5484C5E
S113773070212046FCF77EFC464A0020226010BDE2
S1137740F8B506460C4600200027434DA74218D042
S11377502969E01BC1F1100109E080B12B69F25DD8
S11377607F1C491E401EEA542A69521C2A610029C2
S1137770F3D10020286100F005F810B9E6E742F2E1
S11377807D70F2BD80B53248334A4262C26800213E
S11377902AB1036993420AD05B1C036101E0826E43
S11377A01AB901688847014601E0521E82660846FC
S11377B002BDF8B5224C20680169884700283CD1F5
S11377C0234F97F85900042823D107F15C052E684C
S11377D0304600F04EFAC8B10020FCF7FFFB97F8E2
S11377E05A00810710D568686861616860B10A68E9
S11377F0904222BF4968491C814201D20420F2BD53
S113780080F3088880F30988A868B04742F27E7044
S1137810F2BD08280FD10220FCF7E0FBBFF34F8F25
S11378200E490F480A6802F4E06202430A60BFF39B
S11378304F8F00BFFDE742F27B70F2BD53544D50B1
S113784010640100977400004174000000401F4060
S1137850A89C0100DF7300001C9D01000CED00E0FA
S11378600400FA057CB50C00164605461A4601D1FB
S1137870002076BD100A10F00F0002D001280AD0B3
S113788019E06A46284600F0BAF8B0B900F0A1F849
S11378906568A84776BD6B46284600F0D4F860B901
S11378A00098A64A03692846996951605B68324684
S11378B02146984776BD42F2D87076BDF8B50C00E3
S11378C0174606461A4601D10020F2BD100A10F0F0
S11378D00F009A4D02D0012816D02CE0304600F05B
S11378E0F9F840BB6A462146304600F088F820BBD0
S11378F0009B214630463A46DC68A668B047B8B9D2
S11379000099CA68136911E06B46304600F09BF891
S113791098B900983A4603693046996969609B684A
S11379202146984720B900990A6953692B60F2BD32
S113793000212960F2BD42F2D870F2BD7CB5130A71
S113794013F00F0305460C4642F2D87602D0012B01
S113795014D024E06A4600F052F8E8B90099CA68E5
S1137960506998B12146284600F0B4F8B8B9009A95
S113797021462846D3685C69A04776BD6B4600F073
S113798062F848B900980169CA680AB9662076BDE8
S113799021462846904776BD14B9002076BD30466E
S11379A076BD7CB50C000546164601D1002076BD97
S11379B000F090F810B142F2D87076BD6A462146C4
S11379C0284600F01CF818B900F003F8E568A84749
S11379D076BD009B214628463246DC68704710B5C8
S11379E0564C206810B180470021216010BD10B5AD
S11379F0524C606810B180470021616010BDF0B541
S1137A0016000D4642F2D8771FBF4D494A683260CE
S1137A10002D16D001E01033336033688BB11A683F
S1137A20002A04BF5C68002C01D1D96849B1904296
S1137A3024BF59688142EED32818401E814228BFD2
S1137A4000273846F0BD002B42F2D87CF0B506463C
S1137A5017461FBF3A4882681A60002923D002E003
S1137A6005F114041C601D68EDB12A68002A04BFE6
S1137A706C68002C07D1A868002804BFEC68002CAF
S1137A8001D1286978B19742EAD1AA68E868002749
S1137A90A0FB0245701847EB07018D4203D301D8C0
S1137AA0844200D3BC466046F0BD70B50546042050
S1137AB0002671B1224A946801E0761C143444B162
S1137AC0236833B12269002A03D09D42F5D10E60A8
S1137AD0002070BDF0B50918194B491E00225F68DB
S1137AE0DC68256905EBC20606F17C041601BD5964
S1137AF066682468AC4208BFAE4203D0864228BF01
S1137B00A14204D2521C012AEAD90020F0BD01206E
S1137B10F0BD70B50A4D6E6803E0006800B180479F
S1137B201036F0680028F8D1AD6803E0096801B1A7
S1137B308847143529690029F8D162BD949401005D
S1137B40106401000246012000E0491E21B112F830
S1137B50013BFF2BF9D0002070470000F0B506462A
S1137B6004240D46002EA3B018BF002D56D0382192
S1137B70284605F07DFC38224323AA708120EB704F
S1137B806621287000205522E871102329716A713A
S1137B900EA8AB7109F0ACF804003FD10020214FCE
S1137BA08DF83B000EA9384609F034FA040035D1AB
S1137BB0102205F10801384609F05CFA04002DD1C1
S1137BC00D210AA8FCF736FA06A809F0A5FA05F172
S1137BD00801802206A809F0B3FA102005F1280153
S1137BE005F118020023059006A8049110210392C0
S1137BF00AAA019300930D23029609F084FD0A4911
S1137C00802206A809F09CFA102005F108030090D0
S1137C1005F10802012106A809F0DAFB204623B089
S1137C20F0BD00BF00C00C40AB89DCFE4AB10000CF
S1137C3011F8013B521E00F8013B1CBF11F8013B37
S1137C40F8E7704738B504460D460020FCF7C6F93E
S1137C50524800210560524A44601160036883F36E
S1137C60088883F3098840688047BDE8314000F004
S1137C709EB800281CB51EBF10F1010F4949884267
S1137C8001D1002016BD6A4602210024FFF7B7FE89
S1137C9020B90098017ACA0748BF0124204616BDBE
S1137CA010B50246404900204B6800E01033D96803
S1137CB061B11C7A04F01104112CF7D119689142B6
S1137CC0F4D25C68641C9442F0D3012010BD4FF4DC
S1137CD07A7070B5344C0026E1680A6902F18C05AB
S1137CE0FBF73AFA00F0C2FB98B9FFF7C2FF80B184
