S01200006C65645F626C696E6B792E73726563F5
S113A0000000022061AB00009FA80000F9AB000033
S113A0101FAC00002BAC0000C5AD00000000000028
S113A020000000000000000000000000C7AD0000B8
S113A030C9AD000000000000CBAD0000EDA9000098
S113A04045AC00004DAC000055AC00005DAC000018
S113A05065AC00006DAC000075AC00007DAC000088
S113A06085AC00008DAC000095AC00009DAC0000F8
S113A070A5AC0000ADAC0000B5AC0000BDAC000068
S113A080C5AC0000BDAD0000BDAD0000BDAD00001D
S113A090CDAC0000D5AC0000DDAC0000E5AC0000A8
S113A0A0EDAC0000F5AC0000FDAC000005AD000017
S113A0B00DAD000015AD00001DAD000025AD000084
S113A0C02DAD000035AD00003DAD000045AD0000F4
S113A0D04DAD000055AD0000BDAD0000BDAD0000AC
S113A0E0BDAD0000BDAD0000BDAD0000BDAD0000C4
S113A0F0BDAD0000BDAD0000BDAD0000BDAD0000B4
S113A100BDAD0000BDAD0000BDAD0000BDAD0000A3
S113A110BDAD0000BDAD0000BDAD0000BDAD000093
S113A1205DAD000065AD00006DAD000075AD0000D3
S113A1307DAD0000BDAD0000BDAD0000BDAD0000B3
S113A140BDAD0000BDAD0000BDAD0000BDAD000063
S113A150BDAD0000BDAD0000BDAD0000BDAD000053
S113A160BDAD0000BDAD0000BDAD0000BDAD000043
S113A170BDAD0000BDAD0000BDAD0000BDAD000033
S113A180BDAD0000BDAD0000BDAD0000BDAD000023
S113A190BDAD0000BDAD0000BDAD0000BDAD000013
S113A1A0BDAD0000BDAD000085AD00008DAD00006B
S113A1B0BDAD0000BDAD0000BDAD0000BDAD0000F3
S113A1C0BDAD0000BDAD0000BDAD0000BDAD0000E3
S113A1D0BDAD0000BDAD0000BDAD0000BDAD0000D3
S113A1E0BDAD0000BDAD0000BDAD0000BDAD0000C3
S113A1F095AD0000BDAD00009DAD0000A5AD000013
S113A200BDAD0000BDAD0000ADAD0000B5AD0000BA
S113A210BDAD0000BDAD0000BDAD0000BDAD000092
S113A220BDAD0000BDAD0000BDAD0000BDAD000082
S113A230BDAD0000BDAD0000BDAD0000BDAD000072
S113A240BDAD0000BDAD0000BDAD0000BDAD000062
S113A250BDAD0000BDAD0000BDAD0000BDAD000052
S113A260BDAD0000BDAD0000BDAD0000BDAD000042
S113A270BDAD0000BDAD0000BDAD0000BDAD000032
S113A280BDAD0000BDAD0000BDAD0000BDAD000022
S113A290BDAD0000BDAD0000BDAD0000BDAD000012
S113A2A0BDAD0000BDAD0000BDAD0000BDAD000002
S113A2B0BDAD0000BDAD0000BDAD0000BDAD0000F2
S113A2C0BDAD0000BDAD0000BDAD0000BDAD0000E2
S113A2D0BDAD0000BDAD0000BDAD0000BDAD0000D2
S113A2E0BDAD0000BDAD0000BDAD0000BDAD0000C2
S113A2F0BDAD0000BDAD0000BDAD0000BDAD0000B2
S113A300BDAD0000BDAD0000BDAD0000BDAD0000A1
S113A310BDAD0000BDAD0000BDAD0000BDAD000091
S113A320BDAD0000BDAD0000BDAD0000BDAD000081
S113A330BDAD0000BDAD0000BDAD0000BDAD000071
S113A340BDAD0000BDAD0000BDAD0000BDAD000061
S113A350BDAD0000BDAD0000BDAD0000BDAD000051
S113A360BDAD0000BDAD0000BDAD0000BDAD000041
S113A370BDAD0000BDAD0000BDAD0000BDAD000031
S113A380BDAD0000BDAD0000BDAD0000BDAD000021
S113A390BDAD0000BDAD0000BDAD0000BDAD000011
S113A3A0BDAD0000BDAD0000BDAD0000BDAD000001
S113A3B0BDAD0000BDAD0000BDAD0000BDAD0000F1
S113A3C0BDAD0000BDAD0000BDAD0000BDAD0000E1
S113A3D0BDAD0000BDAD0000BDAD0000BDAD0000D1
S113A3E0BDAD0000BDAD0000BDAD0000BDAD0000C1
S113A3F0BDAD0000BDAD0000BDAD0000FFFFFFFF1F
S113A40078B47D4A7D4B506F4FF6FE7140F4700076
S113A41050671C894FF6FE700C4079491C810D89E8
S113A42005400D811C88660704D51D884FF6FB7016
S113A43005401D800B885C0704D50D884FF6FB7022
S113A44005400D806F48704941604FF6FF7383608B
S113A450046824F0800444F0200404606B4801681C
S113A460CB0703D5046864086400046010688103A2
S113A47012D4BFF34F8FBFF36F8F0023644C23605C
S113A480BFF34F8FBFF36F8F106840F4003010603C
S113A490BFF34F8FBFF36F8F1168CB0322D400201B
S113A4A01067BFF34F8FD16E594EC1F34E3343F64D
S113A4B0E075C1F3C90405EA431545EA84703061C7
S113A4C02046441E0028F8D11846431E0028EED129
S113A4D0BFF34F8F106840F480301060BFF34F8F8C
S113A4E0BFF36F8F71BC00F0A3B8F0B5494C4A4A72
S113A4F06068810122D5A36813F4405307D0B3F5F3
S113A500805F11D0B3F5005F08BF106B0EE01069D7
S113A510C103106903D5C0F3813038B904E0810761
S113A52054BF3E483E4802E03E4800E000206168D7
S113A530C1F3C261491CB0FBF1F653E01068C103DA
S113A54007D51068C0F38130002814BF0025354DAD
S113A55005E01568334805F07F0545436D08116B28
S113A560C80307D5116BC1F38130002814BF00263E
S113A5702C4E04E0106BC1074CBF294E274E106DC2
S113A5802849126E0023A768A1FB000100F06EF8B1
S113A590861917F4402725D0B7F5802F06D0B7F5D4
S113A5A0002F0DD0B7F5402F14D01AE01E480168D3
S113A5B0C1F30540B6FBF0F000EBC002560011E019
S113A5C0194B186800F03F00B6FBF0F101EBC10530
S113A5D06E0007E0226802F00702521CB5FBF2F697
S113A5E000E000266068114AC0F38220401CB6FBDC
S113A5F0F0F11160F0BD000014ED00E000800B40AC
S113A60000000D4000C00B4020C528D910E000E038
S113A61050EF00E010C00F4000800D4000389C1C3B
S113A62000A4781F00366E0100810D400000002058
S113A630704730B4002513E050F8042BD30744BF0F
S113A640A9F101039A18091F042942F8045BFAD2FC
S113A65013468C0744BF15809B1CC90748BF1D7057
S113A66050F8041B0029E7D130BC7047BBBBE1B1F3
S113A670B2F5803F80F07E80022A1ED98C46B1FB61
S113A680F2F102FB11C31B0443EA1043B3FBF2FCD7
S113A69002FB1C3380B240EA0343B3FBF2F002FB3B
S113A6A0103240EA0C4000237047022A05D9844640
S113A6B0B0FBF2F002FB10C270474AB105D100F0C2
S113A6C0010249085FEA3000704700220023704706
S113A6D000F0E4B80B000200002100207047904213
S113A6E071EB030CF6D3B3F5803F2FD2F0B5B3FA78
S113A6F083F7B1FA81F4A7F10F0E3D1B5340CEF15D
S113A700200602FA0EF2F3415340B5F10F0746D882
S113A7100F3C2C444140C4F12006A040F14141408B
S113A720B1FBF3F603FB1611A2FB0645001BA9417E
S113A73002D2761E8018594180EA010221FA0EF3F2
S113A74062FA0EF200215A403046F0BD30B4B1FB3B
S113A750F3FC03FB1C11A2FB0C45001BA94103D213
S113A760ACF1010C8018594130BC02460B466046DE
S113A77000217047B2F1807F65D3F0B5B2FA82F759
S113A780B1FA81F4C7F10F063D1B22FA06F307F173
S113A790110EF24120355A40B5F10F07B8D94140A6
S113A7A0C4F12006A040F1414140B1FBF3FC03FB9E
S113A7B01C11A2FB0C45001BA94103D2BCF1010CE6
S113A7C0801859410F2F12D30F3FC90341EA50415A
S113A7D0B1FBF3F603FB1611A2FB0645D4EBC03024
S113A7E0A94102D2761E8018594146EACC3C07B3EF
S113A7F04140C7F12006B840F1414140B1FBF3F6B6
S113A80003FB1611A2FB0645001BA94102D2761ECA
S113A8108018594180EA010221FA0EF3C7F120049D
S113A82062FA0EF20CFA07F05A402CFA04F13043A3
S113A830F0BD80EA010221FA0EF3002162FA0EF261
S113A84060465A40F0BD8C46B1FBF2F102FB11C3E5
S113A8501B0243EA1063B3FBF2FC02FB1C331B0232
S113A8604CEA002043EA1063B3FBF2FC02FB1C3306
S113A8701B024CEA002043EA1063B3FBF2FC02FB28
S113A8801C331B024CEA002043EA1063B3FBF2FCC6
S113A89002FB1C324CEA0020002370477047FEE79D
S113A8A0F8B504460020002C0E4615461EBF0120B4
S113A8B01E498C420FD002201D4A94421EBF032021
S113A8C01C498C4207D004201B4A94421FBF052018
S113A8D01A498C42062000BF41A2194B32F91000DC
S113A8E0032200F01F01000A03EB800002FA01F1C9
S113A8F007688F433943012701606369B740F9430F
S113A9000B406361287818B963681940616007E0F7
S113A9106A783146204600F015F863681F43676083
S113A920AA7831462046BDE8F84019E000801B4073
S113A93000C01B4000001C4000401C4000000C40B4
S113A94068C00F400123002A03FA01F107BF02681F
S113A95022EA0101D0F800C041EA0C01016070470D
S113A96070B4C369012404FA01F5AB431029C3612F
S113A97032BF00F10C0300F110031039521E042AF7
S113A9802BD8DFE802F00309131F27001A680324F9
S113A99048008440A2431AE0480019680322824018
S113A9A0844091430C431C6070BC70471C68480091
S113A9B003258540022101FA00F0AC4320431860CE
S113A9C070BC70471A6803264800864032431A60F8
S113A9D070BC7047C1690D43C56170BC704700000D
S113A9E0FFFF1A011E001A020C031E0121494868C8
S113A9F010B14A68521E4A607047000038B500BF63
S113AA0022A01D4C0168009100F042F8FFF76DFD93
S113AA106A4609212046FFF743FF1848184B01688E
S113AA20A1FB0332500A401EB0F1807F21D21549A8
S113AA30154A4860F020107000238B6007250D60D4
S113AA400C4D06E0002209212046FFF77BFF002081
S113AA5028704FF47A71696068680028FCD12978FD
S113AA600029EFD1012209212046FFF76BFF0120C5
S113AA70EEE7FEE72C00002000801B4000000020D1
S113AA80986E128310E000E023ED00E00100000066
S113AA9000BF0748074A016841F2B003DFF818C055
S113AAA041F00C01016005201060CCF800307047C3
S113AAB078C00F40E0801F40D0821F40144A1548E0
S113AAC05168526A1047124A13489168526A1047F3
S113AAD00F4A1248D168526A10470D4A104811694A
S113AAE0526A10470A4A0F485169526A1047084A85
S113AAF00D489169526A1047054A0C48D169526A57
S113AB001047034A0A48116A526A104700000000BD
S113AB1004000020004018400080184000C0184085
S113AB2000001940004019400080194000C019403D
S113AB3000001A4030B450F8041B79B1026843682D
S113AB4002440830DC0744BFA9F10104E31852F8B9
S113AB50045B43F8045B091FF9D1ECE730BC704790
S113AB6072B60548054901600A6882F308880448FA
S113AB70804762B60348004708ED00E000A00000EB
S113AB8001A4000039AC000010B50749794418311C
S113AB90064C7C44163404E00A68081D11448847B6
S113ABA00146A142F8D110BD2C0000004C00000069
S113ABB04EF68851CEF20001086840F47000086037
S113ABC0BFF34F8FBFF36F8F4FF00070E1EE100AA9
S113ABD0704700005FFAFFFF30000000040000200F
S113ABE00000000051FFFFFF04000000D40100003A
S113ABF00000002000000000FEE700000120C04625
S113AC00002801D0FFF7C0FFAFF300800020AFF3AE
S113AC100080FFF7F3FE00F000F800F001B8FEE753
S113AC200746384600F002F8FBE7FEE72021090357
S113AC3026311820ABBEF9E7AFF30080FFF7B8FF69
S113AC40FFF7DCFF00480047BDAD000000480047A7
S113AC50BDAD000000480047BDAD000000480047FE
S113AC60BDAD000000480047BDAD000000480047EE
S113AC70BDAD000000480047BDAD000000480047DE
S113AC80BDAD000000480047BDAD000000480047CE
S113AC90BDAD000000480047BDAD000000480047BE
S113ACA0BDAD000000480047BDAD000000480047AE
S113ACB0BDAD000000480047BDAD0000004800479E
S113ACC0BDAD000000480047BDAD0000004800478E
S113ACD0BDAA000000480047C7AA0000004800477A
S113ACE0D1AA000000480047DBAA00000048004742
S113ACF0E5AA000000480047EFAA0000004800470A
S113AD00F9AA00000048004703AB000000480047D0
S113AD10BDAD000000480047BDAD0000004800473D
S113AD20BDAD000000480047BDAD0000004800472D
S113AD30BDAD000000480047BDAD0000004800471D
S113AD40BDAD000000480047BDAD0000004800470D
S113AD50BDAD000000480047BDAD000000480047FD
S113AD60BDAD000000480047BDAD000000480047ED
S113AD70BDAD000000480047BDAD000000480047DD
S113AD80BDAD000000480047BDAD000000480047CD
S113AD90BDAD000000480047BDAD000000480047BD
S113ADA0BDAD000000480047BDAD000000480047AD
S113ADB0BDAD000000480047BDAD0000FFF7FEBF79
S10FADC000A4781FFEE7FEE7FEE7FEE7B4
S903AC3917
